{
  "contractName": "FlightSuretyApp",
  "abi": [
    {
      "inputs": [
        {
          "internalType": "address",
          "name": "dataContractAdr",
          "type": "address"
        }
      ],
      "stateMutability": "nonpayable",
      "type": "constructor"
    },
    {
      "anonymous": false,
      "inputs": [
        {
          "indexed": false,
          "internalType": "address",
          "name": "airline",
          "type": "address"
        },
        {
          "indexed": false,
          "internalType": "string",
          "name": "flight",
          "type": "string"
        },
        {
          "indexed": false,
          "internalType": "uint256",
          "name": "timestamp",
          "type": "uint256"
        },
        {
          "indexed": false,
          "internalType": "uint8",
          "name": "status",
          "type": "uint8"
        }
      ],
      "name": "FlightStatusInfo",
      "type": "event"
    },
    {
      "anonymous": false,
      "inputs": [
        {
          "indexed": false,
          "internalType": "address",
          "name": "airline",
          "type": "address"
        },
        {
          "indexed": false,
          "internalType": "string",
          "name": "flight",
          "type": "string"
        },
        {
          "indexed": false,
          "internalType": "uint256",
          "name": "timestamp",
          "type": "uint256"
        },
        {
          "indexed": false,
          "internalType": "uint8",
          "name": "status",
          "type": "uint8"
        }
      ],
      "name": "OracleReport",
      "type": "event"
    },
    {
      "anonymous": false,
      "inputs": [
        {
          "indexed": false,
          "internalType": "uint8",
          "name": "index",
          "type": "uint8"
        },
        {
          "indexed": false,
          "internalType": "address",
          "name": "airline",
          "type": "address"
        },
        {
          "indexed": false,
          "internalType": "string",
          "name": "flight",
          "type": "string"
        },
        {
          "indexed": false,
          "internalType": "uint256",
          "name": "timestamp",
          "type": "uint256"
        }
      ],
      "name": "OracleRequest",
      "type": "event"
    },
    {
      "anonymous": false,
      "inputs": [
        {
          "indexed": true,
          "internalType": "address",
          "name": "previousOwner",
          "type": "address"
        },
        {
          "indexed": true,
          "internalType": "address",
          "name": "newOwner",
          "type": "address"
        }
      ],
      "name": "OwnershipTransferred",
      "type": "event"
    },
    {
      "anonymous": false,
      "inputs": [
        {
          "indexed": false,
          "internalType": "address",
          "name": "account",
          "type": "address"
        }
      ],
      "name": "Paused",
      "type": "event"
    },
    {
      "anonymous": false,
      "inputs": [
        {
          "indexed": false,
          "internalType": "address",
          "name": "account",
          "type": "address"
        }
      ],
      "name": "Unpaused",
      "type": "event"
    },
    {
      "inputs": [],
      "name": "MINIMUM_FUNDING",
      "outputs": [
        {
          "internalType": "uint256",
          "name": "",
          "type": "uint256"
        }
      ],
      "stateMutability": "view",
      "type": "function",
      "constant": true
    },
    {
      "inputs": [],
      "name": "REGISTRATION_FEE",
      "outputs": [
        {
          "internalType": "uint256",
          "name": "",
          "type": "uint256"
        }
      ],
      "stateMutability": "view",
      "type": "function",
      "constant": true
    },
    {
      "inputs": [],
      "name": "owner",
      "outputs": [
        {
          "internalType": "address",
          "name": "",
          "type": "address"
        }
      ],
      "stateMutability": "view",
      "type": "function",
      "constant": true
    },
    {
      "inputs": [],
      "name": "paused",
      "outputs": [
        {
          "internalType": "bool",
          "name": "",
          "type": "bool"
        }
      ],
      "stateMutability": "view",
      "type": "function",
      "constant": true
    },
    {
      "inputs": [],
      "name": "renounceOwnership",
      "outputs": [],
      "stateMutability": "nonpayable",
      "type": "function"
    },
    {
      "inputs": [
        {
          "internalType": "address",
          "name": "newOwner",
          "type": "address"
        }
      ],
      "name": "transferOwnership",
      "outputs": [],
      "stateMutability": "nonpayable",
      "type": "function"
    },
    {
      "inputs": [
        {
          "internalType": "bool",
          "name": "operational",
          "type": "bool"
        }
      ],
      "name": "setOperatingStatus",
      "outputs": [],
      "stateMutability": "nonpayable",
      "type": "function"
    },
    {
      "inputs": [],
      "name": "isOperational",
      "outputs": [
        {
          "internalType": "bool",
          "name": "",
          "type": "bool"
        }
      ],
      "stateMutability": "view",
      "type": "function",
      "constant": true
    },
    {
      "inputs": [
        {
          "internalType": "bool",
          "name": "active",
          "type": "bool"
        }
      ],
      "name": "setTestingMode",
      "outputs": [],
      "stateMutability": "nonpayable",
      "type": "function"
    },
    {
      "inputs": [
        {
          "internalType": "address",
          "name": "airline",
          "type": "address"
        },
        {
          "internalType": "string",
          "name": "name",
          "type": "string"
        }
      ],
      "name": "registerAirline",
      "outputs": [
        {
          "internalType": "enum FlightSuretyData.State",
          "name": "",
          "type": "uint8"
        }
      ],
      "stateMutability": "nonpayable",
      "type": "function"
    },
    {
      "inputs": [],
      "name": "fundAirline",
      "outputs": [],
      "stateMutability": "payable",
      "type": "function",
      "payable": true
    },
    {
      "inputs": [
        {
          "internalType": "address",
          "name": "airline",
          "type": "address"
        },
        {
          "internalType": "bool",
          "name": "approve",
          "type": "bool"
        }
      ],
      "name": "voteForAirline",
      "outputs": [],
      "stateMutability": "nonpayable",
      "type": "function"
    },
    {
      "inputs": [
        {
          "internalType": "string",
          "name": "flight",
          "type": "string"
        },
        {
          "internalType": "uint256",
          "name": "timestamp",
          "type": "uint256"
        }
      ],
      "name": "registerFlight",
      "outputs": [],
      "stateMutability": "nonpayable",
      "type": "function"
    },
    {
      "inputs": [
        {
          "internalType": "address",
          "name": "airline",
          "type": "address"
        },
        {
          "internalType": "string",
          "name": "flight",
          "type": "string"
        },
        {
          "internalType": "uint256",
          "name": "timestamp",
          "type": "uint256"
        }
      ],
      "name": "fetchFlightStatus",
      "outputs": [],
      "stateMutability": "nonpayable",
      "type": "function"
    },
    {
      "inputs": [
        {
          "internalType": "address",
          "name": "airline",
          "type": "address"
        },
        {
          "internalType": "string",
          "name": "flight",
          "type": "string"
        },
        {
          "internalType": "uint256",
          "name": "timestamp",
          "type": "uint256"
        }
      ],
      "name": "buyInsurance",
      "outputs": [],
      "stateMutability": "payable",
      "type": "function",
      "payable": true
    },
    {
      "inputs": [],
      "name": "getPayout",
      "outputs": [],
      "stateMutability": "nonpayable",
      "type": "function"
    },
    {
      "inputs": [],
      "name": "registerOracle",
      "outputs": [],
      "stateMutability": "payable",
      "type": "function",
      "payable": true
    },
    {
      "inputs": [],
      "name": "getMyIndexes",
      "outputs": [
        {
          "internalType": "uint8[3]",
          "name": "",
          "type": "uint8[3]"
        }
      ],
      "stateMutability": "view",
      "type": "function",
      "constant": true
    },
    {
      "inputs": [
        {
          "internalType": "uint8",
          "name": "index",
          "type": "uint8"
        },
        {
          "internalType": "address",
          "name": "airline",
          "type": "address"
        },
        {
          "internalType": "string",
          "name": "flight",
          "type": "string"
        },
        {
          "internalType": "uint256",
          "name": "timestamp",
          "type": "uint256"
        },
        {
          "internalType": "uint8",
          "name": "statusCode",
          "type": "uint8"
        }
      ],
      "name": "submitOracleResponse",
      "outputs": [],
      "stateMutability": "nonpayable",
      "type": "function"
    }
  ],
  "bytecode": "0x60806040526000600160146101000a81548160ff021916908360ff1602179055503480156200002d57600080fd5b50604051620043c3380380620043c38339818101604052810190620000539190620001b8565b6200007362000067620000d560201b60201c565b620000dd60201b60201c565b60008060146101000a81548160ff02191690831515021790555080600160006101000a81548173ffffffffffffffffffffffffffffffffffffffff021916908373ffffffffffffffffffffffffffffffffffffffff160217905550506200023d565b600033905090565b60008060009054906101000a900473ffffffffffffffffffffffffffffffffffffffff169050816000806101000a81548173ffffffffffffffffffffffffffffffffffffffff021916908373ffffffffffffffffffffffffffffffffffffffff1602179055508173ffffffffffffffffffffffffffffffffffffffff168173ffffffffffffffffffffffffffffffffffffffff167f8be0079c531659141344cd1fd0a4f28419497f9722a3daafe3b4186f6b6457e060405160405180910390a35050565b600081519050620001b28162000223565b92915050565b600060208284031215620001d157620001d06200021e565b5b6000620001e184828501620001a1565b91505092915050565b6000620001f782620001fe565b9050919050565b600073ffffffffffffffffffffffffffffffffffffffff82169050919050565b600080fd5b6200022e81620001ea565b81146200023a57600080fd5b50565b614176806200024d6000396000f3fe6080604052600436106101145760003560e01c8063715018a6116100a0578063c611370211610064578063c6113702146102f2578063cd905dff1461031b578063ee38a74914610346578063f2fde38b14610383578063f83f11c0146103ac57610114565b8063715018a6146102665780637d065c931461027d5780638da5cb5b146102945780639ed18927146102bf578063c10f2700146102c957610114565b8063596d7a68116100e7578063596d7a68146101915780635c975abb146101ba5780635f1cc0e6146101e557806364b4f7511461021057806368e7a2611461023b57610114565b8063110466ed146101195780632f6721d014610142578063339d25901461015e57806339cfc99514610168575b600080fd5b34801561012557600080fd5b50610140600480360381019061013b9190612d96565b6103d5565b005b61015c60048036038101906101579190612d27565b6104ff565b005b610166610810565b005b34801561017457600080fd5b5061018f600480360381019061018a9190612df0565b6108fd565b005b34801561019d57600080fd5b506101b860048036038101906101b39190612d96565b610bb6565b005b3480156101c657600080fd5b506101cf610c7c565b6040516101dc91906135aa565b60405180910390f35b3480156101f157600080fd5b506101fa610c92565b604051610207919061358f565b60405180910390f35b34801561021c57600080fd5b50610225610dd2565b6040516102329190613880565b60405180910390f35b34801561024757600080fd5b50610250610dde565b60405161025d9190613880565b60405180910390f35b34801561027257600080fd5b5061027b610dea565b005b34801561028957600080fd5b50610292610e72565b005b3480156102a057600080fd5b506102a961112c565b6040516102b6919061341b565b60405180910390f35b6102c7611155565b005b3480156102d557600080fd5b506102f060048036038101906102eb9190612ea6565b611454565b005b3480156102fe57600080fd5b5061031960048036038101906103149190612c8b565b611872565b005b34801561032757600080fd5b50610330611b2b565b60405161033d91906135aa565b60405180910390f35b34801561035257600080fd5b5061036d60048036038101906103689190612ccb565b611be4565b60405161037a91906135c5565b60405180910390f35b34801561038f57600080fd5b506103aa60048036038101906103a59190612c5e565b611f96565b005b3480156103b857600080fd5b506103d360048036038101906103ce9190612d27565b61208e565b005b6103dd61236d565b73ffffffffffffffffffffffffffffffffffffffff166103fb61112c565b73ffffffffffffffffffffffffffffffffffffffff1614610451576040517f08c379a0000000000000000000000000000000000000000000000000000000008152600401610448906137a0565b60405180910390fd5b80156104ab5761045f610c7c565b61049e576040517f08c379a0000000000000000000000000000000000000000000000000000000008152600401610495906136c0565b60405180910390fd5b6104a6612375565b6104fc565b6104b3610c7c565b156104f3576040517f08c379a00000000000000000000000000000000000000000000000000000000081526004016104ea90613640565b60405180910390fd5b6104fb612416565b5b50565b610507611b2b565b610546576040517f08c379a000000000000000000000000000000000000000000000000000000000815260040161053d906136a0565b60405180910390fd5b600160009054906101000a900473ffffffffffffffffffffffffffffffffffffffff1673ffffffffffffffffffffffffffffffffffffffff1663eeecdd7b8484846040518463ffffffff1660e01b81526004016105a5939291906134ab565b60206040518083038186803b1580156105bd57600080fd5b505afa1580156105d1573d6000803e3d6000fd5b505050506040513d601f19601f820116820180604052508101906105f59190612dc3565b610634576040517f08c379a000000000000000000000000000000000000000000000000000000000815260040161062b90613720565b60405180910390fd5b600060ff16600160009054906101000a900473ffffffffffffffffffffffffffffffffffffffff1673ffffffffffffffffffffffffffffffffffffffff16639de5f9578585856040518463ffffffff1660e01b8152600401610698939291906134ab565b60206040518083038186803b1580156106b057600080fd5b505afa1580156106c4573d6000803e3d6000fd5b505050506040513d601f19601f820116820180604052508101906106e89190612e79565b60ff161461072b576040517f08c379a000000000000000000000000000000000000000000000000000000000815260040161072290613780565b60405180910390fd5b670de0b6b3a7640000341115610776576040517f08c379a000000000000000000000000000000000000000000000000000000000815260040161076d90613800565b60405180910390fd5b600160009054906101000a900473ffffffffffffffffffffffffffffffffffffffff1673ffffffffffffffffffffffffffffffffffffffff1663a305e6b984848433346040518663ffffffff1660e01b81526004016107d99594939291906134e9565b600060405180830381600087803b1580156107f357600080fd5b505af1158015610807573d6000803e3d6000fd5b50505050505050565b670de0b6b3a764000034101561085b576040517f08c379a000000000000000000000000000000000000000000000000000000000815260040161085290613820565b60405180910390fd5b6000610866336124b9565b9050604051806040016040528060011515815260200182815250600260003373ffffffffffffffffffffffffffffffffffffffff1673ffffffffffffffffffffffffffffffffffffffff16815260200190815260200160002060008201518160000160006101000a81548160ff0219169083151502179055506020820151816001019060036108f6929190612a82565b5090505050565b610905611b2b565b610944576040517f08c379a000000000000000000000000000000000000000000000000000000000815260040161093b906136a0565b60405180910390fd5b60018060009054906101000a900473ffffffffffffffffffffffffffffffffffffffff1673ffffffffffffffffffffffffffffffffffffffff16630e248a11336040518263ffffffff1660e01b81526004016109a0919061341b565b60206040518083038186803b1580156109b857600080fd5b505afa1580156109cc573d6000803e3d6000fd5b505050506040513d601f19601f820116820180604052508101906109f09190612dc3565b610a2f576040517f08c379a0000000000000000000000000000000000000000000000000000000008152600401610a26906137c0565b60405180910390fd5b8015610b2057600160009054906101000a900473ffffffffffffffffffffffffffffffffffffffff1673ffffffffffffffffffffffffffffffffffffffff16635689b249336040518263ffffffff1660e01b8152600401610a90919061341b565b60206040518083038186803b158015610aa857600080fd5b505afa158015610abc573d6000803e3d6000fd5b505050506040513d601f19601f82011682018060405250810190610ae09190612dc3565b610b1f576040517f08c379a0000000000000000000000000000000000000000000000000000000008152600401610b1690613860565b60405180910390fd5b5b600160009054906101000a900473ffffffffffffffffffffffffffffffffffffffff1673ffffffffffffffffffffffffffffffffffffffff16633cc0be9c3385856040518463ffffffff1660e01b8152600401610b7f939291906134ab565b600060405180830381600087803b158015610b9957600080fd5b505af1158015610bad573d6000803e3d6000fd5b50505050505050565b610bbe61236d565b73ffffffffffffffffffffffffffffffffffffffff16610bdc61112c565b73ffffffffffffffffffffffffffffffffffffffff1614610c32576040517f08c379a0000000000000000000000000000000000000000000000000000000008152600401610c29906137a0565b60405180910390fd5b610c3a611b2b565b610c79576040517f08c379a0000000000000000000000000000000000000000000000000000000008152600401610c70906136a0565b60405180910390fd5b50565b60008060149054906101000a900460ff16905090565b610c9a612b1c565b600260003373ffffffffffffffffffffffffffffffffffffffff1673ffffffffffffffffffffffffffffffffffffffff16815260200190815260200160002060000160009054906101000a900460ff16610d29576040517f08c379a0000000000000000000000000000000000000000000000000000000008152600401610d2090613740565b60405180910390fd5b600260003373ffffffffffffffffffffffffffffffffffffffff1673ffffffffffffffffffffffffffffffffffffffff168152602001908152602001600020600101600380602002604051908101604052809291908260038015610dc8576020028201916000905b82829054906101000a900460ff1660ff1681526020019060010190602082600001049283019260010382029150808411610d915790505b5050505050905090565b670de0b6b3a764000081565b678ac7230489e8000081565b610df261236d565b73ffffffffffffffffffffffffffffffffffffffff16610e1061112c565b73ffffffffffffffffffffffffffffffffffffffff1614610e66576040517f08c379a0000000000000000000000000000000000000000000000000000000008152600401610e5d906137a0565b60405180910390fd5b610e706000612618565b565b610e7a611b2b565b610eb9576040517f08c379a0000000000000000000000000000000000000000000000000000000008152600401610eb0906136a0565b60405180910390fd5b6000600160009054906101000a900473ffffffffffffffffffffffffffffffffffffffff1673ffffffffffffffffffffffffffffffffffffffff16636c24a76f336040518263ffffffff1660e01b8152600401610f16919061341b565b60206040518083038186803b158015610f2e57600080fd5b505afa158015610f42573d6000803e3d6000fd5b505050506040513d601f19601f82011682018060405250810190610f669190612e4c565b11610fa6576040517f08c379a0000000000000000000000000000000000000000000000000000000008152600401610f9d906137e0565b60405180910390fd5b6000600160009054906101000a900473ffffffffffffffffffffffffffffffffffffffff1673ffffffffffffffffffffffffffffffffffffffff16636c24a76f336040518263ffffffff1660e01b8152600401611003919061341b565b60206040518083038186803b15801561101b57600080fd5b505afa15801561102f573d6000803e3d6000fd5b505050506040513d601f19601f820116820180604052508101906110539190612e4c565b9050600160009054906101000a900473ffffffffffffffffffffffffffffffffffffffff1673ffffffffffffffffffffffffffffffffffffffff166333dd217f336040518263ffffffff1660e01b81526004016110b0919061341b565b600060405180830381600087803b1580156110ca57600080fd5b505af11580156110de573d6000803e3d6000fd5b505050503373ffffffffffffffffffffffffffffffffffffffff166108fc829081150290604051600060405180830381858888f19350505050158015611128573d6000803e3d6000fd5b5050565b60008060009054906101000a900473ffffffffffffffffffffffffffffffffffffffff16905090565b61115d611b2b565b61119c576040517f08c379a0000000000000000000000000000000000000000000000000000000008152600401611193906136a0565b60405180910390fd5b6000600160009054906101000a900473ffffffffffffffffffffffffffffffffffffffff1673ffffffffffffffffffffffffffffffffffffffff16630e248a11336040518263ffffffff1660e01b81526004016111f9919061341b565b60206040518083038186803b15801561121157600080fd5b505afa158015611225573d6000803e3d6000fd5b505050506040513d601f19601f820116820180604052508101906112499190612dc3565b611288576040517f08c379a000000000000000000000000000000000000000000000000000000000815260040161127f906137c0565b60405180910390fd5b801561137957600160009054906101000a900473ffffffffffffffffffffffffffffffffffffffff1673ffffffffffffffffffffffffffffffffffffffff16635689b249336040518263ffffffff1660e01b81526004016112e9919061341b565b60206040518083038186803b15801561130157600080fd5b505afa158015611315573d6000803e3d6000fd5b505050506040513d601f19601f820116820180604052508101906113399190612dc3565b611378576040517f08c379a000000000000000000000000000000000000000000000000000000000815260040161136f90613860565b60405180910390fd5b5b678ac7230489e800003410156113c4576040517f08c379a00000000000000000000000000000000000000000000000000000000081526004016113bb90613660565b60405180910390fd5b600160009054906101000a900473ffffffffffffffffffffffffffffffffffffffff1673ffffffffffffffffffffffffffffffffffffffff16636fbb8798336040518263ffffffff1660e01b815260040161141f919061341b565b600060405180830381600087803b15801561143957600080fd5b505af115801561144d573d6000803e3d6000fd5b5050505050565b600260003373ffffffffffffffffffffffffffffffffffffffff1673ffffffffffffffffffffffffffffffffffffffff16815260200190815260200160002060000160009054906101000a900460ff166114e3576040517f08c379a00000000000000000000000000000000000000000000000000000000081526004016114da90613620565b60405180910390fd5b8460ff16600260003373ffffffffffffffffffffffffffffffffffffffff1673ffffffffffffffffffffffffffffffffffffffff16815260200190815260200160002060010160006003811061153c5761153b613ba6565b5b602091828204019190069054906101000a900460ff1660ff1614806115d057508460ff16600260003373ffffffffffffffffffffffffffffffffffffffff1673ffffffffffffffffffffffffffffffffffffffff1681526020019081526020016000206001016001600381106115b5576115b4613ba6565b5b602091828204019190069054906101000a900460ff1660ff16145b8061164a57508460ff16600260003373ffffffffffffffffffffffffffffffffffffffff1673ffffffffffffffffffffffffffffffffffffffff16815260200190815260200160002060010160026003811061162f5761162e613ba6565b5b602091828204019190069054906101000a900460ff1660ff16145b611689576040517f08c379a000000000000000000000000000000000000000000000000000000000815260040161168090613760565b60405180910390fd5b6000858585856040516020016116a294939291906133d1565b6040516020818303038152906040528051906020012090506003600082815260200190815260200160002060000160149054906101000a900460ff1661171d576040517f08c379a000000000000000000000000000000000000000000000000000000000815260040161171490613840565b60405180910390fd5b6003600082815260200190815260200160002060010160008360ff1660ff168152602001908152602001600020339080600181540180825580915050600190039060005260206000200160009091909190916101000a81548173ffffffffffffffffffffffffffffffffffffffff021916908373ffffffffffffffffffffffffffffffffffffffff1602179055507f43c853095c2752648493c88b4baac4d580d2594ffb00c6f1d4242d844514f783858585856040516117e09493929190613543565b60405180910390a160056003600083815260200190815260200160002060010160008460ff1660ff168152602001908152602001600020805490501061186a577fe23f5229de535c091e3b7bec2665f5d698192d3b31393066e8987b7a05076b6c858585856040516118559493929190613543565b60405180910390a1611869858585856126dc565b5b505050505050565b61187a611b2b565b6118b9576040517f08c379a00000000000000000000000000000000000000000000000000000000081526004016118b0906136a0565b60405180910390fd5b60018060009054906101000a900473ffffffffffffffffffffffffffffffffffffffff1673ffffffffffffffffffffffffffffffffffffffff16630e248a11336040518263ffffffff1660e01b8152600401611915919061341b565b60206040518083038186803b15801561192d57600080fd5b505afa158015611941573d6000803e3d6000fd5b505050506040513d601f19601f820116820180604052508101906119659190612dc3565b6119a4576040517f08c379a000000000000000000000000000000000000000000000000000000000815260040161199b906137c0565b60405180910390fd5b8015611a9557600160009054906101000a900473ffffffffffffffffffffffffffffffffffffffff1673ffffffffffffffffffffffffffffffffffffffff16635689b249336040518263ffffffff1660e01b8152600401611a05919061341b565b60206040518083038186803b158015611a1d57600080fd5b505afa158015611a31573d6000803e3d6000fd5b505050506040513d601f19601f82011682018060405250810190611a559190612dc3565b611a94576040517f08c379a0000000000000000000000000000000000000000000000000000000008152600401611a8b90613860565b60405180910390fd5b5b600160009054906101000a900473ffffffffffffffffffffffffffffffffffffffff1673ffffffffffffffffffffffffffffffffffffffff1663a7a502f53385856040518463ffffffff1660e01b8152600401611af493929190613436565b600060405180830381600087803b158015611b0e57600080fd5b505af1158015611b22573d6000803e3d6000fd5b50505050505050565b6000611b35610c7c565b158015611bdf5750600160009054906101000a900473ffffffffffffffffffffffffffffffffffffffff1673ffffffffffffffffffffffffffffffffffffffff16635c975abb6040518163ffffffff1660e01b815260040160206040518083038186803b158015611ba557600080fd5b505afa158015611bb9573d6000803e3d6000fd5b505050506040513d601f19601f82011682018060405250810190611bdd9190612dc3565b155b905090565b6000611bee611b2b565b611c2d576040517f08c379a0000000000000000000000000000000000000000000000000000000008152600401611c24906136a0565b60405180910390fd5b611c3561112c565b73ffffffffffffffffffffffffffffffffffffffff163373ffffffffffffffffffffffffffffffffffffffff161480611d155750600160009054906101000a900473ffffffffffffffffffffffffffffffffffffffff1673ffffffffffffffffffffffffffffffffffffffff16635689b249336040518263ffffffff1660e01b8152600401611cc4919061341b565b60206040518083038186803b158015611cdc57600080fd5b505afa158015611cf0573d6000803e3d6000fd5b505050506040513d601f19601f82011682018060405250810190611d149190612dc3565b5b611d54576040517f08c379a0000000000000000000000000000000000000000000000000000000008152600401611d4b906136e0565b60405180910390fd5b600160009054906101000a900473ffffffffffffffffffffffffffffffffffffffff1673ffffffffffffffffffffffffffffffffffffffff16630e248a11846040518263ffffffff1660e01b8152600401611daf919061341b565b60206040518083038186803b158015611dc757600080fd5b505afa158015611ddb573d6000803e3d6000fd5b505050506040513d601f19601f82011682018060405250810190611dff9190612dc3565b15611e3f576040517f08c379a0000000000000000000000000000000000000000000000000000000008152600401611e3690613680565b60405180910390fd5b60006004600160009054906101000a900473ffffffffffffffffffffffffffffffffffffffff1673ffffffffffffffffffffffffffffffffffffffff1663525f38be6040518163ffffffff1660e01b815260040160206040518083038186803b158015611eab57600080fd5b505afa158015611ebf573d6000803e3d6000fd5b505050506040513d601f19601f82011682018060405250810190611ee39190612e4c565b10159050600081611ef5576004611ef8565b60035b9050600160009054906101000a900473ffffffffffffffffffffffffffffffffffffffff1673ffffffffffffffffffffffffffffffffffffffff166308314f998686846040518463ffffffff1660e01b8152600401611f599392919061346d565b600060405180830381600087803b158015611f7357600080fd5b505af1158015611f87573d6000803e3d6000fd5b50505050809250505092915050565b611f9e61236d565b73ffffffffffffffffffffffffffffffffffffffff16611fbc61112c565b73ffffffffffffffffffffffffffffffffffffffff1614612012576040517f08c379a0000000000000000000000000000000000000000000000000000000008152600401612009906137a0565b60405180910390fd5b600073ffffffffffffffffffffffffffffffffffffffff168173ffffffffffffffffffffffffffffffffffffffff161415612082576040517f08c379a000000000000000000000000000000000000000000000000000000000815260040161207990613600565b60405180910390fd5b61208b81612618565b50565b600160009054906101000a900473ffffffffffffffffffffffffffffffffffffffff1673ffffffffffffffffffffffffffffffffffffffff1663eeecdd7b8484846040518463ffffffff1660e01b81526004016120ed939291906134ab565b60206040518083038186803b15801561210557600080fd5b505afa158015612119573d6000803e3d6000fd5b505050506040513d601f19601f8201168201806040525081019061213d9190612dc3565b61217c576040517f08c379a000000000000000000000000000000000000000000000000000000000815260040161217390613720565b60405180910390fd5b600060ff16600160009054906101000a900473ffffffffffffffffffffffffffffffffffffffff1673ffffffffffffffffffffffffffffffffffffffff16639de5f9578585856040518463ffffffff1660e01b81526004016121e0939291906134ab565b60206040518083038186803b1580156121f857600080fd5b505afa15801561220c573d6000803e3d6000fd5b505050506040513d601f19601f820116820180604052508101906122309190612e79565b60ff1614612273576040517f08c379a000000000000000000000000000000000000000000000000000000000815260040161226a90613780565b60405180910390fd5b600061227e336129c8565b905060008185858560405160200161229994939291906133d1565b6040516020818303038152906040528051906020012090506000600360008381526020019081526020016000209050338160000160006101000a81548173ffffffffffffffffffffffffffffffffffffffff021916908373ffffffffffffffffffffffffffffffffffffffff16021790555060018160000160146101000a81548160ff0219169083151502179055507f3ed01f2c3fc24c6b329d931e35b03e390d23497d22b3f90e15b600343e93df118387878760405161235d949392919061389b565b60405180910390a1505050505050565b600033905090565b61237d610c7c565b6123bc576040517f08c379a00000000000000000000000000000000000000000000000000000000081526004016123b3906135e0565b60405180910390fd5b60008060146101000a81548160ff0219169083151502179055507f5db9ee0a495bf2e6ff9c91a7834c1ba4fdd244a5e8aa4e537bd38aeae4b073aa6123ff61236d565b60405161240c919061341b565b60405180910390a1565b61241e610c7c565b1561245e576040517f08c379a000000000000000000000000000000000000000000000000000000000815260040161245590613700565b60405180910390fd5b6001600060146101000a81548160ff0219169083151502179055507f62e78cea01bee320cd4e420270b5ea74000d11b0c9f74754ebdbfc544b05a2586124a261236d565b6040516124af919061341b565b60405180910390a1565b6124c1612b1c565b6124c9612b1c565b6124d2836129c8565b816000600381106124e6576124e5613ba6565b5b602002019060ff16908160ff16815250505b612501836129c8565b8160016003811061251557612514613ba6565b5b602002019060ff16908160ff16815250508060006003811061253a57612539613ba6565b5b602002015160ff168160016003811061255657612555613ba6565b5b602002015160ff16146124f8575b61256d836129c8565b8160026003811061258157612580613ba6565b5b602002019060ff16908160ff1681525050806000600381106125a6576125a5613ba6565b5b602002015160ff16816002600381106125c2576125c1613ba6565b5b602002015160ff16148061260b5750806001600381106125e5576125e4613ba6565b5b602002015160ff168160026003811061260157612600613ba6565b5b602002015160ff16145b6125645780915050919050565b60008060009054906101000a900473ffffffffffffffffffffffffffffffffffffffff169050816000806101000a81548173ffffffffffffffffffffffffffffffffffffffff021916908373ffffffffffffffffffffffffffffffffffffffff1602179055508173ffffffffffffffffffffffffffffffffffffffff168173ffffffffffffffffffffffffffffffffffffffff167f8be0079c531659141344cd1fd0a4f28419497f9722a3daafe3b4186f6b6457e060405160405180910390a35050565b6126e4611b2b565b612723576040517f08c379a000000000000000000000000000000000000000000000000000000000815260040161271a906136a0565b60405180910390fd5b600060ff168160ff1614806127ed5750600060ff16600160009054906101000a900473ffffffffffffffffffffffffffffffffffffffff1673ffffffffffffffffffffffffffffffffffffffff16639de5f9578686866040518463ffffffff1660e01b8152600401612797939291906134ab565b60206040518083038186803b1580156127af57600080fd5b505afa1580156127c3573d6000803e3d6000fd5b505050506040513d601f19601f820116820180604052508101906127e79190612e79565b60ff1614155b156127f7576129c2565b600160009054906101000a900473ffffffffffffffffffffffffffffffffffffffff1673ffffffffffffffffffffffffffffffffffffffff1663f8d9bfd9858585856040518563ffffffff1660e01b81526004016128589493929190613543565b600060405180830381600087803b15801561287257600080fd5b505af1158015612886573d6000803e3d6000fd5b50505050601460ff168160ff16141561292f57600160009054906101000a900473ffffffffffffffffffffffffffffffffffffffff1673ffffffffffffffffffffffffffffffffffffffff1663c8820a708585856040518463ffffffff1660e01b81526004016128f8939291906134ab565b600060405180830381600087803b15801561291257600080fd5b505af1158015612926573d6000803e3d6000fd5b505050506129c1565b600160009054906101000a900473ffffffffffffffffffffffffffffffffffffffff1673ffffffffffffffffffffffffffffffffffffffff1663ad24ef9b8585856040518463ffffffff1660e01b815260040161298e939291906134ab565b600060405180830381600087803b1580156129a857600080fd5b505af11580156129bc573d6000803e3d6000fd5b505050505b5b50505050565b600080600a905060008160ff1642856001601481819054906101000a900460ff166129f290613a7e565b91906101000a81548160ff021916908360ff1602179055604051602001612a1b93929190613394565b6040516020818303038152906040528051906020012060001c612a3e9190613ae8565b905060fa600160149054906101000a900460ff1660ff161115612a78576000600160146101000a81548160ff021916908360ff1602179055505b8092505050919050565b826003601f01602090048101928215612b0b5791602002820160005b83821115612adc57835183826101000a81548160ff021916908360ff1602179055509260200192600101602081600001049283019260010302612a9e565b8015612b095782816101000a81549060ff0219169055600101602081600001049283019260010302612adc565b505b509050612b189190612b3e565b5090565b6040518060600160405280600390602082028036833780820191505090505090565b5b80821115612b57576000816000905550600101612b3f565b5090565b6000612b6e612b698461390c565b6138e7565b905082815260208101848484011115612b8a57612b89613c09565b5b612b95848285613a0b565b509392505050565b600081359050612bac816140e4565b92915050565b600081359050612bc1816140fb565b92915050565b600081519050612bd6816140fb565b92915050565b600082601f830112612bf157612bf0613c04565b5b8135612c01848260208601612b5b565b91505092915050565b600081359050612c1981614112565b92915050565b600081519050612c2e81614112565b92915050565b600081359050612c4381614129565b92915050565b600081519050612c5881614129565b92915050565b600060208284031215612c7457612c73613c13565b5b6000612c8284828501612b9d565b91505092915050565b60008060408385031215612ca257612ca1613c13565b5b6000612cb085828601612b9d565b9250506020612cc185828601612bb2565b9150509250929050565b60008060408385031215612ce257612ce1613c13565b5b6000612cf085828601612b9d565b925050602083013567ffffffffffffffff811115612d1157612d10613c0e565b5b612d1d85828601612bdc565b9150509250929050565b600080600060608486031215612d4057612d3f613c13565b5b6000612d4e86828701612b9d565b935050602084013567ffffffffffffffff811115612d6f57612d6e613c0e565b5b612d7b86828701612bdc565b9250506040612d8c86828701612c0a565b9150509250925092565b600060208284031215612dac57612dab613c13565b5b6000612dba84828501612bb2565b91505092915050565b600060208284031215612dd957612dd8613c13565b5b6000612de784828501612bc7565b91505092915050565b60008060408385031215612e0757612e06613c13565b5b600083013567ffffffffffffffff811115612e2557612e24613c0e565b5b612e3185828601612bdc565b9250506020612e4285828601612c0a565b9150509250929050565b600060208284031215612e6257612e61613c13565b5b6000612e7084828501612c1f565b91505092915050565b600060208284031215612e8f57612e8e613c13565b5b6000612e9d84828501612c49565b91505092915050565b600080600080600060a08688031215612ec257612ec1613c13565b5b6000612ed088828901612c34565b9550506020612ee188828901612b9d565b945050604086013567ffffffffffffffff811115612f0257612f01613c0e565b5b612f0e88828901612bdc565b9350506060612f1f88828901612c0a565b9250506080612f3088828901612c34565b9150509295509295909350565b6000612f49838361335f565b60208301905092915050565b612f5e81613991565b82525050565b612f75612f7082613991565b613aa8565b82525050565b612f8481613947565b612f8e818461396a565b9250612f998261393d565b8060005b83811015612fca578151612fb18782612f3d565b9650612fbc8361395d565b925050600181019050612f9d565b505050505050565b612fdb816139a3565b82525050565b612fea816139f9565b82525050565b6000612ffb82613952565b6130058185613975565b9350613015818560208601613a1a565b61301e81613c18565b840191505092915050565b600061303482613952565b61303e8185613986565b935061304e818560208601613a1a565b80840191505092915050565b6000613067601483613975565b915061307282613c43565b602082019050919050565b600061308a602683613975565b915061309582613c6c565b604082019050919050565b60006130ad601b83613975565b91506130b882613cbb565b602082019050919050565b60006130d0603483613975565b91506130db82613ce4565b604082019050919050565b60006130f3601383613975565b91506130fe82613d33565b602082019050919050565b6000613116601d83613975565b915061312182613d5c565b602082019050919050565b6000613139602983613975565b915061314482613d85565b604082019050919050565b600061315c603983613975565b915061316782613dd4565b604082019050919050565b600061317f602b83613975565b915061318a82613e23565b604082019050919050565b60006131a2601083613975565b91506131ad82613e72565b602082019050919050565b60006131c5601c83613975565b91506131d082613e9b565b602082019050919050565b60006131e8601b83613975565b91506131f382613ec4565b602082019050919050565b600061320b603783613975565b915061321682613eed565b604082019050919050565b600061322e602883613975565b915061323982613f3c565b604082019050919050565b6000613251602083613975565b915061325c82613f8b565b602082019050919050565b6000613274601583613975565b915061327f82613fb4565b602082019050919050565b6000613297601b83613975565b91506132a282613fdd565b602082019050919050565b60006132ba601f83613975565b91506132c582614006565b602082019050919050565b60006132dd601c83613975565b91506132e88261402f565b602082019050919050565b6000613300602e83613975565b915061330b82614058565b604082019050919050565b6000613323601b83613975565b915061332e826140a7565b602082019050919050565b613342816139e2565b82525050565b613359613354826139e2565b613acc565b82525050565b613368816139ec565b82525050565b613377816139ec565b82525050565b61338e613389826139ec565b613ad6565b82525050565b60006133a08286613348565b6020820191506133b08285612f64565b6014820191506133c0828461337d565b600182019150819050949350505050565b60006133dd828761337d565b6001820191506133ed8286612f64565b6014820191506133fd8285613029565b91506134098284613348565b60208201915081905095945050505050565b60006020820190506134306000830184612f55565b92915050565b600060608201905061344b6000830186612f55565b6134586020830185612f55565b6134656040830184612fd2565b949350505050565b60006060820190506134826000830186612f55565b81810360208301526134948185612ff0565b90506134a36040830184612fe1565b949350505050565b60006060820190506134c06000830186612f55565b81810360208301526134d28185612ff0565b90506134e16040830184613339565b949350505050565b600060a0820190506134fe6000830188612f55565b81810360208301526135108187612ff0565b905061351f6040830186613339565b61352c6060830185612f55565b6135396080830184613339565b9695505050505050565b60006080820190506135586000830187612f55565b818103602083015261356a8186612ff0565b90506135796040830185613339565b613586606083018461336e565b95945050505050565b60006060820190506135a46000830184612f7b565b92915050565b60006020820190506135bf6000830184612fd2565b92915050565b60006020820190506135da6000830184612fe1565b92915050565b600060208201905081810360008301526135f98161305a565b9050919050565b600060208201905081810360008301526136198161307d565b9050919050565b60006020820190508181036000830152613639816130a0565b9050919050565b60006020820190508181036000830152613659816130c3565b9050919050565b60006020820190508181036000830152613679816130e6565b9050919050565b6000602082019050818103600083015261369981613109565b9050919050565b600060208201905081810360008301526136b98161312c565b9050919050565b600060208201905081810360008301526136d98161314f565b9050919050565b600060208201905081810360008301526136f981613172565b9050919050565b6000602082019050818103600083015261371981613195565b9050919050565b60006020820190508181036000830152613739816131b8565b9050919050565b60006020820190508181036000830152613759816131db565b9050919050565b60006020820190508181036000830152613779816131fe565b9050919050565b6000602082019050818103600083015261379981613221565b9050919050565b600060208201905081810360008301526137b981613244565b9050919050565b600060208201905081810360008301526137d981613267565b9050919050565b600060208201905081810360008301526137f98161328a565b9050919050565b60006020820190508181036000830152613819816132ad565b9050919050565b60006020820190508181036000830152613839816132d0565b9050919050565b60006020820190508181036000830152613859816132f3565b9050919050565b6000602082019050818103600083015261387981613316565b9050919050565b60006020820190506138956000830184613339565b92915050565b60006080820190506138b0600083018761336e565b6138bd6020830186612f55565b81810360408301526138cf8185612ff0565b90506138de6060830184613339565b95945050505050565b60006138f1613902565b90506138fd8282613a4d565b919050565b6000604051905090565b600067ffffffffffffffff82111561392757613926613bd5565b5b61393082613c18565b9050602081019050919050565b6000819050919050565b600060039050919050565b600081519050919050565b6000602082019050919050565b600081905092915050565b600082825260208201905092915050565b600081905092915050565b600061399c826139c2565b9050919050565b60008115159050919050565b60008190506139bd826140d0565b919050565b600073ffffffffffffffffffffffffffffffffffffffff82169050919050565b6000819050919050565b600060ff82169050919050565b6000613a04826139af565b9050919050565b82818337600083830152505050565b60005b83811015613a38578082015181840152602081019050613a1d565b83811115613a47576000848401525b50505050565b613a5682613c18565b810181811067ffffffffffffffff82111715613a7557613a74613bd5565b5b80604052505050565b6000613a89826139ec565b915060ff821415613a9d57613a9c613b19565b5b600182019050919050565b6000613ab382613aba565b9050919050565b6000613ac582613c36565b9050919050565b6000819050919050565b6000613ae182613c29565b9050919050565b6000613af3826139e2565b9150613afe836139e2565b925082613b0e57613b0d613b48565b5b828206905092915050565b7f4e487b7100000000000000000000000000000000000000000000000000000000600052601160045260246000fd5b7f4e487b7100000000000000000000000000000000000000000000000000000000600052601260045260246000fd5b7f4e487b7100000000000000000000000000000000000000000000000000000000600052602160045260246000fd5b7f4e487b7100000000000000000000000000000000000000000000000000000000600052603260045260246000fd5b7f4e487b7100000000000000000000000000000000000000000000000000000000600052604160045260246000fd5b600080fd5b600080fd5b600080fd5b600080fd5b6000601f19601f8301169050919050565b60008160f81b9050919050565b60008160601b9050919050565b7f5061757361626c653a206e6f7420706175736564000000000000000000000000600082015250565b7f4f776e61626c653a206e6577206f776e657220697320746865207a65726f206160008201527f6464726573730000000000000000000000000000000000000000000000000000602082015250565b7f6e6f74207265676973746572656420617320616e206f7261636c650000000000600082015250565b7f436f6e7472616374206e6565647320746f206265206f7065726174696f6e616c60008201527f20746f2073657420697420746f20706175736564000000000000000000000000602082015250565b7f6d7573742070617920656e6f7567682045544800000000000000000000000000600082015250565b7f63616e6e6f74207265676973746572206169726c696e65207477696365000000600082015250565b7f436f6e7472616374206973206e6f74206f7065726174696f6e616c206174207460008201527f6865206d6f6d656e740000000000000000000000000000000000000000000000602082015250565b7f436f6e7472616374206e6565647320746f2062652070617573656420746f207360008201527f6574206974206261636b20746f206f7065726174696f6e616c00000000000000602082015250565b7f6e65656420746f20626520636f6e7472616374206f776e6572206f722066756e60008201527f646564206169726c696e65000000000000000000000000000000000000000000602082015250565b7f5061757361626c653a2070617573656400000000000000000000000000000000600082015250565b7f6e6f207375636820666c69676874206973207265676973746572656400000000600082015250565b7f4e6f74207265676973746572656420617320616e206f7261636c650000000000600082015250565b7f73656e64696e67206f7261636c65277320696e6465786573206e6f74206d617460008201527f6368696e6720696e64657820696e20726573706f6e7365000000000000000000602082015250565b7f7468697320666c6967687427732073746174757320697320616c72656164792060008201527f7665726966696564000000000000000000000000000000000000000000000000602082015250565b7f4f776e61626c653a2063616c6c6572206973206e6f7420746865206f776e6572600082015250565b7f6e65656420746f20626520616e206169726c696e650000000000000000000000600082015250565b7f6e6f207061796f75742062616c616e636520617661696c61626c650000000000600082015250565b7f6d617820696e737572616e636520707572636861736520697320312045544800600082015250565b7f526567697374726174696f6e2066656520697320726571756972656400000000600082015250565b7f74686572652773206e6f206f70656e206f7261636c652072657175657374207760008201527f6974682074686573652061726773000000000000000000000000000000000000602082015250565b7f6e65656420746f20626520612066756e646564206169726c696e650000000000600082015250565b600681106140e1576140e0613b77565b5b50565b6140ed81613991565b81146140f857600080fd5b50565b614104816139a3565b811461410f57600080fd5b50565b61411b816139e2565b811461412657600080fd5b50565b614132816139ec565b811461413d57600080fd5b5056fea26469706673582212205fcb71e5a73f0fda3a2e656e23dd22a194191ab070e5eca6e7878d43d021777164736f6c63430008060033",
  "immutableReferences": {},
  "source": "// SPDX-License-Identifier: UNLICENSED\n\npragma solidity ^0.8.6;\n\nimport \"@openzeppelin/contracts/access/Ownable.sol\";\nimport \"@openzeppelin/contracts/security/Pausable.sol\";\nimport \"@openzeppelin/contracts/utils/math/SafeMath.sol\";\nimport \"./FlightSuretyData.sol\";\n\ncontract FlightSuretyApp is Ownable, Pausable {\n\n    using SafeMath for uint256; // Allow SafeMath functions to be called for all uint256 types (similar to \"prototype\" in Javascript)\n\n    /********************************************************************************************/\n    /*                                       STRUCTS / ENUMS                                    */\n    /********************************************************************************************/\n\n    struct Oracle {\n        bool isRegistered;\n        uint8[3] indexes;\n    }\n\n    // Model for responses from oracles\n    struct ResponseInfo {\n        address requester;                              // Account that requested status\n        bool isOpen;                                    // If open, oracle responses are accepted\n        mapping(uint8 => address[]) responses;          // Mapping key is the status code reported\n        // This lets us group responses and identify\n        // the response that majority of the oracles\n    }\n\n    /********************************************************************************************/\n    /*                                       VARIABLES                                          */\n    /********************************************************************************************/\n\n    // Instance of the data smart contract\n    FlightSuretyData private dataContract;\n\n    // Incremented to add pseudo-randomness at various points\n    uint8 private nonce = 0;\n\n    // Track all registered oracles\n    mapping(address => Oracle) private oracles;\n\n    // Track all oracle responses\n    // Key = hash(index, airline, flight, timestamp)\n    mapping(bytes32 => ResponseInfo) private oracleResponses;\n\n    /********************************************************************************************/\n    /*                                       CONSTANTS                                          */\n    /********************************************************************************************/\n\n    // Fee to be paid when registering oracle\n    uint256 public constant REGISTRATION_FEE = 1 ether;\n\n    // Number of oracles that must respond for valid status\n    uint256 private constant MIN_RESPONSES = 5;\n\n    // Number of airlines that can be registered without voting\n    uint256 private constant NO_NEED_APPROVAL = 4;\n\n    // Minimum ETH to set up funding by an airline\n    uint256 public constant MINIMUM_FUNDING = 10 ether;\n\n    // Flight status codes\n    uint8 private constant STATUS_CODE_UNKNOWN = 0;\n    uint8 private constant STATUS_CODE_ON_TIME = 10;\n    uint8 private constant STATUS_CODE_LATE_AIRLINE = 20;\n    uint8 private constant STATUS_CODE_LATE_WEATHER = 30;\n    uint8 private constant STATUS_CODE_LATE_TECHNICAL = 40;\n    uint8 private constant STATUS_CODE_LATE_OTHER = 50;\n\n    /********************************************************************************************/\n    /*                                       EVENTS                                             */\n    /********************************************************************************************/\n\n    // Event fired each time an oracle submits a response\n    event FlightStatusInfo(address airline, string flight, uint256 timestamp, uint8 status);\n\n    event OracleReport(address airline, string flight, uint256 timestamp, uint8 status);\n\n    // Event fired when flight status request is submitted\n    // Oracles track this and if they have a matching index\n    // they fetch data and submit a response\n    event OracleRequest(uint8 index, address airline, string flight, uint256 timestamp);\n\n    /********************************************************************************************/\n    /*                                       FUNCTION MODIFIERS                                 */\n    /********************************************************************************************/\n\n    // Modifiers help avoid duplication of code. They are typically used to validate something\n    // before a function is allowed to be executed.\n    // All modifiers require an \"_\" which indicates where the function body will be added.\n\n    modifier requireIsOperational() {\n        require(isOperational(), \"Contract is not operational at the moment\");\n        _;\n    }\n\n    modifier requireIsAirline(bool funded) {\n        require(dataContract.isAirline(msg.sender), \"need to be an airline\");\n        if (funded) require(dataContract.isFunded(msg.sender), \"need to be a funded airline\");\n        _;\n    }\n\n    /********************************************************************************************/\n    /*                                       CONSTRUCTOR                                        */\n    /********************************************************************************************/\n\n    /**\n    * @dev Contract constructor\n    *\n    */\n    constructor(address dataContractAdr)\n    {\n        dataContract = FlightSuretyData(dataContractAdr);\n    }\n\n    /********************************************************************************************/\n    /*                                       ADMIN FUNCTIONS                                    */\n    /********************************************************************************************/\n\n    function setOperatingStatus(bool operational)\n        public\n        onlyOwner()\n    {\n        if (operational) {\n            require(paused(), \"Contract needs to be paused to set it back to operational\");\n            _unpause();\n        } else {\n            require(!paused(), \"Contract needs to be operational to set it to paused\");\n            _pause();\n        }\n    }\n\n    function isOperational()\n        public\n        view\n        returns (bool)\n    {\n        return !paused() && !dataContract.paused();\n    }\n\n    function setTestingMode(bool active)\n        public\n        onlyOwner()\n        requireIsOperational()\n    {\n\n    }\n\n    /********************************************************************************************/\n    /*                                       UTILITY FUNCTIONS                                  */\n    /********************************************************************************************/\n\n    function getFlightKey(\n        address airline,\n        string memory flight,\n        uint256 timestamp\n    )\n        pure\n        internal\n        returns (bytes32)\n    {\n        return keccak256(abi.encodePacked(airline, flight, timestamp));\n    }\n\n    // Returns array of three non-duplicating integers from 0-9\n    function generateIndexes(address account)\n        internal\n        returns (uint8[3] memory)\n    {\n        uint8[3] memory indexes;\n\n        indexes[0] = getRandomIndex(account);\n\n        do {\n            indexes[1] = getRandomIndex(account);\n        } while (indexes[1] == indexes[0]);\n\n        do {\n            indexes[2] = getRandomIndex(account);\n        } while ((indexes[2] == indexes[0]) || (indexes[2] == indexes[1]));\n\n        return indexes;\n    }\n\n    // Returns integers from 0-9\n    function getRandomIndex(address account)\n        internal\n        returns (uint8)\n    {\n        uint8 maxValue = 10;\n        // Pseudo random number...the incrementing nonce adds variation\n        uint8 random = uint8(uint256(keccak256(abi.encodePacked(block.timestamp, account, ++nonce))) % maxValue);\n        if (nonce > 250) nonce = 0;\n        return random;\n    }\n\n    /********************************************************************************************/\n    /*                                     SMART CONTRACT FUNCTIONS                             */\n    /********************************************************************************************/\n\n    // region AIRLINES\n\n    /**\n     * @dev Add an airline to the registration queue\n     *\n     */\n    function registerAirline(address airline, string memory name)\n        external\n        requireIsOperational()\n        returns (FlightSuretyData.State)\n    {\n        require(msg.sender == owner() || dataContract.isFunded(msg.sender), \"need to be contract owner or funded airline\");\n        require(!dataContract.isAirline(airline), \"cannot register airline twice\");\n        bool needsApproval = dataContract.approvedAirlinesCount() >= NO_NEED_APPROVAL;\n        FlightSuretyData.State state = needsApproval ? FlightSuretyData.State.Queued : FlightSuretyData.State.Approved;\n        dataContract.registerAirline(airline, name, state);\n        return state;\n    }\n\n    /**\n     * @dev Initial funding for the insurance. Unless there are too many delayed flights\n     *      resulting in insurance payouts, the contract should be self-sustaining\n     *\n     */\n    function fundAirline()\n        public\n        payable\n        requireIsOperational()\n        requireIsAirline(false)\n    {\n        require(msg.value >= MINIMUM_FUNDING, \"must pay enough ETH\");\n        dataContract.fundAirline(msg.sender);\n    }\n\n    function voteForAirline(address airline, bool approve)\n        public\n        requireIsOperational()\n        requireIsAirline(true)\n    {\n        dataContract.voteForAirline(msg.sender, airline, approve);\n    }\n\n    // endregion\n\n    // region FLIGHTS\n\n    /**\n     * @dev Register a future flight for insuring\n     *\n     */\n    function registerFlight(string memory flight, uint256 timestamp)\n        public\n        requireIsOperational()\n        requireIsAirline(true)\n    {\n        dataContract.registerFlight(msg.sender, flight, timestamp);\n    }\n\n    /**\n     * @dev Called after oracle has updated flight status\n     *\n     */\n    function processFlightStatus\n    (\n        address airline,\n        string memory flight,\n        uint256 timestamp,\n        uint8 statusCode\n    )\n        internal\n        requireIsOperational()\n    {\n        // receiving a STATUS_CODE_UNKNOWN here or the flight's status was changed already, we do nothing\n        if (statusCode == STATUS_CODE_UNKNOWN || dataContract.getFlightStatus(airline, flight, timestamp) != STATUS_CODE_UNKNOWN) return;\n\n        dataContract.updateFlight(airline, flight, timestamp, statusCode);\n\n        if (statusCode == STATUS_CODE_LATE_AIRLINE) {\n            // Insurees will be credited if the delay was caused by the airline...\n            dataContract.creditInsurees(airline, flight, timestamp);\n        } else {\n            // Other causes of the delay will invalidate the policies, no payouts!\n            dataContract.invalidatePolicies(airline, flight, timestamp);\n        }\n    }\n\n    // Generate a request for oracles to fetch flight information\n    function fetchFlightStatus\n    (\n        address airline,\n        string memory flight,\n        uint256 timestamp\n    )\n    external\n    {\n        require(dataContract.isRegisteredFlight(airline, flight, timestamp), \"no such flight is registered\");\n        require(dataContract.getFlightStatus(airline, flight, timestamp) == STATUS_CODE_UNKNOWN, \"this flight's status is already verified\");\n\n        uint8 index = getRandomIndex(msg.sender);\n\n        // Generate a unique key for storing the request\n        bytes32 key = keccak256(abi.encodePacked(index, airline, flight, timestamp));\n\n        ResponseInfo storage responseInfo = oracleResponses[key];\n        responseInfo.requester = msg.sender;\n        responseInfo.isOpen = true;\n\n        emit OracleRequest(index, airline, flight, timestamp);\n    }\n\n    // endregion\n\n    // region INSURANCE\n\n    /**\n     * @dev Buy insurance for a flight\n     *\n     */\n    function buyInsurance(address airline, string memory flight, uint256 timestamp)\n        external\n        payable\n        requireIsOperational()\n    {\n        require(dataContract.isRegisteredFlight(airline, flight, timestamp), \"no such flight is registered\");\n        require(dataContract.getFlightStatus(airline, flight, timestamp) == STATUS_CODE_UNKNOWN, \"this flight's status is already verified\");\n        require(msg.value <= 1 ether, \"max insurance purchase is 1 ETH\");\n        dataContract.registerInsurance(airline, flight, timestamp, msg.sender, msg.value);\n    }\n\n    /**\n     *  @dev Transfers eligible payout funds to insuree\n     *\n    */\n    function getPayout()\n        external\n        requireIsOperational()\n    {\n        require(dataContract.getAvailableBalance(msg.sender) > 0, \"no payout balance available\");\n        uint256 payoutAmount = dataContract.getAvailableBalance(msg.sender);\n        dataContract.registerPayout(msg.sender);\n        payable(msg.sender).transfer(payoutAmount);\n    }\n\n    // endregion\n\n    // region ORACLE MANAGEMENT\n\n    // Register an oracle with the contract\n    function registerOracle()\n        external\n        payable\n    {\n        // Require registration fee\n        require(msg.value >= REGISTRATION_FEE, \"Registration fee is required\");\n\n        uint8[3] memory indexes = generateIndexes(msg.sender);\n\n        oracles[msg.sender] = Oracle({\n            isRegistered: true,\n            indexes: indexes\n        });\n    }\n\n    // Get an oracle's three randomly generated indexes\n    function getMyIndexes()\n        view\n        external\n        returns (uint8[3] memory)\n    {\n        require(oracles[msg.sender].isRegistered, \"Not registered as an oracle\");\n        return oracles[msg.sender].indexes;\n    }\n\n    // Called by oracle when a response is available to an outstanding request.\n    // For the response to be accepted, there must be a pending request that is open\n    // and matches one of the three indexes randomly assigned to the oracle at the\n    // time of registration (i.e. uninvited oracles are not welcome).\n    function submitOracleResponse\n    (\n        uint8 index,\n        address airline,\n        string memory flight,\n        uint256 timestamp,\n        uint8 statusCode\n    )\n    external\n    {\n        require(oracles[msg.sender].isRegistered, \"not registered as an oracle\");\n        require((oracles[msg.sender].indexes[0] == index) || (oracles[msg.sender].indexes[1] == index) || (oracles[msg.sender].indexes[2] == index), \"sending oracle's indexes not matching index in response\");\n\n        bytes32 key = keccak256(abi.encodePacked(index, airline, flight, timestamp));\n        require(oracleResponses[key].isOpen, \"there's no open oracle request with these args\");\n\n        oracleResponses[key].responses[statusCode].push(msg.sender);\n        emit OracleReport(airline, flight, timestamp, statusCode);\n\n        // Information isn't considered verified until at least MIN_RESPONSES\n        // oracles respond with the *** same *** information\n        if (oracleResponses[key].responses[statusCode].length >= MIN_RESPONSES) {\n            // To whom it may concern\n            emit FlightStatusInfo(airline, flight, timestamp, statusCode);\n            // Handle flight status as appropriate\n            processFlightStatus(airline, flight, timestamp, statusCode);\n        }\n    }\n\n    // endregion\n\n    /********************************************************************************************/\n    /*                                       FALLBACK FUNCTIONS                                 */\n    /********************************************************************************************/\n\n    //    fallback()\n    //        external\n    //        payable\n    //    {\n    //        fund();\n    //    }\n    //\n    //    receive()\n    //        external\n    //        payable\n    //    {\n    //        fund();\n    //    }\n}   \n",
  "sourcePath": "/home/julian/Development/blockchain/14-FlightSurety/contracts/FlightSuretyApp.sol",
  "compiler": {
    "name": "solc",
    "version": "0.8.6+commit.11564f7e.Emscripten.clang"
  },
  "schemaVersion": "3.4.1",
  "updatedAt": "2021-07-16T11:58:32.345Z",
  "networkType": "ethereum",
  "devdoc": {
    "kind": "dev",
    "methods": {
      "buyInsurance(address,string,uint256)": {
        "details": "Buy insurance for a flight"
      },
      "constructor": {
        "details": "Contract constructor"
      },
      "fundAirline()": {
        "details": "Initial funding for the insurance. Unless there are too many delayed flights      resulting in insurance payouts, the contract should be self-sustaining"
      },
      "getPayout()": {
        "details": "Transfers eligible payout funds to insuree"
      },
      "owner()": {
        "details": "Returns the address of the current owner."
      },
      "paused()": {
        "details": "Returns true if the contract is paused, and false otherwise."
      },
      "registerAirline(address,string)": {
        "details": "Add an airline to the registration queue"
      },
      "registerFlight(string,uint256)": {
        "details": "Register a future flight for insuring"
      },
      "renounceOwnership()": {
        "details": "Leaves the contract without owner. It will not be possible to call `onlyOwner` functions anymore. Can only be called by the current owner. NOTE: Renouncing ownership will leave the contract without an owner, thereby removing any functionality that is only available to the owner."
      },
      "transferOwnership(address)": {
        "details": "Transfers ownership of the contract to a new account (`newOwner`). Can only be called by the current owner."
      }
    },
    "version": 1
  },
  "userdoc": {
    "kind": "user",
    "methods": {},
    "version": 1
  }
}