{
  "contractName": "FlightSuretyApp",
  "abi": [
    {
      "inputs": [
        {
          "internalType": "address",
          "name": "dataContractAdr",
          "type": "address"
        }
      ],
      "stateMutability": "nonpayable",
      "type": "constructor"
    },
    {
      "anonymous": false,
      "inputs": [
        {
          "indexed": false,
          "internalType": "address",
          "name": "airline",
          "type": "address"
        },
        {
          "indexed": false,
          "internalType": "string",
          "name": "flight",
          "type": "string"
        },
        {
          "indexed": false,
          "internalType": "uint256",
          "name": "timestamp",
          "type": "uint256"
        },
        {
          "indexed": false,
          "internalType": "uint8",
          "name": "status",
          "type": "uint8"
        }
      ],
      "name": "FlightStatusInfo",
      "type": "event"
    },
    {
      "anonymous": false,
      "inputs": [
        {
          "indexed": false,
          "internalType": "address",
          "name": "airline",
          "type": "address"
        },
        {
          "indexed": false,
          "internalType": "string",
          "name": "flight",
          "type": "string"
        },
        {
          "indexed": false,
          "internalType": "uint256",
          "name": "timestamp",
          "type": "uint256"
        },
        {
          "indexed": false,
          "internalType": "uint8",
          "name": "status",
          "type": "uint8"
        }
      ],
      "name": "OracleReport",
      "type": "event"
    },
    {
      "anonymous": false,
      "inputs": [
        {
          "indexed": false,
          "internalType": "uint8",
          "name": "index",
          "type": "uint8"
        },
        {
          "indexed": false,
          "internalType": "address",
          "name": "airline",
          "type": "address"
        },
        {
          "indexed": false,
          "internalType": "string",
          "name": "flight",
          "type": "string"
        },
        {
          "indexed": false,
          "internalType": "uint256",
          "name": "timestamp",
          "type": "uint256"
        }
      ],
      "name": "OracleRequest",
      "type": "event"
    },
    {
      "anonymous": false,
      "inputs": [
        {
          "indexed": true,
          "internalType": "address",
          "name": "previousOwner",
          "type": "address"
        },
        {
          "indexed": true,
          "internalType": "address",
          "name": "newOwner",
          "type": "address"
        }
      ],
      "name": "OwnershipTransferred",
      "type": "event"
    },
    {
      "anonymous": false,
      "inputs": [
        {
          "indexed": false,
          "internalType": "address",
          "name": "account",
          "type": "address"
        }
      ],
      "name": "Paused",
      "type": "event"
    },
    {
      "anonymous": false,
      "inputs": [
        {
          "indexed": false,
          "internalType": "address",
          "name": "account",
          "type": "address"
        }
      ],
      "name": "Unpaused",
      "type": "event"
    },
    {
      "inputs": [],
      "name": "MINIMUM_FUNDING",
      "outputs": [
        {
          "internalType": "uint256",
          "name": "",
          "type": "uint256"
        }
      ],
      "stateMutability": "view",
      "type": "function",
      "constant": true
    },
    {
      "inputs": [],
      "name": "REGISTRATION_FEE",
      "outputs": [
        {
          "internalType": "uint256",
          "name": "",
          "type": "uint256"
        }
      ],
      "stateMutability": "view",
      "type": "function",
      "constant": true
    },
    {
      "inputs": [],
      "name": "owner",
      "outputs": [
        {
          "internalType": "address",
          "name": "",
          "type": "address"
        }
      ],
      "stateMutability": "view",
      "type": "function",
      "constant": true
    },
    {
      "inputs": [],
      "name": "paused",
      "outputs": [
        {
          "internalType": "bool",
          "name": "",
          "type": "bool"
        }
      ],
      "stateMutability": "view",
      "type": "function",
      "constant": true
    },
    {
      "inputs": [],
      "name": "renounceOwnership",
      "outputs": [],
      "stateMutability": "nonpayable",
      "type": "function"
    },
    {
      "inputs": [
        {
          "internalType": "address",
          "name": "newOwner",
          "type": "address"
        }
      ],
      "name": "transferOwnership",
      "outputs": [],
      "stateMutability": "nonpayable",
      "type": "function"
    },
    {
      "inputs": [
        {
          "internalType": "bool",
          "name": "operational",
          "type": "bool"
        }
      ],
      "name": "setOperatingStatus",
      "outputs": [],
      "stateMutability": "nonpayable",
      "type": "function"
    },
    {
      "inputs": [],
      "name": "isOperational",
      "outputs": [
        {
          "internalType": "bool",
          "name": "",
          "type": "bool"
        }
      ],
      "stateMutability": "view",
      "type": "function",
      "constant": true
    },
    {
      "inputs": [
        {
          "internalType": "bool",
          "name": "active",
          "type": "bool"
        }
      ],
      "name": "setTestingMode",
      "outputs": [],
      "stateMutability": "nonpayable",
      "type": "function"
    },
    {
      "inputs": [
        {
          "internalType": "address",
          "name": "airline",
          "type": "address"
        },
        {
          "internalType": "string",
          "name": "name",
          "type": "string"
        }
      ],
      "name": "registerAirline",
      "outputs": [
        {
          "internalType": "enum FlightSuretyData.State",
          "name": "",
          "type": "uint8"
        }
      ],
      "stateMutability": "nonpayable",
      "type": "function"
    },
    {
      "inputs": [],
      "name": "fundAirline",
      "outputs": [],
      "stateMutability": "payable",
      "type": "function",
      "payable": true
    },
    {
      "inputs": [
        {
          "internalType": "address",
          "name": "airline",
          "type": "address"
        },
        {
          "internalType": "bool",
          "name": "approve",
          "type": "bool"
        }
      ],
      "name": "voteForAirline",
      "outputs": [],
      "stateMutability": "nonpayable",
      "type": "function"
    },
    {
      "inputs": [
        {
          "internalType": "string",
          "name": "flight",
          "type": "string"
        },
        {
          "internalType": "uint256",
          "name": "timestamp",
          "type": "uint256"
        }
      ],
      "name": "registerFlight",
      "outputs": [],
      "stateMutability": "nonpayable",
      "type": "function"
    },
    {
      "inputs": [
        {
          "internalType": "address",
          "name": "airline",
          "type": "address"
        },
        {
          "internalType": "string",
          "name": "flight",
          "type": "string"
        },
        {
          "internalType": "uint256",
          "name": "timestamp",
          "type": "uint256"
        }
      ],
      "name": "fetchFlightStatus",
      "outputs": [],
      "stateMutability": "nonpayable",
      "type": "function"
    },
    {
      "inputs": [
        {
          "internalType": "address",
          "name": "airline",
          "type": "address"
        },
        {
          "internalType": "string",
          "name": "flight",
          "type": "string"
        },
        {
          "internalType": "uint256",
          "name": "timestamp",
          "type": "uint256"
        }
      ],
      "name": "buyInsurance",
      "outputs": [],
      "stateMutability": "payable",
      "type": "function",
      "payable": true
    },
    {
      "inputs": [],
      "name": "getPayout",
      "outputs": [],
      "stateMutability": "nonpayable",
      "type": "function"
    },
    {
      "inputs": [],
      "name": "registerOracle",
      "outputs": [],
      "stateMutability": "payable",
      "type": "function",
      "payable": true
    },
    {
      "inputs": [],
      "name": "getMyIndexes",
      "outputs": [
        {
          "internalType": "uint8[3]",
          "name": "",
          "type": "uint8[3]"
        }
      ],
      "stateMutability": "view",
      "type": "function",
      "constant": true
    },
    {
      "inputs": [
        {
          "internalType": "uint8",
          "name": "index",
          "type": "uint8"
        },
        {
          "internalType": "address",
          "name": "airline",
          "type": "address"
        },
        {
          "internalType": "string",
          "name": "flight",
          "type": "string"
        },
        {
          "internalType": "uint256",
          "name": "timestamp",
          "type": "uint256"
        },
        {
          "internalType": "uint8",
          "name": "statusCode",
          "type": "uint8"
        }
      ],
      "name": "submitOracleResponse",
      "outputs": [],
      "stateMutability": "nonpayable",
      "type": "function"
    }
  ],
  "bytecode": "0x60806040526000600160146101000a81548160ff021916908360ff1602179055503480156200002d57600080fd5b5060405162004211380380620042118339818101604052810190620000539190620001b8565b6200007362000067620000d560201b60201c565b620000dd60201b60201c565b60008060146101000a81548160ff02191690831515021790555080600160006101000a81548173ffffffffffffffffffffffffffffffffffffffff021916908373ffffffffffffffffffffffffffffffffffffffff160217905550506200023d565b600033905090565b60008060009054906101000a900473ffffffffffffffffffffffffffffffffffffffff169050816000806101000a81548173ffffffffffffffffffffffffffffffffffffffff021916908373ffffffffffffffffffffffffffffffffffffffff1602179055508173ffffffffffffffffffffffffffffffffffffffff168173ffffffffffffffffffffffffffffffffffffffff167f8be0079c531659141344cd1fd0a4f28419497f9722a3daafe3b4186f6b6457e060405160405180910390a35050565b600081519050620001b28162000223565b92915050565b600060208284031215620001d157620001d06200021e565b5b6000620001e184828501620001a1565b91505092915050565b6000620001f782620001fe565b9050919050565b600073ffffffffffffffffffffffffffffffffffffffff82169050919050565b600080fd5b6200022e81620001ea565b81146200023a57600080fd5b50565b613fc4806200024d6000396000f3fe6080604052600436106101145760003560e01c8063715018a6116100a0578063c611370211610064578063c6113702146102f2578063cd905dff1461031b578063ee38a74914610346578063f2fde38b14610383578063f83f11c0146103ac57610114565b8063715018a6146102665780637d065c931461027d5780638da5cb5b146102945780639ed18927146102bf578063c10f2700146102c957610114565b8063596d7a68116100e7578063596d7a68146101915780635c975abb146101ba5780635f1cc0e6146101e557806364b4f7511461021057806368e7a2611461023b57610114565b8063110466ed146101195780632f6721d014610142578063339d25901461015e57806339cfc99514610168575b600080fd5b34801561012557600080fd5b50610140600480360381019061013b9190612cbc565b6103d5565b005b61015c60048036038101906101579190612c4d565b6104ff565b005b6101666107c5565b005b34801561017457600080fd5b5061018f600480360381019061018a9190612d16565b6108b2565b005b34801561019d57600080fd5b506101b860048036038101906101b39190612cbc565b610b6b565b005b3480156101c657600080fd5b506101cf610c31565b6040516101dc919061348a565b60405180910390f35b3480156101f157600080fd5b506101fa610c47565b604051610207919061346f565b60405180910390f35b34801561021c57600080fd5b50610225610d87565b6040516102329190613720565b60405180910390f35b34801561024757600080fd5b50610250610d93565b60405161025d9190613720565b60405180910390f35b34801561027257600080fd5b5061027b610d9f565b005b34801561028957600080fd5b50610292610e27565b005b3480156102a057600080fd5b506102a96110e1565b6040516102b691906132fb565b60405180910390f35b6102c761110a565b005b3480156102d557600080fd5b506102f060048036038101906102eb9190612dcc565b611409565b005b3480156102fe57600080fd5b5061031960048036038101906103149190612bb1565b611798565b005b34801561032757600080fd5b50610330611a51565b60405161033d919061348a565b60405180910390f35b34801561035257600080fd5b5061036d60048036038101906103689190612bf1565b611b0a565b60405161037a91906134a5565b60405180910390f35b34801561038f57600080fd5b506103aa60048036038101906103a59190612b84565b611ebc565b005b3480156103b857600080fd5b506103d360048036038101906103ce9190612c4d565b611fb4565b005b6103dd612293565b73ffffffffffffffffffffffffffffffffffffffff166103fb6110e1565b73ffffffffffffffffffffffffffffffffffffffff1614610451576040517f08c379a000000000000000000000000000000000000000000000000000000000815260040161044890613660565b60405180910390fd5b80156104ab5761045f610c31565b61049e576040517f08c379a0000000000000000000000000000000000000000000000000000000008152600401610495906135a0565b60405180910390fd5b6104a661229b565b6104fc565b6104b3610c31565b156104f3576040517f08c379a00000000000000000000000000000000000000000000000000000000081526004016104ea90613520565b60405180910390fd5b6104fb61233c565b5b50565b610507611a51565b610546576040517f08c379a000000000000000000000000000000000000000000000000000000000815260040161053d90613580565b60405180910390fd5b600160009054906101000a900473ffffffffffffffffffffffffffffffffffffffff1673ffffffffffffffffffffffffffffffffffffffff1663eeecdd7b8484846040518463ffffffff1660e01b81526004016105a59392919061338b565b60206040518083038186803b1580156105bd57600080fd5b505afa1580156105d1573d6000803e3d6000fd5b505050506040513d601f19601f820116820180604052508101906105f59190612ce9565b610634576040517f08c379a000000000000000000000000000000000000000000000000000000000815260040161062b90613600565b60405180910390fd5b600060ff16600160009054906101000a900473ffffffffffffffffffffffffffffffffffffffff1673ffffffffffffffffffffffffffffffffffffffff16639de5f9578585856040518463ffffffff1660e01b81526004016106989392919061338b565b60206040518083038186803b1580156106b057600080fd5b505afa1580156106c4573d6000803e3d6000fd5b505050506040513d601f19601f820116820180604052508101906106e89190612d9f565b60ff161461072b576040517f08c379a000000000000000000000000000000000000000000000000000000000815260040161072290613640565b60405180910390fd5b600160009054906101000a900473ffffffffffffffffffffffffffffffffffffffff1673ffffffffffffffffffffffffffffffffffffffff1663a305e6b984848433346040518663ffffffff1660e01b815260040161078e9594939291906133c9565b600060405180830381600087803b1580156107a857600080fd5b505af11580156107bc573d6000803e3d6000fd5b50505050505050565b670de0b6b3a7640000341015610810576040517f08c379a0000000000000000000000000000000000000000000000000000000008152600401610807906136c0565b60405180910390fd5b600061081b336123df565b9050604051806040016040528060011515815260200182815250600260003373ffffffffffffffffffffffffffffffffffffffff1673ffffffffffffffffffffffffffffffffffffffff16815260200190815260200160002060008201518160000160006101000a81548160ff0219169083151502179055506020820151816001019060036108ab9291906129a8565b5090505050565b6108ba611a51565b6108f9576040517f08c379a00000000000000000000000000000000000000000000000000000000081526004016108f090613580565b60405180910390fd5b60018060009054906101000a900473ffffffffffffffffffffffffffffffffffffffff1673ffffffffffffffffffffffffffffffffffffffff16630e248a11336040518263ffffffff1660e01b815260040161095591906132fb565b60206040518083038186803b15801561096d57600080fd5b505afa158015610981573d6000803e3d6000fd5b505050506040513d601f19601f820116820180604052508101906109a59190612ce9565b6109e4576040517f08c379a00000000000000000000000000000000000000000000000000000000081526004016109db90613680565b60405180910390fd5b8015610ad557600160009054906101000a900473ffffffffffffffffffffffffffffffffffffffff1673ffffffffffffffffffffffffffffffffffffffff16635689b249336040518263ffffffff1660e01b8152600401610a4591906132fb565b60206040518083038186803b158015610a5d57600080fd5b505afa158015610a71573d6000803e3d6000fd5b505050506040513d601f19601f82011682018060405250810190610a959190612ce9565b610ad4576040517f08c379a0000000000000000000000000000000000000000000000000000000008152600401610acb90613700565b60405180910390fd5b5b600160009054906101000a900473ffffffffffffffffffffffffffffffffffffffff1673ffffffffffffffffffffffffffffffffffffffff16633cc0be9c3385856040518463ffffffff1660e01b8152600401610b349392919061338b565b600060405180830381600087803b158015610b4e57600080fd5b505af1158015610b62573d6000803e3d6000fd5b50505050505050565b610b73612293565b73ffffffffffffffffffffffffffffffffffffffff16610b916110e1565b73ffffffffffffffffffffffffffffffffffffffff1614610be7576040517f08c379a0000000000000000000000000000000000000000000000000000000008152600401610bde90613660565b60405180910390fd5b610bef611a51565b610c2e576040517f08c379a0000000000000000000000000000000000000000000000000000000008152600401610c2590613580565b60405180910390fd5b50565b60008060149054906101000a900460ff16905090565b610c4f612a42565b600260003373ffffffffffffffffffffffffffffffffffffffff1673ffffffffffffffffffffffffffffffffffffffff16815260200190815260200160002060000160009054906101000a900460ff16610cde576040517f08c379a0000000000000000000000000000000000000000000000000000000008152600401610cd590613620565b60405180910390fd5b600260003373ffffffffffffffffffffffffffffffffffffffff1673ffffffffffffffffffffffffffffffffffffffff168152602001908152602001600020600101600380602002604051908101604052809291908260038015610d7d576020028201916000905b82829054906101000a900460ff1660ff1681526020019060010190602082600001049283019260010382029150808411610d465790505b5050505050905090565b670de0b6b3a764000081565b678ac7230489e8000081565b610da7612293565b73ffffffffffffffffffffffffffffffffffffffff16610dc56110e1565b73ffffffffffffffffffffffffffffffffffffffff1614610e1b576040517f08c379a0000000000000000000000000000000000000000000000000000000008152600401610e1290613660565b60405180910390fd5b610e25600061253e565b565b610e2f611a51565b610e6e576040517f08c379a0000000000000000000000000000000000000000000000000000000008152600401610e6590613580565b60405180910390fd5b6000600160009054906101000a900473ffffffffffffffffffffffffffffffffffffffff1673ffffffffffffffffffffffffffffffffffffffff16636c24a76f336040518263ffffffff1660e01b8152600401610ecb91906132fb565b60206040518083038186803b158015610ee357600080fd5b505afa158015610ef7573d6000803e3d6000fd5b505050506040513d601f19601f82011682018060405250810190610f1b9190612d72565b11610f5b576040517f08c379a0000000000000000000000000000000000000000000000000000000008152600401610f52906136a0565b60405180910390fd5b6000600160009054906101000a900473ffffffffffffffffffffffffffffffffffffffff1673ffffffffffffffffffffffffffffffffffffffff16636c24a76f336040518263ffffffff1660e01b8152600401610fb891906132fb565b60206040518083038186803b158015610fd057600080fd5b505afa158015610fe4573d6000803e3d6000fd5b505050506040513d601f19601f820116820180604052508101906110089190612d72565b9050600160009054906101000a900473ffffffffffffffffffffffffffffffffffffffff1673ffffffffffffffffffffffffffffffffffffffff166333dd217f336040518263ffffffff1660e01b815260040161106591906132fb565b600060405180830381600087803b15801561107f57600080fd5b505af1158015611093573d6000803e3d6000fd5b505050503373ffffffffffffffffffffffffffffffffffffffff166108fc829081150290604051600060405180830381858888f193505050501580156110dd573d6000803e3d6000fd5b5050565b60008060009054906101000a900473ffffffffffffffffffffffffffffffffffffffff16905090565b611112611a51565b611151576040517f08c379a000000000000000000000000000000000000000000000000000000000815260040161114890613580565b60405180910390fd5b6000600160009054906101000a900473ffffffffffffffffffffffffffffffffffffffff1673ffffffffffffffffffffffffffffffffffffffff16630e248a11336040518263ffffffff1660e01b81526004016111ae91906132fb565b60206040518083038186803b1580156111c657600080fd5b505afa1580156111da573d6000803e3d6000fd5b505050506040513d601f19601f820116820180604052508101906111fe9190612ce9565b61123d576040517f08c379a000000000000000000000000000000000000000000000000000000000815260040161123490613680565b60405180910390fd5b801561132e57600160009054906101000a900473ffffffffffffffffffffffffffffffffffffffff1673ffffffffffffffffffffffffffffffffffffffff16635689b249336040518263ffffffff1660e01b815260040161129e91906132fb565b60206040518083038186803b1580156112b657600080fd5b505afa1580156112ca573d6000803e3d6000fd5b505050506040513d601f19601f820116820180604052508101906112ee9190612ce9565b61132d576040517f08c379a000000000000000000000000000000000000000000000000000000000815260040161132490613700565b60405180910390fd5b5b678ac7230489e80000341015611379576040517f08c379a000000000000000000000000000000000000000000000000000000000815260040161137090613540565b60405180910390fd5b600160009054906101000a900473ffffffffffffffffffffffffffffffffffffffff1673ffffffffffffffffffffffffffffffffffffffff16636fbb8798336040518263ffffffff1660e01b81526004016113d491906132fb565b600060405180830381600087803b1580156113ee57600080fd5b505af1158015611402573d6000803e3d6000fd5b5050505050565b8460ff16600260003373ffffffffffffffffffffffffffffffffffffffff1673ffffffffffffffffffffffffffffffffffffffff16815260200190815260200160002060010160006003811061146257611461613a46565b5b602091828204019190069054906101000a900460ff1660ff1614806114f657508460ff16600260003373ffffffffffffffffffffffffffffffffffffffff1673ffffffffffffffffffffffffffffffffffffffff1681526020019081526020016000206001016001600381106114db576114da613a46565b5b602091828204019190069054906101000a900460ff1660ff16145b8061157057508460ff16600260003373ffffffffffffffffffffffffffffffffffffffff1673ffffffffffffffffffffffffffffffffffffffff16815260200190815260200160002060010160026003811061155557611554613a46565b5b602091828204019190069054906101000a900460ff1660ff16145b6115af576040517f08c379a00000000000000000000000000000000000000000000000000000000081526004016115a6906136e0565b60405180910390fd5b6000858585856040516020016115c894939291906132b1565b6040516020818303038152906040528051906020012090506003600082815260200190815260200160002060000160149054906101000a900460ff16611643576040517f08c379a000000000000000000000000000000000000000000000000000000000815260040161163a906134c0565b60405180910390fd5b6003600082815260200190815260200160002060010160008360ff1660ff168152602001908152602001600020339080600181540180825580915050600190039060005260206000200160009091909190916101000a81548173ffffffffffffffffffffffffffffffffffffffff021916908373ffffffffffffffffffffffffffffffffffffffff1602179055507f43c853095c2752648493c88b4baac4d580d2594ffb00c6f1d4242d844514f783858585856040516117069493929190613423565b60405180910390a160056003600083815260200190815260200160002060010160008460ff1660ff1681526020019081526020016000208054905010611790577fe23f5229de535c091e3b7bec2665f5d698192d3b31393066e8987b7a05076b6c8585858560405161177b9493929190613423565b60405180910390a161178f85858585612602565b5b505050505050565b6117a0611a51565b6117df576040517f08c379a00000000000000000000000000000000000000000000000000000000081526004016117d690613580565b60405180910390fd5b60018060009054906101000a900473ffffffffffffffffffffffffffffffffffffffff1673ffffffffffffffffffffffffffffffffffffffff16630e248a11336040518263ffffffff1660e01b815260040161183b91906132fb565b60206040518083038186803b15801561185357600080fd5b505afa158015611867573d6000803e3d6000fd5b505050506040513d601f19601f8201168201806040525081019061188b9190612ce9565b6118ca576040517f08c379a00000000000000000000000000000000000000000000000000000000081526004016118c190613680565b60405180910390fd5b80156119bb57600160009054906101000a900473ffffffffffffffffffffffffffffffffffffffff1673ffffffffffffffffffffffffffffffffffffffff16635689b249336040518263ffffffff1660e01b815260040161192b91906132fb565b60206040518083038186803b15801561194357600080fd5b505afa158015611957573d6000803e3d6000fd5b505050506040513d601f19601f8201168201806040525081019061197b9190612ce9565b6119ba576040517f08c379a00000000000000000000000000000000000000000000000000000000081526004016119b190613700565b60405180910390fd5b5b600160009054906101000a900473ffffffffffffffffffffffffffffffffffffffff1673ffffffffffffffffffffffffffffffffffffffff1663a7a502f53385856040518463ffffffff1660e01b8152600401611a1a93929190613316565b600060405180830381600087803b158015611a3457600080fd5b505af1158015611a48573d6000803e3d6000fd5b50505050505050565b6000611a5b610c31565b158015611b055750600160009054906101000a900473ffffffffffffffffffffffffffffffffffffffff1673ffffffffffffffffffffffffffffffffffffffff16635c975abb6040518163ffffffff1660e01b815260040160206040518083038186803b158015611acb57600080fd5b505afa158015611adf573d6000803e3d6000fd5b505050506040513d601f19601f82011682018060405250810190611b039190612ce9565b155b905090565b6000611b14611a51565b611b53576040517f08c379a0000000000000000000000000000000000000000000000000000000008152600401611b4a90613580565b60405180910390fd5b611b5b6110e1565b73ffffffffffffffffffffffffffffffffffffffff163373ffffffffffffffffffffffffffffffffffffffff161480611c3b5750600160009054906101000a900473ffffffffffffffffffffffffffffffffffffffff1673ffffffffffffffffffffffffffffffffffffffff16635689b249336040518263ffffffff1660e01b8152600401611bea91906132fb565b60206040518083038186803b158015611c0257600080fd5b505afa158015611c16573d6000803e3d6000fd5b505050506040513d601f19601f82011682018060405250810190611c3a9190612ce9565b5b611c7a576040517f08c379a0000000000000000000000000000000000000000000000000000000008152600401611c71906135c0565b60405180910390fd5b600160009054906101000a900473ffffffffffffffffffffffffffffffffffffffff1673ffffffffffffffffffffffffffffffffffffffff16630e248a11846040518263ffffffff1660e01b8152600401611cd591906132fb565b60206040518083038186803b158015611ced57600080fd5b505afa158015611d01573d6000803e3d6000fd5b505050506040513d601f19601f82011682018060405250810190611d259190612ce9565b15611d65576040517f08c379a0000000000000000000000000000000000000000000000000000000008152600401611d5c90613560565b60405180910390fd5b60006004600160009054906101000a900473ffffffffffffffffffffffffffffffffffffffff1673ffffffffffffffffffffffffffffffffffffffff1663525f38be6040518163ffffffff1660e01b815260040160206040518083038186803b158015611dd157600080fd5b505afa158015611de5573d6000803e3d6000fd5b505050506040513d601f19601f82011682018060405250810190611e099190612d72565b10159050600081611e1b576004611e1e565b60035b9050600160009054906101000a900473ffffffffffffffffffffffffffffffffffffffff1673ffffffffffffffffffffffffffffffffffffffff166308314f998686846040518463ffffffff1660e01b8152600401611e7f9392919061334d565b600060405180830381600087803b158015611e9957600080fd5b505af1158015611ead573d6000803e3d6000fd5b50505050809250505092915050565b611ec4612293565b73ffffffffffffffffffffffffffffffffffffffff16611ee26110e1565b73ffffffffffffffffffffffffffffffffffffffff1614611f38576040517f08c379a0000000000000000000000000000000000000000000000000000000008152600401611f2f90613660565b60405180910390fd5b600073ffffffffffffffffffffffffffffffffffffffff168173ffffffffffffffffffffffffffffffffffffffff161415611fa8576040517f08c379a0000000000000000000000000000000000000000000000000000000008152600401611f9f90613500565b60405180910390fd5b611fb18161253e565b50565b600160009054906101000a900473ffffffffffffffffffffffffffffffffffffffff1673ffffffffffffffffffffffffffffffffffffffff1663eeecdd7b8484846040518463ffffffff1660e01b81526004016120139392919061338b565b60206040518083038186803b15801561202b57600080fd5b505afa15801561203f573d6000803e3d6000fd5b505050506040513d601f19601f820116820180604052508101906120639190612ce9565b6120a2576040517f08c379a000000000000000000000000000000000000000000000000000000000815260040161209990613600565b60405180910390fd5b600060ff16600160009054906101000a900473ffffffffffffffffffffffffffffffffffffffff1673ffffffffffffffffffffffffffffffffffffffff16639de5f9578585856040518463ffffffff1660e01b81526004016121069392919061338b565b60206040518083038186803b15801561211e57600080fd5b505afa158015612132573d6000803e3d6000fd5b505050506040513d601f19601f820116820180604052508101906121569190612d9f565b60ff1614612199576040517f08c379a000000000000000000000000000000000000000000000000000000000815260040161219090613640565b60405180910390fd5b60006121a4336128ee565b90506000818585856040516020016121bf94939291906132b1565b6040516020818303038152906040528051906020012090506000600360008381526020019081526020016000209050338160000160006101000a81548173ffffffffffffffffffffffffffffffffffffffff021916908373ffffffffffffffffffffffffffffffffffffffff16021790555060018160000160146101000a81548160ff0219169083151502179055507f3ed01f2c3fc24c6b329d931e35b03e390d23497d22b3f90e15b600343e93df1183878787604051612283949392919061373b565b60405180910390a1505050505050565b600033905090565b6122a3610c31565b6122e2576040517f08c379a00000000000000000000000000000000000000000000000000000000081526004016122d9906134e0565b60405180910390fd5b60008060146101000a81548160ff0219169083151502179055507f5db9ee0a495bf2e6ff9c91a7834c1ba4fdd244a5e8aa4e537bd38aeae4b073aa612325612293565b60405161233291906132fb565b60405180910390a1565b612344610c31565b15612384576040517f08c379a000000000000000000000000000000000000000000000000000000000815260040161237b906135e0565b60405180910390fd5b6001600060146101000a81548160ff0219169083151502179055507f62e78cea01bee320cd4e420270b5ea74000d11b0c9f74754ebdbfc544b05a2586123c8612293565b6040516123d591906132fb565b60405180910390a1565b6123e7612a42565b6123ef612a42565b6123f8836128ee565b8160006003811061240c5761240b613a46565b5b602002019060ff16908160ff16815250505b612427836128ee565b8160016003811061243b5761243a613a46565b5b602002019060ff16908160ff1681525050806000600381106124605761245f613a46565b5b602002015160ff168160016003811061247c5761247b613a46565b5b602002015160ff161461241e575b612493836128ee565b816002600381106124a7576124a6613a46565b5b602002019060ff16908160ff1681525050806000600381106124cc576124cb613a46565b5b602002015160ff16816002600381106124e8576124e7613a46565b5b602002015160ff16148061253157508060016003811061250b5761250a613a46565b5b602002015160ff168160026003811061252757612526613a46565b5b602002015160ff16145b61248a5780915050919050565b60008060009054906101000a900473ffffffffffffffffffffffffffffffffffffffff169050816000806101000a81548173ffffffffffffffffffffffffffffffffffffffff021916908373ffffffffffffffffffffffffffffffffffffffff1602179055508173ffffffffffffffffffffffffffffffffffffffff168173ffffffffffffffffffffffffffffffffffffffff167f8be0079c531659141344cd1fd0a4f28419497f9722a3daafe3b4186f6b6457e060405160405180910390a35050565b61260a611a51565b612649576040517f08c379a000000000000000000000000000000000000000000000000000000000815260040161264090613580565b60405180910390fd5b600060ff168160ff1614806127135750600060ff16600160009054906101000a900473ffffffffffffffffffffffffffffffffffffffff1673ffffffffffffffffffffffffffffffffffffffff16639de5f9578686866040518463ffffffff1660e01b81526004016126bd9392919061338b565b60206040518083038186803b1580156126d557600080fd5b505afa1580156126e9573d6000803e3d6000fd5b505050506040513d601f19601f8201168201806040525081019061270d9190612d9f565b60ff1614155b1561271d576128e8565b600160009054906101000a900473ffffffffffffffffffffffffffffffffffffffff1673ffffffffffffffffffffffffffffffffffffffff1663f8d9bfd9858585856040518563ffffffff1660e01b815260040161277e9493929190613423565b600060405180830381600087803b15801561279857600080fd5b505af11580156127ac573d6000803e3d6000fd5b50505050601460ff168160ff16141561285557600160009054906101000a900473ffffffffffffffffffffffffffffffffffffffff1673ffffffffffffffffffffffffffffffffffffffff1663c8820a708585856040518463ffffffff1660e01b815260040161281e9392919061338b565b600060405180830381600087803b15801561283857600080fd5b505af115801561284c573d6000803e3d6000fd5b505050506128e7565b600160009054906101000a900473ffffffffffffffffffffffffffffffffffffffff1673ffffffffffffffffffffffffffffffffffffffff1663ad24ef9b8585856040518463ffffffff1660e01b81526004016128b49392919061338b565b600060405180830381600087803b1580156128ce57600080fd5b505af11580156128e2573d6000803e3d6000fd5b505050505b5b50505050565b600080600a905060008160ff1642856001601481819054906101000a900460ff166129189061391e565b91906101000a81548160ff021916908360ff160217905560405160200161294193929190613274565b6040516020818303038152906040528051906020012060001c6129649190613988565b905060fa600160149054906101000a900460ff1660ff16111561299e576000600160146101000a81548160ff021916908360ff1602179055505b8092505050919050565b826003601f01602090048101928215612a315791602002820160005b83821115612a0257835183826101000a81548160ff021916908360ff16021790555092602001926001016020816000010492830192600103026129c4565b8015612a2f5782816101000a81549060ff0219169055600101602081600001049283019260010302612a02565b505b509050612a3e9190612a64565b5090565b6040518060600160405280600390602082028036833780820191505090505090565b5b80821115612a7d576000816000905550600101612a65565b5090565b6000612a94612a8f846137ac565b613787565b905082815260208101848484011115612ab057612aaf613aa9565b5b612abb8482856138ab565b509392505050565b600081359050612ad281613f32565b92915050565b600081359050612ae781613f49565b92915050565b600081519050612afc81613f49565b92915050565b600082601f830112612b1757612b16613aa4565b5b8135612b27848260208601612a81565b91505092915050565b600081359050612b3f81613f60565b92915050565b600081519050612b5481613f60565b92915050565b600081359050612b6981613f77565b92915050565b600081519050612b7e81613f77565b92915050565b600060208284031215612b9a57612b99613ab3565b5b6000612ba884828501612ac3565b91505092915050565b60008060408385031215612bc857612bc7613ab3565b5b6000612bd685828601612ac3565b9250506020612be785828601612ad8565b9150509250929050565b60008060408385031215612c0857612c07613ab3565b5b6000612c1685828601612ac3565b925050602083013567ffffffffffffffff811115612c3757612c36613aae565b5b612c4385828601612b02565b9150509250929050565b600080600060608486031215612c6657612c65613ab3565b5b6000612c7486828701612ac3565b935050602084013567ffffffffffffffff811115612c9557612c94613aae565b5b612ca186828701612b02565b9250506040612cb286828701612b30565b9150509250925092565b600060208284031215612cd257612cd1613ab3565b5b6000612ce084828501612ad8565b91505092915050565b600060208284031215612cff57612cfe613ab3565b5b6000612d0d84828501612aed565b91505092915050565b60008060408385031215612d2d57612d2c613ab3565b5b600083013567ffffffffffffffff811115612d4b57612d4a613aae565b5b612d5785828601612b02565b9250506020612d6885828601612b30565b9150509250929050565b600060208284031215612d8857612d87613ab3565b5b6000612d9684828501612b45565b91505092915050565b600060208284031215612db557612db4613ab3565b5b6000612dc384828501612b6f565b91505092915050565b600080600080600060a08688031215612de857612de7613ab3565b5b6000612df688828901612b5a565b9550506020612e0788828901612ac3565b945050604086013567ffffffffffffffff811115612e2857612e27613aae565b5b612e3488828901612b02565b9350506060612e4588828901612b30565b9250506080612e5688828901612b5a565b9150509295509295909350565b6000612e6f838361323f565b60208301905092915050565b612e8481613831565b82525050565b612e9b612e9682613831565b613948565b82525050565b612eaa816137e7565b612eb4818461380a565b9250612ebf826137dd565b8060005b83811015612ef0578151612ed78782612e63565b9650612ee2836137fd565b925050600181019050612ec3565b505050505050565b612f0181613843565b82525050565b612f1081613899565b82525050565b6000612f21826137f2565b612f2b8185613815565b9350612f3b8185602086016138ba565b612f4481613ab8565b840191505092915050565b6000612f5a826137f2565b612f648185613826565b9350612f748185602086016138ba565b80840191505092915050565b6000612f8d602f83613815565b9150612f9882613ae3565b604082019050919050565b6000612fb0601483613815565b9150612fbb82613b32565b602082019050919050565b6000612fd3602683613815565b9150612fde82613b5b565b604082019050919050565b6000612ff6603483613815565b915061300182613baa565b604082019050919050565b6000613019601383613815565b915061302482613bf9565b602082019050919050565b600061303c601d83613815565b915061304782613c22565b602082019050919050565b600061305f602983613815565b915061306a82613c4b565b604082019050919050565b6000613082603983613815565b915061308d82613c9a565b604082019050919050565b60006130a5602b83613815565b91506130b082613ce9565b604082019050919050565b60006130c8601083613815565b91506130d382613d38565b602082019050919050565b60006130eb601c83613815565b91506130f682613d61565b602082019050919050565b600061310e601b83613815565b915061311982613d8a565b602082019050919050565b6000613131602883613815565b915061313c82613db3565b604082019050919050565b6000613154602083613815565b915061315f82613e02565b602082019050919050565b6000613177601583613815565b915061318282613e2b565b602082019050919050565b600061319a601b83613815565b91506131a582613e54565b602082019050919050565b60006131bd601c83613815565b91506131c882613e7d565b602082019050919050565b60006131e0602383613815565b91506131eb82613ea6565b604082019050919050565b6000613203601b83613815565b915061320e82613ef5565b602082019050919050565b61322281613882565b82525050565b61323961323482613882565b61396c565b82525050565b6132488161388c565b82525050565b6132578161388c565b82525050565b61326e6132698261388c565b613976565b82525050565b60006132808286613228565b6020820191506132908285612e8a565b6014820191506132a0828461325d565b600182019150819050949350505050565b60006132bd828761325d565b6001820191506132cd8286612e8a565b6014820191506132dd8285612f4f565b91506132e98284613228565b60208201915081905095945050505050565b60006020820190506133106000830184612e7b565b92915050565b600060608201905061332b6000830186612e7b565b6133386020830185612e7b565b6133456040830184612ef8565b949350505050565b60006060820190506133626000830186612e7b565b81810360208301526133748185612f16565b90506133836040830184612f07565b949350505050565b60006060820190506133a06000830186612e7b565b81810360208301526133b28185612f16565b90506133c16040830184613219565b949350505050565b600060a0820190506133de6000830188612e7b565b81810360208301526133f08187612f16565b90506133ff6040830186613219565b61340c6060830185612e7b565b6134196080830184613219565b9695505050505050565b60006080820190506134386000830187612e7b565b818103602083015261344a8186612f16565b90506134596040830185613219565b613466606083018461324e565b95945050505050565b60006060820190506134846000830184612ea1565b92915050565b600060208201905061349f6000830184612ef8565b92915050565b60006020820190506134ba6000830184612f07565b92915050565b600060208201905081810360008301526134d981612f80565b9050919050565b600060208201905081810360008301526134f981612fa3565b9050919050565b6000602082019050818103600083015261351981612fc6565b9050919050565b6000602082019050818103600083015261353981612fe9565b9050919050565b600060208201905081810360008301526135598161300c565b9050919050565b600060208201905081810360008301526135798161302f565b9050919050565b6000602082019050818103600083015261359981613052565b9050919050565b600060208201905081810360008301526135b981613075565b9050919050565b600060208201905081810360008301526135d981613098565b9050919050565b600060208201905081810360008301526135f9816130bb565b9050919050565b60006020820190508181036000830152613619816130de565b9050919050565b6000602082019050818103600083015261363981613101565b9050919050565b6000602082019050818103600083015261365981613124565b9050919050565b6000602082019050818103600083015261367981613147565b9050919050565b600060208201905081810360008301526136998161316a565b9050919050565b600060208201905081810360008301526136b98161318d565b9050919050565b600060208201905081810360008301526136d9816131b0565b9050919050565b600060208201905081810360008301526136f9816131d3565b9050919050565b60006020820190508181036000830152613719816131f6565b9050919050565b60006020820190506137356000830184613219565b92915050565b6000608082019050613750600083018761324e565b61375d6020830186612e7b565b818103604083015261376f8185612f16565b905061377e6060830184613219565b95945050505050565b60006137916137a2565b905061379d82826138ed565b919050565b6000604051905090565b600067ffffffffffffffff8211156137c7576137c6613a75565b5b6137d082613ab8565b9050602081019050919050565b6000819050919050565b600060039050919050565b600081519050919050565b6000602082019050919050565b600081905092915050565b600082825260208201905092915050565b600081905092915050565b600061383c82613862565b9050919050565b60008115159050919050565b600081905061385d82613f1e565b919050565b600073ffffffffffffffffffffffffffffffffffffffff82169050919050565b6000819050919050565b600060ff82169050919050565b60006138a48261384f565b9050919050565b82818337600083830152505050565b60005b838110156138d85780820151818401526020810190506138bd565b838111156138e7576000848401525b50505050565b6138f682613ab8565b810181811067ffffffffffffffff8211171561391557613914613a75565b5b80604052505050565b60006139298261388c565b915060ff82141561393d5761393c6139b9565b5b600182019050919050565b60006139538261395a565b9050919050565b600061396582613ad6565b9050919050565b6000819050919050565b600061398182613ac9565b9050919050565b600061399382613882565b915061399e83613882565b9250826139ae576139ad6139e8565b5b828206905092915050565b7f4e487b7100000000000000000000000000000000000000000000000000000000600052601160045260246000fd5b7f4e487b7100000000000000000000000000000000000000000000000000000000600052601260045260246000fd5b7f4e487b7100000000000000000000000000000000000000000000000000000000600052602160045260246000fd5b7f4e487b7100000000000000000000000000000000000000000000000000000000600052603260045260246000fd5b7f4e487b7100000000000000000000000000000000000000000000000000000000600052604160045260246000fd5b600080fd5b600080fd5b600080fd5b600080fd5b6000601f19601f8301169050919050565b60008160f81b9050919050565b60008160601b9050919050565b7f466c69676874206f722074696d657374616d7020646f206e6f74206d6174636860008201527f206f7261636c6520726571756573740000000000000000000000000000000000602082015250565b7f5061757361626c653a206e6f7420706175736564000000000000000000000000600082015250565b7f4f776e61626c653a206e6577206f776e657220697320746865207a65726f206160008201527f6464726573730000000000000000000000000000000000000000000000000000602082015250565b7f436f6e7472616374206e6565647320746f206265206f7065726174696f6e616c60008201527f20746f2073657420697420746f20706175736564000000000000000000000000602082015250565b7f6d7573742070617920656e6f7567682045544800000000000000000000000000600082015250565b7f63616e6e6f74207265676973746572206169726c696e65207477696365000000600082015250565b7f436f6e7472616374206973206e6f74206f7065726174696f6e616c206174207460008201527f6865206d6f6d656e740000000000000000000000000000000000000000000000602082015250565b7f436f6e7472616374206e6565647320746f2062652070617573656420746f207360008201527f6574206974206261636b20746f206f7065726174696f6e616c00000000000000602082015250565b7f6e65656420746f20626520636f6e7472616374206f776e6572206f722066756e60008201527f646564206169726c696e65000000000000000000000000000000000000000000602082015250565b7f5061757361626c653a2070617573656400000000000000000000000000000000600082015250565b7f6e6f207375636820666c69676874206973207265676973746572656400000000600082015250565b7f4e6f74207265676973746572656420617320616e206f7261636c650000000000600082015250565b7f7468697320666c6967687427732073746174757320697320616c72656164792060008201527f7665726966696564000000000000000000000000000000000000000000000000602082015250565b7f4f776e61626c653a2063616c6c6572206973206e6f7420746865206f776e6572600082015250565b7f6e65656420746f20626520616e206169726c696e650000000000000000000000600082015250565b7f6e6f207061796f75742062616c616e636520617661696c61626c650000000000600082015250565b7f526567697374726174696f6e2066656520697320726571756972656400000000600082015250565b7f496e64657820646f6573206e6f74206d61746368206f7261636c65207265717560008201527f6573740000000000000000000000000000000000000000000000000000000000602082015250565b7f6e65656420746f20626520612066756e646564206169726c696e650000000000600082015250565b60068110613f2f57613f2e613a17565b5b50565b613f3b81613831565b8114613f4657600080fd5b50565b613f5281613843565b8114613f5d57600080fd5b50565b613f6981613882565b8114613f7457600080fd5b50565b613f808161388c565b8114613f8b57600080fd5b5056fea264697066735822122017ea6882671db225e74bb94820677152bcd6ac328cad07cd3ec0a347b2ba7b2e64736f6c63430008060033",
  "immutableReferences": {},
  "source": "// SPDX-License-Identifier: UNLICENSED\n\npragma solidity ^0.8.6;\n\nimport \"@openzeppelin/contracts/access/Ownable.sol\";\nimport \"@openzeppelin/contracts/security/Pausable.sol\";\nimport \"@openzeppelin/contracts/utils/math/SafeMath.sol\";\nimport \"./FlightSuretyData.sol\";\n\ncontract FlightSuretyApp is Ownable, Pausable {\n\n    using SafeMath for uint256; // Allow SafeMath functions to be called for all uint256 types (similar to \"prototype\" in Javascript)\n\n    /********************************************************************************************/\n    /*                                       STRUCTS / ENUMS                                    */\n    /********************************************************************************************/\n\n    struct Oracle {\n        bool isRegistered;\n        uint8[3] indexes;\n    }\n\n    // Model for responses from oracles\n    struct ResponseInfo {\n        address requester;                              // Account that requested status\n        bool isOpen;                                    // If open, oracle responses are accepted\n        mapping(uint8 => address[]) responses;          // Mapping key is the status code reported\n        // This lets us group responses and identify\n        // the response that majority of the oracles\n    }\n\n    /********************************************************************************************/\n    /*                                       VARIABLES                                          */\n    /********************************************************************************************/\n\n    // Instance of the data smart contract\n    FlightSuretyData private dataContract;\n\n    // Incremented to add pseudo-randomness at various points\n    uint8 private nonce = 0;\n\n    // Track all registered oracles\n    mapping(address => Oracle) private oracles;\n\n    // Track all oracle responses\n    // Key = hash(index, airline, flight, timestamp)\n    mapping(bytes32 => ResponseInfo) private oracleResponses;\n\n    /********************************************************************************************/\n    /*                                       CONSTANTS                                          */\n    /********************************************************************************************/\n\n    // Fee to be paid when registering oracle\n    uint256 public constant REGISTRATION_FEE = 1 ether;\n\n    // Number of oracles that must respond for valid status\n    uint256 private constant MIN_RESPONSES = 5;\n\n    // Number of airlines that can be registered without voting\n    uint256 private constant NO_NEED_APPROVAL = 4;\n\n    // Minimum ETH to set up funding by an airline\n    uint256 public constant MINIMUM_FUNDING = 10 ether;\n\n    // Flight status codes\n    uint8 private constant STATUS_CODE_UNKNOWN = 0;\n    uint8 private constant STATUS_CODE_ON_TIME = 10;\n    uint8 private constant STATUS_CODE_LATE_AIRLINE = 20;\n    uint8 private constant STATUS_CODE_LATE_WEATHER = 30;\n    uint8 private constant STATUS_CODE_LATE_TECHNICAL = 40;\n    uint8 private constant STATUS_CODE_LATE_OTHER = 50;\n\n    /********************************************************************************************/\n    /*                                       EVENTS                                             */\n    /********************************************************************************************/\n\n    // Event fired each time an oracle submits a response\n    event FlightStatusInfo(address airline, string flight, uint256 timestamp, uint8 status);\n\n    event OracleReport(address airline, string flight, uint256 timestamp, uint8 status);\n\n    // Event fired when flight status request is submitted\n    // Oracles track this and if they have a matching index\n    // they fetch data and submit a response\n    event OracleRequest(uint8 index, address airline, string flight, uint256 timestamp);\n\n    /********************************************************************************************/\n    /*                                       FUNCTION MODIFIERS                                 */\n    /********************************************************************************************/\n\n    // Modifiers help avoid duplication of code. They are typically used to validate something\n    // before a function is allowed to be executed.\n    // All modifiers require an \"_\" which indicates where the function body will be added.\n\n    modifier requireIsOperational() {\n        require(isOperational(), \"Contract is not operational at the moment\");\n        _;\n    }\n\n    modifier requireIsAirline(bool funded) {\n        require(dataContract.isAirline(msg.sender), \"need to be an airline\");\n        if (funded) require(dataContract.isFunded(msg.sender), \"need to be a funded airline\");\n        _;\n    }\n\n    /********************************************************************************************/\n    /*                                       CONSTRUCTOR                                        */\n    /********************************************************************************************/\n\n    /**\n    * @dev Contract constructor\n    *\n    */\n    constructor(address dataContractAdr)\n    {\n        dataContract = FlightSuretyData(dataContractAdr);\n    }\n\n    /********************************************************************************************/\n    /*                                       ADMIN FUNCTIONS                                    */\n    /********************************************************************************************/\n\n    function setOperatingStatus(bool operational)\n        public\n        onlyOwner()\n    {\n        if (operational) {\n            require(paused(), \"Contract needs to be paused to set it back to operational\");\n            _unpause();\n        } else {\n            require(!paused(), \"Contract needs to be operational to set it to paused\");\n            _pause();\n        }\n    }\n\n    function isOperational()\n        public\n        view\n        returns (bool)\n    {\n        return !paused() && !dataContract.paused();\n    }\n\n    function setTestingMode(bool active)\n        public\n        onlyOwner()\n        requireIsOperational()\n    {\n\n    }\n\n    /********************************************************************************************/\n    /*                                       UTILITY FUNCTIONS                                  */\n    /********************************************************************************************/\n\n    function getFlightKey(\n        address airline,\n        string memory flight,\n        uint256 timestamp\n    )\n        pure\n        internal\n        returns (bytes32)\n    {\n        return keccak256(abi.encodePacked(airline, flight, timestamp));\n    }\n\n    // Returns array of three non-duplicating integers from 0-9\n    function generateIndexes(address account)\n        internal\n        returns (uint8[3] memory)\n    {\n        uint8[3] memory indexes;\n\n        indexes[0] = getRandomIndex(account);\n\n        do {\n            indexes[1] = getRandomIndex(account);\n        } while (indexes[1] == indexes[0]);\n\n        do {\n            indexes[2] = getRandomIndex(account);\n        } while ((indexes[2] == indexes[0]) || (indexes[2] == indexes[1]));\n\n        return indexes;\n    }\n\n    // Returns integers from 0-9\n    function getRandomIndex(address account)\n        internal\n        returns (uint8)\n    {\n        uint8 maxValue = 10;\n        // Pseudo random number...the incrementing nonce adds variation\n        uint8 random = uint8(uint256(keccak256(abi.encodePacked(block.timestamp, account, ++nonce))) % maxValue);\n        if (nonce > 250) nonce = 0;\n        return random;\n    }\n\n    /********************************************************************************************/\n    /*                                     SMART CONTRACT FUNCTIONS                             */\n    /********************************************************************************************/\n\n    // region AIRLINES\n\n    /**\n     * @dev Add an airline to the registration queue\n     *\n     */\n    function registerAirline(address airline, string memory name)\n        external\n        requireIsOperational()\n        returns (FlightSuretyData.State)\n    {\n        require(msg.sender == owner() || dataContract.isFunded(msg.sender), \"need to be contract owner or funded airline\");\n        require(!dataContract.isAirline(airline), \"cannot register airline twice\");\n        bool needsApproval = dataContract.approvedAirlinesCount() >= NO_NEED_APPROVAL;\n        FlightSuretyData.State state = needsApproval ? FlightSuretyData.State.Queued : FlightSuretyData.State.Approved;\n        dataContract.registerAirline(airline, name, state);\n        return state;\n    }\n\n    /**\n     * @dev Initial funding for the insurance. Unless there are too many delayed flights\n     *      resulting in insurance payouts, the contract should be self-sustaining\n     *\n     */\n    function fundAirline()\n        public\n        payable\n        requireIsOperational()\n        requireIsAirline(false)\n    {\n        require(msg.value >= MINIMUM_FUNDING, \"must pay enough ETH\");\n        dataContract.fundAirline(msg.sender);\n    }\n\n    function voteForAirline(address airline, bool approve)\n        public\n        requireIsOperational()\n        requireIsAirline(true)\n    {\n        dataContract.voteForAirline(msg.sender, airline, approve);\n    }\n\n    // endregion\n\n    // region FLIGHTS\n\n    /**\n     * @dev Register a future flight for insuring\n     *\n     */\n    function registerFlight(string memory flight, uint256 timestamp)\n        public\n        requireIsOperational()\n        requireIsAirline(true)\n    {\n        dataContract.registerFlight(msg.sender, flight, timestamp);\n    }\n\n    /**\n     * @dev Called after oracle has updated flight status\n     *\n     */\n    function processFlightStatus\n    (\n        address airline,\n        string memory flight,\n        uint256 timestamp,\n        uint8 statusCode\n    )\n        internal\n        requireIsOperational()\n    {\n        // receiving a STATUS_CODE_UNKNOWN here or the flight's status was changed already, we do nothing\n        if (statusCode == STATUS_CODE_UNKNOWN || dataContract.getFlightStatus(airline, flight, timestamp) != STATUS_CODE_UNKNOWN) return;\n\n        dataContract.updateFlight(airline, flight, timestamp, statusCode);\n\n        if (statusCode == STATUS_CODE_LATE_AIRLINE) {\n            // Insurees will be credited if the delay was caused by the airline...\n            dataContract.creditInsurees(airline, flight, timestamp);\n        } else {\n            // Other causes of the delay will invalidate the policies, no payouts!\n            dataContract.invalidatePolicies(airline, flight, timestamp);\n        }\n    }\n\n    // Generate a request for oracles to fetch flight information\n    function fetchFlightStatus\n    (\n        address airline,\n        string memory flight,\n        uint256 timestamp\n    )\n    external\n    {\n        require(dataContract.isRegisteredFlight(airline, flight, timestamp), \"no such flight is registered\");\n        require(dataContract.getFlightStatus(airline, flight, timestamp) == STATUS_CODE_UNKNOWN, \"this flight's status is already verified\");\n\n        uint8 index = getRandomIndex(msg.sender);\n\n        // Generate a unique key for storing the request\n        bytes32 key = keccak256(abi.encodePacked(index, airline, flight, timestamp));\n\n        ResponseInfo storage responseInfo = oracleResponses[key];\n        responseInfo.requester = msg.sender;\n        responseInfo.isOpen = true;\n\n        emit OracleRequest(index, airline, flight, timestamp);\n    }\n\n    // endregion\n\n    // region INSURANCE\n\n    /**\n     * @dev Buy insurance for a flight\n     *\n     */\n    function buyInsurance(address airline, string memory flight, uint256 timestamp)\n        external\n        payable\n        requireIsOperational()\n    {\n        require(dataContract.isRegisteredFlight(airline, flight, timestamp), \"no such flight is registered\");\n        require(dataContract.getFlightStatus(airline, flight, timestamp) == STATUS_CODE_UNKNOWN, \"this flight's status is already verified\");\n        dataContract.registerInsurance(airline, flight, timestamp, msg.sender, msg.value);\n    }\n\n    /**\n     *  @dev Transfers eligible payout funds to insuree\n     *\n    */\n    function getPayout()\n        external\n        requireIsOperational()\n    {\n        require(dataContract.getAvailableBalance(msg.sender) > 0, \"no payout balance available\");\n        uint256 payoutAmount = dataContract.getAvailableBalance(msg.sender);\n        dataContract.registerPayout(msg.sender);\n        payable(msg.sender).transfer(payoutAmount);\n    }\n\n    // endregion\n\n    // region ORACLE MANAGEMENT\n\n    // Register an oracle with the contract\n    function registerOracle()\n        external\n        payable\n    {\n        // Require registration fee\n        require(msg.value >= REGISTRATION_FEE, \"Registration fee is required\");\n\n        uint8[3] memory indexes = generateIndexes(msg.sender);\n        //uint8[3] memory indexes = [1, 0, 7];\n\n        oracles[msg.sender] = Oracle({\n            isRegistered: true,\n            indexes: indexes\n        });\n    }\n\n    // Get an oracle's three randomly generated indexes\n    function getMyIndexes()\n        view\n        external\n        returns (uint8[3] memory)\n    {\n        require(oracles[msg.sender].isRegistered, \"Not registered as an oracle\");\n        return oracles[msg.sender].indexes;\n    }\n\n    // Called by oracle when a response is available to an outstanding request.\n    // For the response to be accepted, there must be a pending request that is open\n    // and matches one of the three indexes randomly assigned to the oracle at the\n    // time of registration (i.e. uninvited oracles are not welcome).\n    function submitOracleResponse\n    (\n        uint8 index,\n        address airline,\n        string memory flight,\n        uint256 timestamp,\n        uint8 statusCode\n    )\n    external\n    {\n        require((oracles[msg.sender].indexes[0] == index) || (oracles[msg.sender].indexes[1] == index) || (oracles[msg.sender].indexes[2] == index), \"Index does not match oracle request\");\n        bytes32 key = keccak256(abi.encodePacked(index, airline, flight, timestamp));\n        require(oracleResponses[key].isOpen, \"Flight or timestamp do not match oracle request\");\n        oracleResponses[key].responses[statusCode].push(msg.sender);\n        emit OracleReport(airline, flight, timestamp, statusCode);\n\n        // Information isn't considered verified until at least MIN_RESPONSES\n        // oracles respond with the *** same *** information\n        if (oracleResponses[key].responses[statusCode].length >= MIN_RESPONSES) {\n            // To whom it may concern\n            emit FlightStatusInfo(airline, flight, timestamp, statusCode);\n            // Handle flight status as appropriate\n            processFlightStatus(airline, flight, timestamp, statusCode);\n        }\n    }\n\n    // endregion\n\n    /********************************************************************************************/\n    /*                                       FALLBACK FUNCTIONS                                 */\n    /********************************************************************************************/\n\n    //    fallback()\n    //        external\n    //        payable\n    //    {\n    //        fund();\n    //    }\n    //\n    //    receive()\n    //        external\n    //        payable\n    //    {\n    //        fund();\n    //    }\n}   \n",
  "sourcePath": "/home/julian/Development/blockchain/14-FlightSurety/contracts/FlightSuretyApp.sol",
  "compiler": {
    "name": "solc",
    "version": "0.8.6+commit.11564f7e.Emscripten.clang"
  },
  "schemaVersion": "3.4.1",
  "updatedAt": "2021-07-15T17:10:09.907Z",
  "networkType": "ethereum",
  "devdoc": {
    "kind": "dev",
    "methods": {
      "buyInsurance(address,string,uint256)": {
        "details": "Buy insurance for a flight"
      },
      "constructor": {
        "details": "Contract constructor"
      },
      "fundAirline()": {
        "details": "Initial funding for the insurance. Unless there are too many delayed flights      resulting in insurance payouts, the contract should be self-sustaining"
      },
      "getPayout()": {
        "details": "Transfers eligible payout funds to insuree"
      },
      "owner()": {
        "details": "Returns the address of the current owner."
      },
      "paused()": {
        "details": "Returns true if the contract is paused, and false otherwise."
      },
      "registerAirline(address,string)": {
        "details": "Add an airline to the registration queue"
      },
      "registerFlight(string,uint256)": {
        "details": "Register a future flight for insuring"
      },
      "renounceOwnership()": {
        "details": "Leaves the contract without owner. It will not be possible to call `onlyOwner` functions anymore. Can only be called by the current owner. NOTE: Renouncing ownership will leave the contract without an owner, thereby removing any functionality that is only available to the owner."
      },
      "transferOwnership(address)": {
        "details": "Transfers ownership of the contract to a new account (`newOwner`). Can only be called by the current owner."
      }
    },
    "version": 1
  },
  "userdoc": {
    "kind": "user",
    "methods": {},
    "version": 1
  }
}