{
  "contractName": "FlightSuretyApp",
  "abi": [
    {
      "inputs": [
        {
          "internalType": "address",
          "name": "dataContractAdr",
          "type": "address"
        }
      ],
      "stateMutability": "nonpayable",
      "type": "constructor"
    },
    {
      "anonymous": false,
      "inputs": [
        {
          "indexed": false,
          "internalType": "address",
          "name": "airline",
          "type": "address"
        },
        {
          "indexed": false,
          "internalType": "string",
          "name": "flight",
          "type": "string"
        },
        {
          "indexed": false,
          "internalType": "uint256",
          "name": "timestamp",
          "type": "uint256"
        },
        {
          "indexed": false,
          "internalType": "uint8",
          "name": "status",
          "type": "uint8"
        }
      ],
      "name": "FlightStatusInfo",
      "type": "event"
    },
    {
      "anonymous": false,
      "inputs": [
        {
          "indexed": false,
          "internalType": "address",
          "name": "airline",
          "type": "address"
        },
        {
          "indexed": false,
          "internalType": "string",
          "name": "flight",
          "type": "string"
        },
        {
          "indexed": false,
          "internalType": "uint256",
          "name": "timestamp",
          "type": "uint256"
        },
        {
          "indexed": false,
          "internalType": "uint8",
          "name": "status",
          "type": "uint8"
        }
      ],
      "name": "OracleReport",
      "type": "event"
    },
    {
      "anonymous": false,
      "inputs": [
        {
          "indexed": false,
          "internalType": "uint8",
          "name": "index",
          "type": "uint8"
        },
        {
          "indexed": false,
          "internalType": "address",
          "name": "airline",
          "type": "address"
        },
        {
          "indexed": false,
          "internalType": "string",
          "name": "flight",
          "type": "string"
        },
        {
          "indexed": false,
          "internalType": "uint256",
          "name": "timestamp",
          "type": "uint256"
        }
      ],
      "name": "OracleRequest",
      "type": "event"
    },
    {
      "anonymous": false,
      "inputs": [
        {
          "indexed": true,
          "internalType": "address",
          "name": "previousOwner",
          "type": "address"
        },
        {
          "indexed": true,
          "internalType": "address",
          "name": "newOwner",
          "type": "address"
        }
      ],
      "name": "OwnershipTransferred",
      "type": "event"
    },
    {
      "anonymous": false,
      "inputs": [
        {
          "indexed": false,
          "internalType": "address",
          "name": "account",
          "type": "address"
        }
      ],
      "name": "Paused",
      "type": "event"
    },
    {
      "anonymous": false,
      "inputs": [
        {
          "indexed": false,
          "internalType": "address",
          "name": "account",
          "type": "address"
        }
      ],
      "name": "Unpaused",
      "type": "event"
    },
    {
      "inputs": [],
      "name": "MINIMUM_FUNDING",
      "outputs": [
        {
          "internalType": "uint256",
          "name": "",
          "type": "uint256"
        }
      ],
      "stateMutability": "view",
      "type": "function",
      "constant": true
    },
    {
      "inputs": [],
      "name": "REGISTRATION_FEE",
      "outputs": [
        {
          "internalType": "uint256",
          "name": "",
          "type": "uint256"
        }
      ],
      "stateMutability": "view",
      "type": "function",
      "constant": true
    },
    {
      "inputs": [],
      "name": "owner",
      "outputs": [
        {
          "internalType": "address",
          "name": "",
          "type": "address"
        }
      ],
      "stateMutability": "view",
      "type": "function",
      "constant": true
    },
    {
      "inputs": [],
      "name": "paused",
      "outputs": [
        {
          "internalType": "bool",
          "name": "",
          "type": "bool"
        }
      ],
      "stateMutability": "view",
      "type": "function",
      "constant": true
    },
    {
      "inputs": [],
      "name": "renounceOwnership",
      "outputs": [],
      "stateMutability": "nonpayable",
      "type": "function"
    },
    {
      "inputs": [
        {
          "internalType": "address",
          "name": "newOwner",
          "type": "address"
        }
      ],
      "name": "transferOwnership",
      "outputs": [],
      "stateMutability": "nonpayable",
      "type": "function"
    },
    {
      "inputs": [
        {
          "internalType": "bool",
          "name": "operational",
          "type": "bool"
        }
      ],
      "name": "setOperatingStatus",
      "outputs": [],
      "stateMutability": "nonpayable",
      "type": "function"
    },
    {
      "inputs": [],
      "name": "isOperational",
      "outputs": [
        {
          "internalType": "bool",
          "name": "",
          "type": "bool"
        }
      ],
      "stateMutability": "view",
      "type": "function",
      "constant": true
    },
    {
      "inputs": [
        {
          "internalType": "bool",
          "name": "active",
          "type": "bool"
        }
      ],
      "name": "setTestingMode",
      "outputs": [],
      "stateMutability": "nonpayable",
      "type": "function"
    },
    {
      "inputs": [
        {
          "internalType": "address",
          "name": "adr",
          "type": "address"
        },
        {
          "internalType": "string",
          "name": "name",
          "type": "string"
        }
      ],
      "name": "registerAirline",
      "outputs": [
        {
          "internalType": "enum FlightSuretyData.State",
          "name": "",
          "type": "uint8"
        }
      ],
      "stateMutability": "nonpayable",
      "type": "function"
    },
    {
      "inputs": [],
      "name": "fund",
      "outputs": [],
      "stateMutability": "payable",
      "type": "function",
      "payable": true
    },
    {
      "inputs": [
        {
          "internalType": "address",
          "name": "airlineAdr",
          "type": "address"
        },
        {
          "internalType": "bool",
          "name": "approve",
          "type": "bool"
        }
      ],
      "name": "vote",
      "outputs": [],
      "stateMutability": "nonpayable",
      "type": "function"
    },
    {
      "inputs": [
        {
          "internalType": "string",
          "name": "flight",
          "type": "string"
        },
        {
          "internalType": "uint256",
          "name": "timestamp",
          "type": "uint256"
        }
      ],
      "name": "registerFlight",
      "outputs": [],
      "stateMutability": "nonpayable",
      "type": "function"
    },
    {
      "inputs": [
        {
          "internalType": "address",
          "name": "airline",
          "type": "address"
        },
        {
          "internalType": "string",
          "name": "flight",
          "type": "string"
        },
        {
          "internalType": "uint256",
          "name": "timestamp",
          "type": "uint256"
        }
      ],
      "name": "fetchFlightStatus",
      "outputs": [],
      "stateMutability": "nonpayable",
      "type": "function"
    },
    {
      "inputs": [],
      "name": "registerOracle",
      "outputs": [],
      "stateMutability": "payable",
      "type": "function",
      "payable": true
    },
    {
      "inputs": [],
      "name": "getMyIndexes",
      "outputs": [
        {
          "internalType": "uint8[3]",
          "name": "",
          "type": "uint8[3]"
        }
      ],
      "stateMutability": "view",
      "type": "function",
      "constant": true
    },
    {
      "inputs": [
        {
          "internalType": "uint8",
          "name": "index",
          "type": "uint8"
        },
        {
          "internalType": "address",
          "name": "airline",
          "type": "address"
        },
        {
          "internalType": "string",
          "name": "flight",
          "type": "string"
        },
        {
          "internalType": "uint256",
          "name": "timestamp",
          "type": "uint256"
        },
        {
          "internalType": "uint8",
          "name": "statusCode",
          "type": "uint8"
        }
      ],
      "name": "submitOracleResponse",
      "outputs": [],
      "stateMutability": "nonpayable",
      "type": "function"
    }
  ],
  "bytecode": "0x60806040526000600160146101000a81548160ff021916908360ff1602179055503480156200002d57600080fd5b50604051620036cd380380620036cd8339818101604052810190620000539190620001b8565b6200007362000067620000d560201b60201c565b620000dd60201b60201c565b60008060146101000a81548160ff02191690831515021790555080600160006101000a81548173ffffffffffffffffffffffffffffffffffffffff021916908373ffffffffffffffffffffffffffffffffffffffff160217905550506200023d565b600033905090565b60008060009054906101000a900473ffffffffffffffffffffffffffffffffffffffff169050816000806101000a81548173ffffffffffffffffffffffffffffffffffffffff021916908373ffffffffffffffffffffffffffffffffffffffff1602179055508173ffffffffffffffffffffffffffffffffffffffff168173ffffffffffffffffffffffffffffffffffffffff167f8be0079c531659141344cd1fd0a4f28419497f9722a3daafe3b4186f6b6457e060405160405180910390a35050565b600081519050620001b28162000223565b92915050565b600060208284031215620001d157620001d06200021e565b5b6000620001e184828501620001a1565b91505092915050565b6000620001f782620001fe565b9050919050565b600073ffffffffffffffffffffffffffffffffffffffff82169050919050565b600080fd5b6200022e81620001ea565b81146200023a57600080fd5b50565b613480806200024d6000396000f3fe6080604052600436106100fe5760003560e01c8063715018a611610095578063c10f270011610064578063c10f2700146102a9578063cd905dff146102d2578063ee38a749146102fd578063f2fde38b1461033a578063f83f11c014610363576100fe565b8063715018a6146102345780638da5cb5b1461024b578063b60d428814610276578063bd041c4d14610280576100fe565b80635c975abb116100d15780635c975abb146101885780635f1cc0e6146101b357806364b4f751146101de57806368e7a26114610209576100fe565b8063110466ed14610103578063339d25901461012c57806339cfc99514610136578063596d7a681461015f575b600080fd5b34801561010f57600080fd5b5061012a60048036038101906101259190612217565b61038c565b005b6101346104b6565b005b34801561014257600080fd5b5061015d60048036038101906101589190612271565b6105a3565b005b34801561016b57600080fd5b5061018660048036038101906101819190612217565b610853565b005b34801561019457600080fd5b5061019d610919565b6040516101aa919061291e565b60405180910390f35b3480156101bf57600080fd5b506101c861092f565b6040516101d59190612903565b60405180910390f35b3480156101ea57600080fd5b506101f3610a6f565b6040516102009190612b74565b60405180910390f35b34801561021557600080fd5b5061021e610a7b565b60405161022b9190612b74565b60405180910390f35b34801561024057600080fd5b50610249610a87565b005b34801561025757600080fd5b50610260610b0f565b60405161026d91906127e9565b60405180910390f35b61027e610b38565b005b34801561028c57600080fd5b506102a760048036038101906102a2919061210c565b610d43565b005b3480156102b557600080fd5b506102d060048036038101906102cb91906122fa565b610ff3565b005b3480156102de57600080fd5b506102e7611381565b6040516102f4919061291e565b60405180910390f35b34801561030957600080fd5b50610324600480360381019061031f919061214c565b61143a565b6040516103319190612939565b60405180910390f35b34801561034657600080fd5b50610361600480360381019061035c91906120df565b6117a5565b005b34801561036f57600080fd5b5061038a600480360381019061038591906121a8565b61189d565b005b610394611a4f565b73ffffffffffffffffffffffffffffffffffffffff166103b2610b0f565b73ffffffffffffffffffffffffffffffffffffffff1614610408576040517f08c379a00000000000000000000000000000000000000000000000000000000081526004016103ff90612ad4565b60405180910390fd5b801561046257610416610919565b610455576040517f08c379a000000000000000000000000000000000000000000000000000000000815260040161044c90612a54565b60405180910390fd5b61045d611a57565b6104b3565b61046a610919565b156104aa576040517f08c379a00000000000000000000000000000000000000000000000000000000081526004016104a1906129f4565b60405180910390fd5b6104b2611af8565b5b50565b670de0b6b3a7640000341015610501576040517f08c379a00000000000000000000000000000000000000000000000000000000081526004016104f890612b34565b60405180910390fd5b600061050c33611b9b565b9050604051806040016040528060011515815260200182815250600260003373ffffffffffffffffffffffffffffffffffffffff1673ffffffffffffffffffffffffffffffffffffffff16815260200190815260200160002060008201518160000160006101000a81548160ff02191690831515021790555060208201518160010190600361059c929190611f18565b5090505050565b6105ab611381565b6105ea576040517f08c379a00000000000000000000000000000000000000000000000000000000081526004016105e190612a34565b60405180910390fd5b600160009054906101000a900473ffffffffffffffffffffffffffffffffffffffff1673ffffffffffffffffffffffffffffffffffffffff16630e248a11336040518263ffffffff1660e01b815260040161064591906127e9565b60206040518083038186803b15801561065d57600080fd5b505afa158015610671573d6000803e3d6000fd5b505050506040513d601f19601f820116820180604052508101906106959190612244565b6106d4576040517f08c379a00000000000000000000000000000000000000000000000000000000081526004016106cb90612994565b60405180910390fd5b600160009054906101000a900473ffffffffffffffffffffffffffffffffffffffff1673ffffffffffffffffffffffffffffffffffffffff16635689b249336040518263ffffffff1660e01b815260040161072f91906127e9565b60206040518083038186803b15801561074757600080fd5b505afa15801561075b573d6000803e3d6000fd5b505050506040513d601f19601f8201168201806040525081019061077f9190612244565b6107be576040517f08c379a00000000000000000000000000000000000000000000000000000000081526004016107b590612af4565b60405180910390fd5b600160009054906101000a900473ffffffffffffffffffffffffffffffffffffffff1673ffffffffffffffffffffffffffffffffffffffff16633cc0be9c3384846040518463ffffffff1660e01b815260040161081d93929190612879565b600060405180830381600087803b15801561083757600080fd5b505af115801561084b573d6000803e3d6000fd5b505050505050565b61085b611a4f565b73ffffffffffffffffffffffffffffffffffffffff16610879610b0f565b73ffffffffffffffffffffffffffffffffffffffff16146108cf576040517f08c379a00000000000000000000000000000000000000000000000000000000081526004016108c690612ad4565b60405180910390fd5b6108d7611381565b610916576040517f08c379a000000000000000000000000000000000000000000000000000000000815260040161090d90612a34565b60405180910390fd5b50565b60008060149054906101000a900460ff16905090565b610937611fb2565b600260003373ffffffffffffffffffffffffffffffffffffffff1673ffffffffffffffffffffffffffffffffffffffff16815260200190815260200160002060000160009054906101000a900460ff166109c6576040517f08c379a00000000000000000000000000000000000000000000000000000000081526004016109bd90612ab4565b60405180910390fd5b600260003373ffffffffffffffffffffffffffffffffffffffff1673ffffffffffffffffffffffffffffffffffffffff168152602001908152602001600020600101600380602002604051908101604052809291908260038015610a65576020028201916000905b82829054906101000a900460ff1660ff1681526020019060010190602082600001049283019260010382029150808411610a2e5790505b5050505050905090565b670de0b6b3a764000081565b678ac7230489e8000081565b610a8f611a4f565b73ffffffffffffffffffffffffffffffffffffffff16610aad610b0f565b73ffffffffffffffffffffffffffffffffffffffff1614610b03576040517f08c379a0000000000000000000000000000000000000000000000000000000008152600401610afa90612ad4565b60405180910390fd5b610b0d6000611d82565b565b60008060009054906101000a900473ffffffffffffffffffffffffffffffffffffffff16905090565b610b40611381565b610b7f576040517f08c379a0000000000000000000000000000000000000000000000000000000008152600401610b7690612a34565b60405180910390fd5b600160009054906101000a900473ffffffffffffffffffffffffffffffffffffffff1673ffffffffffffffffffffffffffffffffffffffff16630e248a11336040518263ffffffff1660e01b8152600401610bda91906127e9565b60206040518083038186803b158015610bf257600080fd5b505afa158015610c06573d6000803e3d6000fd5b505050506040513d601f19601f82011682018060405250810190610c2a9190612244565b610c69576040517f08c379a0000000000000000000000000000000000000000000000000000000008152600401610c6090612994565b60405180910390fd5b678ac7230489e80000341015610cb4576040517f08c379a0000000000000000000000000000000000000000000000000000000008152600401610cab90612b14565b60405180910390fd5b600160009054906101000a900473ffffffffffffffffffffffffffffffffffffffff1673ffffffffffffffffffffffffffffffffffffffff166323024408336040518263ffffffff1660e01b8152600401610d0f91906127e9565b600060405180830381600087803b158015610d2957600080fd5b505af1158015610d3d573d6000803e3d6000fd5b50505050565b610d4b611381565b610d8a576040517f08c379a0000000000000000000000000000000000000000000000000000000008152600401610d8190612a34565b60405180910390fd5b600160009054906101000a900473ffffffffffffffffffffffffffffffffffffffff1673ffffffffffffffffffffffffffffffffffffffff16630e248a11336040518263ffffffff1660e01b8152600401610de591906127e9565b60206040518083038186803b158015610dfd57600080fd5b505afa158015610e11573d6000803e3d6000fd5b505050506040513d601f19601f82011682018060405250810190610e359190612244565b610e74576040517f08c379a0000000000000000000000000000000000000000000000000000000008152600401610e6b90612994565b60405180910390fd5b600160009054906101000a900473ffffffffffffffffffffffffffffffffffffffff1673ffffffffffffffffffffffffffffffffffffffff16635689b249336040518263ffffffff1660e01b8152600401610ecf91906127e9565b60206040518083038186803b158015610ee757600080fd5b505afa158015610efb573d6000803e3d6000fd5b505050506040513d601f19601f82011682018060405250810190610f1f9190612244565b610f5e576040517f08c379a0000000000000000000000000000000000000000000000000000000008152600401610f5590612a94565b60405180910390fd5b600160009054906101000a900473ffffffffffffffffffffffffffffffffffffffff1673ffffffffffffffffffffffffffffffffffffffff1663128d87113384846040518463ffffffff1660e01b8152600401610fbd93929190612804565b600060405180830381600087803b158015610fd757600080fd5b505af1158015610feb573d6000803e3d6000fd5b505050505050565b8460ff16600260003373ffffffffffffffffffffffffffffffffffffffff1673ffffffffffffffffffffffffffffffffffffffff16815260200190815260200160002060010160006003811061104c5761104b612ee2565b5b602091828204019190069054906101000a900460ff1660ff1614806110e057508460ff16600260003373ffffffffffffffffffffffffffffffffffffffff1673ffffffffffffffffffffffffffffffffffffffff1681526020019081526020016000206001016001600381106110c5576110c4612ee2565b5b602091828204019190069054906101000a900460ff1660ff16145b8061115a57508460ff16600260003373ffffffffffffffffffffffffffffffffffffffff1673ffffffffffffffffffffffffffffffffffffffff16815260200190815260200160002060010160026003811061113f5761113e612ee2565b5b602091828204019190069054906101000a900460ff1660ff16145b611199576040517f08c379a000000000000000000000000000000000000000000000000000000000815260040161119090612b54565b60405180910390fd5b6000858585856040516020016111b2949392919061279f565b6040516020818303038152906040528051906020012090506003600082815260200190815260200160002060000160149054906101000a900460ff1661122d576040517f08c379a000000000000000000000000000000000000000000000000000000000815260040161122490612954565b60405180910390fd5b6003600082815260200190815260200160002060010160008360ff1660ff168152602001908152602001600020339080600181540180825580915050600190039060005260206000200160009091909190916101000a81548173ffffffffffffffffffffffffffffffffffffffff021916908373ffffffffffffffffffffffffffffffffffffffff1602179055507f43c853095c2752648493c88b4baac4d580d2594ffb00c6f1d4242d844514f783858585856040516112f094939291906128b7565b60405180910390a1600380600083815260200190815260200160002060010160008460ff1660ff1681526020019081526020016000208054905010611379577fe23f5229de535c091e3b7bec2665f5d698192d3b31393066e8987b7a05076b6c8585858560405161136494939291906128b7565b60405180910390a161137885858585611e46565b5b505050505050565b600061138b610919565b1580156114355750600160009054906101000a900473ffffffffffffffffffffffffffffffffffffffff1673ffffffffffffffffffffffffffffffffffffffff16635c975abb6040518163ffffffff1660e01b815260040160206040518083038186803b1580156113fb57600080fd5b505afa15801561140f573d6000803e3d6000fd5b505050506040513d601f19601f820116820180604052508101906114339190612244565b155b905090565b6000611444610b0f565b73ffffffffffffffffffffffffffffffffffffffff163373ffffffffffffffffffffffffffffffffffffffff1614806115245750600160009054906101000a900473ffffffffffffffffffffffffffffffffffffffff1673ffffffffffffffffffffffffffffffffffffffff16635689b249336040518263ffffffff1660e01b81526004016114d391906127e9565b60206040518083038186803b1580156114eb57600080fd5b505afa1580156114ff573d6000803e3d6000fd5b505050506040513d601f19601f820116820180604052508101906115239190612244565b5b611563576040517f08c379a000000000000000000000000000000000000000000000000000000000815260040161155a90612a14565b60405180910390fd5b600160009054906101000a900473ffffffffffffffffffffffffffffffffffffffff1673ffffffffffffffffffffffffffffffffffffffff16630e248a11846040518263ffffffff1660e01b81526004016115be91906127e9565b60206040518083038186803b1580156115d657600080fd5b505afa1580156115ea573d6000803e3d6000fd5b505050506040513d601f19601f8201168201806040525081019061160e9190612244565b1561164e576040517f08c379a0000000000000000000000000000000000000000000000000000000008152600401611645906129d4565b60405180910390fd5b60006004600160009054906101000a900473ffffffffffffffffffffffffffffffffffffffff1673ffffffffffffffffffffffffffffffffffffffff1663525f38be6040518163ffffffff1660e01b815260040160206040518083038186803b1580156116ba57600080fd5b505afa1580156116ce573d6000803e3d6000fd5b505050506040513d601f19601f820116820180604052508101906116f291906122cd565b10159050600081611704576004611707565b60035b9050600160009054906101000a900473ffffffffffffffffffffffffffffffffffffffff1673ffffffffffffffffffffffffffffffffffffffff166308314f998686846040518463ffffffff1660e01b81526004016117689392919061283b565b600060405180830381600087803b15801561178257600080fd5b505af1158015611796573d6000803e3d6000fd5b50505050809250505092915050565b6117ad611a4f565b73ffffffffffffffffffffffffffffffffffffffff166117cb610b0f565b73ffffffffffffffffffffffffffffffffffffffff1614611821576040517f08c379a000000000000000000000000000000000000000000000000000000000815260040161181890612ad4565b60405180910390fd5b600073ffffffffffffffffffffffffffffffffffffffff168173ffffffffffffffffffffffffffffffffffffffff161415611891576040517f08c379a0000000000000000000000000000000000000000000000000000000008152600401611888906129b4565b60405180910390fd5b61189a81611d82565b50565b600160009054906101000a900473ffffffffffffffffffffffffffffffffffffffff1673ffffffffffffffffffffffffffffffffffffffff1663eeecdd7b8484846040518463ffffffff1660e01b81526004016118fc93929190612879565b60206040518083038186803b15801561191457600080fd5b505afa158015611928573d6000803e3d6000fd5b505050506040513d601f19601f8201168201806040525081019061194c9190612244565b61195557600080fd5b600061196033611e4c565b905060008185858560405160200161197b949392919061279f565b6040516020818303038152906040528051906020012090506000600360008381526020019081526020016000209050338160000160006101000a81548173ffffffffffffffffffffffffffffffffffffffff021916908373ffffffffffffffffffffffffffffffffffffffff16021790555060018160000160146101000a81548160ff0219169083151502179055507f3ed01f2c3fc24c6b329d931e35b03e390d23497d22b3f90e15b600343e93df1183878787604051611a3f9493929190612b8f565b60405180910390a1505050505050565b600033905090565b611a5f610919565b611a9e576040517f08c379a0000000000000000000000000000000000000000000000000000000008152600401611a9590612974565b60405180910390fd5b60008060146101000a81548160ff0219169083151502179055507f5db9ee0a495bf2e6ff9c91a7834c1ba4fdd244a5e8aa4e537bd38aeae4b073aa611ae1611a4f565b604051611aee91906127e9565b60405180910390a1565b611b00610919565b15611b40576040517f08c379a0000000000000000000000000000000000000000000000000000000008152600401611b3790612a74565b60405180910390fd5b6001600060146101000a81548160ff0219169083151502179055507f62e78cea01bee320cd4e420270b5ea74000d11b0c9f74754ebdbfc544b05a258611b84611a4f565b604051611b9191906127e9565b60405180910390a1565b611ba3611fb2565b611bab611fb2565b611bb483611e4c565b81600060038110611bc857611bc7612ee2565b5b602002019060ff16908160ff168152505080600060038110611bed57611bec612ee2565b5b602002015181600160038110611c0657611c05612ee2565b5b602002019060ff16908160ff16815250505b80600060038110611c2c57611c2b612ee2565b5b602002015160ff1681600160038110611c4857611c47612ee2565b5b602002015160ff161415611c8957611c5f83611e4c565b81600160038110611c7357611c72612ee2565b5b602002019060ff16908160ff1681525050611c18565b80600160038110611c9d57611c9c612ee2565b5b602002015181600260038110611cb657611cb5612ee2565b5b602002019060ff16908160ff16815250505b80600060038110611cdc57611cdb612ee2565b5b602002015160ff1681600260038110611cf857611cf7612ee2565b5b602002015160ff161480611d41575080600160038110611d1b57611d1a612ee2565b5b602002015160ff1681600260038110611d3757611d36612ee2565b5b602002015160ff16145b15611d7957611d4f83611e4c565b81600260038110611d6357611d62612ee2565b5b602002019060ff16908160ff1681525050611cc8565b80915050919050565b60008060009054906101000a900473ffffffffffffffffffffffffffffffffffffffff169050816000806101000a81548173ffffffffffffffffffffffffffffffffffffffff021916908373ffffffffffffffffffffffffffffffffffffffff1602179055508173ffffffffffffffffffffffffffffffffffffffff168173ffffffffffffffffffffffffffffffffffffffff167f8be0079c531659141344cd1fd0a4f28419497f9722a3daafe3b4186f6b6457e060405160405180910390a35050565b50505050565b600080600a905060008160ff166001601481819054906101000a900460ff1680929190611e7890612db0565b91906101000a81548160ff021916908360ff16021790555060ff1643611e9e9190612c85565b4085604051602001611eb1929190612773565b6040516020818303038152906040528051906020012060001c611ed49190612e24565b905060fa600160149054906101000a900460ff1660ff161115611f0e576000600160146101000a81548160ff021916908360ff1602179055505b8092505050919050565b826003601f01602090048101928215611fa15791602002820160005b83821115611f7257835183826101000a81548160ff021916908360ff1602179055509260200192600101602081600001049283019260010302611f34565b8015611f9f5782816101000a81549060ff0219169055600101602081600001049283019260010302611f72565b505b509050611fae9190611fd4565b5090565b6040518060600160405280600390602082028036833780820191505090505090565b5b80821115611fed576000816000905550600101611fd5565b5090565b6000612004611fff84612c00565b612bdb565b9050828152602081018484840111156120205761201f612f45565b5b61202b848285612d3d565b509392505050565b600081359050612042816133ee565b92915050565b60008135905061205781613405565b92915050565b60008151905061206c81613405565b92915050565b600082601f83011261208757612086612f40565b5b8135612097848260208601611ff1565b91505092915050565b6000813590506120af8161341c565b92915050565b6000815190506120c48161341c565b92915050565b6000813590506120d981613433565b92915050565b6000602082840312156120f5576120f4612f4f565b5b600061210384828501612033565b91505092915050565b6000806040838503121561212357612122612f4f565b5b600061213185828601612033565b925050602061214285828601612048565b9150509250929050565b6000806040838503121561216357612162612f4f565b5b600061217185828601612033565b925050602083013567ffffffffffffffff81111561219257612191612f4a565b5b61219e85828601612072565b9150509250929050565b6000806000606084860312156121c1576121c0612f4f565b5b60006121cf86828701612033565b935050602084013567ffffffffffffffff8111156121f0576121ef612f4a565b5b6121fc86828701612072565b925050604061220d868287016120a0565b9150509250925092565b60006020828403121561222d5761222c612f4f565b5b600061223b84828501612048565b91505092915050565b60006020828403121561225a57612259612f4f565b5b60006122688482850161205d565b91505092915050565b6000806040838503121561228857612287612f4f565b5b600083013567ffffffffffffffff8111156122a6576122a5612f4a565b5b6122b285828601612072565b92505060206122c3858286016120a0565b9150509250929050565b6000602082840312156122e3576122e2612f4f565b5b60006122f1848285016120b5565b91505092915050565b600080600080600060a0868803121561231657612315612f4f565b5b6000612324888289016120ca565b955050602061233588828901612033565b945050604086013567ffffffffffffffff81111561235657612355612f4a565b5b61236288828901612072565b9350506060612373888289016120a0565b9250506080612384888289016120ca565b9150509295509295909350565b600061239d838361273e565b60208301905092915050565b6123b281612cb9565b82525050565b6123c96123c482612cb9565b612dda565b82525050565b6123d881612c3b565b6123e28184612c5e565b92506123ed82612c31565b8060005b8381101561241e5781516124058782612391565b965061241083612c51565b9250506001810190506123f1565b505050505050565b61242f81612ccb565b82525050565b61244661244182612cd7565b612dec565b82525050565b61245581612d2b565b82525050565b600061246682612c46565b6124708185612c69565b9350612480818560208601612d4c565b61248981612f54565b840191505092915050565b600061249f82612c46565b6124a98185612c7a565b93506124b9818560208601612d4c565b80840191505092915050565b60006124d2602f83612c69565b91506124dd82612f7f565b604082019050919050565b60006124f5601483612c69565b915061250082612fce565b602082019050919050565b6000612518601d83612c69565b915061252382612ff7565b602082019050919050565b600061253b602683612c69565b915061254682613020565b604082019050919050565b600061255e601f83612c69565b91506125698261306f565b602082019050919050565b6000612581603483612c69565b915061258c82613098565b604082019050919050565b60006125a4604d83612c69565b91506125af826130e7565b606082019050919050565b60006125c7602983612c69565b91506125d28261315c565b604082019050919050565b60006125ea603983612c69565b91506125f5826131ab565b604082019050919050565b600061260d601083612c69565b9150612618826131fa565b602082019050919050565b6000612630603983612c69565b915061263b82613223565b604082019050919050565b6000612653601b83612c69565b915061265e82613272565b602082019050919050565b6000612676602083612c69565b91506126818261329b565b602082019050919050565b6000612699602983612c69565b91506126a4826132c4565b604082019050919050565b60006126bc602983612c69565b91506126c782613313565b604082019050919050565b60006126df601c83612c69565b91506126ea82613362565b602082019050919050565b6000612702602383612c69565b915061270d8261338b565b604082019050919050565b61272181612d14565b82525050565b61273861273382612d14565b612e08565b82525050565b61274781612d1e565b82525050565b61275681612d1e565b82525050565b61276d61276882612d1e565b612e12565b82525050565b600061277f8285612435565b60208201915061278f82846123b8565b6014820191508190509392505050565b60006127ab828761275c565b6001820191506127bb82866123b8565b6014820191506127cb8285612494565b91506127d78284612727565b60208201915081905095945050505050565b60006020820190506127fe60008301846123a9565b92915050565b600060608201905061281960008301866123a9565b61282660208301856123a9565b6128336040830184612426565b949350505050565b600060608201905061285060008301866123a9565b8181036020830152612862818561245b565b9050612871604083018461244c565b949350505050565b600060608201905061288e60008301866123a9565b81810360208301526128a0818561245b565b90506128af6040830184612718565b949350505050565b60006080820190506128cc60008301876123a9565b81810360208301526128de818661245b565b90506128ed6040830185612718565b6128fa606083018461274d565b95945050505050565b600060608201905061291860008301846123cf565b92915050565b60006020820190506129336000830184612426565b92915050565b600060208201905061294e600083018461244c565b92915050565b6000602082019050818103600083015261296d816124c5565b9050919050565b6000602082019050818103600083015261298d816124e8565b9050919050565b600060208201905081810360008301526129ad8161250b565b9050919050565b600060208201905081810360008301526129cd8161252e565b9050919050565b600060208201905081810360008301526129ed81612551565b9050919050565b60006020820190508181036000830152612a0d81612574565b9050919050565b60006020820190508181036000830152612a2d81612597565b9050919050565b60006020820190508181036000830152612a4d816125ba565b9050919050565b60006020820190508181036000830152612a6d816125dd565b9050919050565b60006020820190508181036000830152612a8d81612600565b9050919050565b60006020820190508181036000830152612aad81612623565b9050919050565b60006020820190508181036000830152612acd81612646565b9050919050565b60006020820190508181036000830152612aed81612669565b9050919050565b60006020820190508181036000830152612b0d8161268c565b9050919050565b60006020820190508181036000830152612b2d816126af565b9050919050565b60006020820190508181036000830152612b4d816126d2565b9050919050565b60006020820190508181036000830152612b6d816126f5565b9050919050565b6000602082019050612b896000830184612718565b92915050565b6000608082019050612ba4600083018761274d565b612bb160208301866123a9565b8181036040830152612bc3818561245b565b9050612bd26060830184612718565b95945050505050565b6000612be5612bf6565b9050612bf18282612d7f565b919050565b6000604051905090565b600067ffffffffffffffff821115612c1b57612c1a612f11565b5b612c2482612f54565b9050602081019050919050565b6000819050919050565b600060039050919050565b600081519050919050565b6000602082019050919050565b600081905092915050565b600082825260208201905092915050565b600081905092915050565b6000612c9082612d14565b9150612c9b83612d14565b925082821015612cae57612cad612e55565b5b828203905092915050565b6000612cc482612cf4565b9050919050565b60008115159050919050565b6000819050919050565b6000819050612cef826133da565b919050565b600073ffffffffffffffffffffffffffffffffffffffff82169050919050565b6000819050919050565b600060ff82169050919050565b6000612d3682612ce1565b9050919050565b82818337600083830152505050565b60005b83811015612d6a578082015181840152602081019050612d4f565b83811115612d79576000848401525b50505050565b612d8882612f54565b810181811067ffffffffffffffff82111715612da757612da6612f11565b5b80604052505050565b6000612dbb82612d1e565b915060ff821415612dcf57612dce612e55565b5b600182019050919050565b6000612de582612df6565b9050919050565b6000819050919050565b6000612e0182612f72565b9050919050565b6000819050919050565b6000612e1d82612f65565b9050919050565b6000612e2f82612d14565b9150612e3a83612d14565b925082612e4a57612e49612e84565b5b828206905092915050565b7f4e487b7100000000000000000000000000000000000000000000000000000000600052601160045260246000fd5b7f4e487b7100000000000000000000000000000000000000000000000000000000600052601260045260246000fd5b7f4e487b7100000000000000000000000000000000000000000000000000000000600052602160045260246000fd5b7f4e487b7100000000000000000000000000000000000000000000000000000000600052603260045260246000fd5b7f4e487b7100000000000000000000000000000000000000000000000000000000600052604160045260246000fd5b600080fd5b600080fd5b600080fd5b600080fd5b6000601f19601f8301169050919050565b60008160f81b9050919050565b60008160601b9050919050565b7f466c69676874206f722074696d657374616d7020646f206e6f74206d6174636860008201527f206f7261636c6520726571756573740000000000000000000000000000000000602082015250565b7f5061757361626c653a206e6f7420706175736564000000000000000000000000600082015250565b7f43616c6c6572206e6565647320746f20626520616e206169726c696e65000000600082015250565b7f4f776e61626c653a206e6577206f776e657220697320746865207a65726f206160008201527f6464726573730000000000000000000000000000000000000000000000000000602082015250565b7f43616e277420726567697374657220616e206169726c696e6520747769636500600082015250565b7f436f6e7472616374206e6565647320746f206265206f7065726174696f6e616c60008201527f20746f2073657420697420746f20706175736564000000000000000000000000602082015250565b7f4f6e6c7920636f6e7472616374206f776e657220616e642066756e646564206160008201527f69726c696e65732061726520616c6c6f77656420746f2072656769737465722060208201527f61206e6577206169726c696e6500000000000000000000000000000000000000604082015250565b7f436f6e7472616374206973206e6f74206f7065726174696f6e616c206174207460008201527f6865206d6f6d656e740000000000000000000000000000000000000000000000602082015250565b7f436f6e7472616374206e6565647320746f2062652070617573656420746f207360008201527f6574206974206261636b20746f206f7065726174696f6e616c00000000000000602082015250565b7f5061757361626c653a2070617573656400000000000000000000000000000000600082015250565b7f4f6e6c792066756e646564206169726c696e65732061726520616c6c6f77656460008201527f20746f20766f746520666f72206e6577206169726c696e657300000000000000602082015250565b7f4e6f74207265676973746572656420617320616e206f7261636c650000000000600082015250565b7f4f776e61626c653a2063616c6c6572206973206e6f7420746865206f776e6572600082015250565b7f6f6e6c792066756e646564206169726c696e65732063616e207265676973746560008201527f7220666c69676874730000000000000000000000000000000000000000000000602082015250565b7f4d7573742070617920656e6f7567682045544820746f2073657420757020746860008201527f652066756e64696e670000000000000000000000000000000000000000000000602082015250565b7f526567697374726174696f6e2066656520697320726571756972656400000000600082015250565b7f496e64657820646f6573206e6f74206d61746368206f7261636c65207265717560008201527f6573740000000000000000000000000000000000000000000000000000000000602082015250565b600681106133eb576133ea612eb3565b5b50565b6133f781612cb9565b811461340257600080fd5b50565b61340e81612ccb565b811461341957600080fd5b50565b61342581612d14565b811461343057600080fd5b50565b61343c81612d1e565b811461344757600080fd5b5056fea26469706673582212209281dcb180142bde7150fefddb792bf0c2148cb3c17518c10531e00d27a5840b64736f6c63430008060033",
  "immutableReferences": {},
  "source": "// SPDX-License-Identifier: UNLICENSED\n\npragma solidity ^0.8.6;\n\nimport \"@openzeppelin/contracts/access/Ownable.sol\";\nimport \"@openzeppelin/contracts/security/Pausable.sol\";\nimport \"@openzeppelin/contracts/utils/math/SafeMath.sol\";\nimport \"./FlightSuretyData.sol\";\n\ncontract FlightSuretyApp is Ownable, Pausable {\n\n    using SafeMath for uint256; // Allow SafeMath functions to be called for all uint256 types (similar to \"prototype\" in Javascript)\n\n    /********************************************************************************************/\n    /*                                       STRUCTS / ENUMS                                    */\n    /********************************************************************************************/\n\n    struct Oracle {\n        bool isRegistered;\n        uint8[3] indexes;\n    }\n\n    // Model for responses from oracles\n    struct ResponseInfo {\n        address requester;                              // Account that requested status\n        bool isOpen;                                    // If open, oracle responses are accepted\n        mapping(uint8 => address[]) responses;          // Mapping key is the status code reported\n        // This lets us group responses and identify\n        // the response that majority of the oracles\n    }\n\n    /********************************************************************************************/\n    /*                                       VARIABLES                                          */\n    /********************************************************************************************/\n\n    // Instance of the data smart contract\n    FlightSuretyData private dataContract;\n\n    // Incremented to add pseudo-randomness at various points\n    uint8 private nonce = 0;\n\n    // Track all registered oracles\n    mapping(address => Oracle) private oracles;\n\n    // Track all oracle responses\n    // Key = hash(index, flight, timestamp)\n    mapping(bytes32 => ResponseInfo) private oracleResponses;\n\n    /********************************************************************************************/\n    /*                                       CONSTANTS                                          */\n    /********************************************************************************************/\n\n    // Fee to be paid when registering oracle\n    uint256 public constant REGISTRATION_FEE = 1 ether;\n\n    // Number of oracles that must respond for valid status\n    uint256 private constant MIN_RESPONSES = 3;\n\n    // Number of airlines that can be registered without voting\n    uint256 private constant NO_NEED_APPROVAL = 4;\n\n    // Minimum ETH to set up funding by an airline\n    uint256 public constant MINIMUM_FUNDING = 10 ether;\n\n    /********************************************************************************************/\n    /*                                       EVENTS                                             */\n    /********************************************************************************************/\n\n    // Event fired each time an oracle submits a response\n    event FlightStatusInfo(address airline, string flight, uint256 timestamp, uint8 status);\n\n    event OracleReport(address airline, string flight, uint256 timestamp, uint8 status);\n\n    // Event fired when flight status request is submitted\n    // Oracles track this and if they have a matching index\n    // they fetch data and submit a response\n    event OracleRequest(uint8 index, address airline, string flight, uint256 timestamp);\n\n    /********************************************************************************************/\n    /*                                       FUNCTION MODIFIERS                                 */\n    /********************************************************************************************/\n\n    // Modifiers help avoid duplication of code. They are typically used to validate something\n    // before a function is allowed to be executed.\n    // All modifiers require an \"_\" which indicates where the function body will be added.\n\n    modifier requireIsOperational() {\n        require(isOperational(), \"Contract is not operational at the moment\");\n        _;\n    }\n\n    modifier requireIsAirline() {\n        require(dataContract.isAirline(msg.sender), \"Caller needs to be an airline\");\n        _;\n    }\n\n    modifier allowedToRegister() {\n        require(msg.sender == owner() || dataContract.isFunded(msg.sender), \"Only contract owner and funded airlines are allowed to register a new airline\");\n        _;\n    }\n\n    modifier eligibleToVote() {\n        require(dataContract.isFunded(msg.sender), \"Only funded airlines are allowed to vote for new airlines\");\n        _;\n    }\n\n    modifier enoughForFunding() {\n        require(msg.value >= MINIMUM_FUNDING, \"Must pay enough ETH to set up the funding\");\n        _;\n    }\n\n    /********************************************************************************************/\n    /*                                       CONSTRUCTOR                                        */\n    /********************************************************************************************/\n\n    /**\n    * @dev Contract constructor\n    *\n    */\n    constructor(address dataContractAdr)\n    {\n        dataContract = FlightSuretyData(dataContractAdr);\n    }\n\n    /********************************************************************************************/\n    /*                                       ADMIN FUNCTIONS                                    */\n    /********************************************************************************************/\n\n    function setOperatingStatus(bool operational)\n        public\n        onlyOwner()\n    {\n        if (operational) {\n            require(paused(), \"Contract needs to be paused to set it back to operational\");\n            _unpause();\n        } else {\n            require(!paused(), \"Contract needs to be operational to set it to paused\");\n            _pause();\n        }\n    }\n\n    function isOperational()\n        public\n        view\n        returns (bool)\n    {\n        return !paused() && !dataContract.paused();\n    }\n\n    function setTestingMode(bool active)\n        public\n        onlyOwner()\n        requireIsOperational()\n    {\n\n    }\n\n    /********************************************************************************************/\n    /*                                       UTILITY FUNCTIONS                                  */\n    /********************************************************************************************/\n\n    function getFlightKey(\n        address airline,\n        string memory flight,\n        uint256 timestamp\n    )\n        pure\n        internal\n        returns (bytes32)\n    {\n        return keccak256(abi.encodePacked(airline, flight, timestamp));\n    }\n\n    // Returns array of three non-duplicating integers from 0-9\n    function generateIndexes(address account)\n        internal\n        returns (uint8[3] memory)\n    {\n        uint8[3] memory indexes;\n        indexes[0] = getRandomIndex(account);\n\n        indexes[1] = indexes[0];\n        while (indexes[1] == indexes[0]) {\n            indexes[1] = getRandomIndex(account);\n        }\n\n        indexes[2] = indexes[1];\n        while ((indexes[2] == indexes[0]) || (indexes[2] == indexes[1])) {\n            indexes[2] = getRandomIndex(account);\n        }\n\n        return indexes;\n    }\n\n    // Returns array of three non-duplicating integers from 0-9\n    function getRandomIndex(address account)\n        internal\n        returns (uint8)\n    {\n        uint8 maxValue = 10;\n        // Pseudo random number...the incrementing nonce adds variation\n        uint8 random = uint8(uint256(keccak256(abi.encodePacked(blockhash(block.number - nonce++), account))) % maxValue);\n        if (nonce > 250) nonce = 0;\n        return random;\n    }\n\n    /********************************************************************************************/\n    /*                                     SMART CONTRACT FUNCTIONS                             */\n    /********************************************************************************************/\n\n    // region AIRLINES AND FLIGHTS\n\n    /**\n     * @dev Add an airline to the registration queue\n     *\n     */\n    function registerAirline(address adr, string memory name)\n        external\n        allowedToRegister()\n        returns (FlightSuretyData.State)\n    {\n        require(!dataContract.isAirline(adr), \"Can't register an airline twice\");\n        bool needsApproval = dataContract.approvedAirlinesCount() >= NO_NEED_APPROVAL;\n        FlightSuretyData.State state = needsApproval ? FlightSuretyData.State.Queued : FlightSuretyData.State.Approved;\n        dataContract.registerAirline(adr, name, state);\n        return state;\n    }\n\n    /**\n     * @dev Initial funding for the insurance. Unless there are too many delayed flights\n     *      resulting in insurance payouts, the contract should be self-sustaining\n     *\n     */\n    function fund()\n        public\n        payable\n        requireIsOperational()\n        requireIsAirline()\n        enoughForFunding()\n    {\n        dataContract.fund(msg.sender);\n    }\n\n    function vote(address airlineAdr, bool approve)\n        public\n        requireIsOperational()\n        requireIsAirline()\n        eligibleToVote()\n    {\n        dataContract.vote(msg.sender, airlineAdr, approve);\n    }\n\n    /**\n     * @dev Register a future flight for insuring\n     *\n     */\n    function registerFlight(string memory flight, uint256 timestamp)\n        public\n        requireIsOperational()\n        requireIsAirline()\n    {\n        require(dataContract.isFunded(msg.sender), \"only funded airlines can register flights\");\n        dataContract.registerFlight(msg.sender, flight, timestamp);\n    }\n\n    /**\n     * @dev Called after oracle has updated flight status\n     *\n     */\n    function processFlightStatus\n    (\n        address airline,\n        string memory flight,\n        uint256 timestamp,\n        uint8 statusCode\n    )\n    internal\n    pure\n    {\n\n    }\n\n    // Generate a request for oracles to fetch flight information\n    function fetchFlightStatus\n    (\n        address airline,\n        string memory flight,\n        uint256 timestamp\n    )\n    external\n    {\n        require(dataContract.isRegisteredFlight(airline, flight, timestamp));\n\n        uint8 index = getRandomIndex(msg.sender);\n\n        // Generate a unique key for storing the request\n        bytes32 key = keccak256(abi.encodePacked(index, airline, flight, timestamp));\n\n        ResponseInfo storage responseInfo = oracleResponses[key];\n        responseInfo.requester = msg.sender;\n        responseInfo.isOpen = true;\n\n        emit OracleRequest(index, airline, flight, timestamp);\n    }\n\n    // endregion\n\n    // region ORACLE MANAGEMENT\n\n    // Register an oracle with the contract\n    function registerOracle()\n        external\n        payable\n    {\n        // Require registration fee\n        require(msg.value >= REGISTRATION_FEE, \"Registration fee is required\");\n\n        uint8[3] memory indexes = generateIndexes(msg.sender);\n\n        oracles[msg.sender] = Oracle({\n            isRegistered: true,\n            indexes: indexes\n        });\n    }\n\n    // Get an oracle's three randomly generated indexes\n    function getMyIndexes()\n        view\n        external\n        returns (uint8[3] memory)\n    {\n        require(oracles[msg.sender].isRegistered, \"Not registered as an oracle\");\n        return oracles[msg.sender].indexes;\n    }\n\n    // Called by oracle when a response is available to an outstanding request.\n    // For the response to be accepted, there must be a pending request that is open\n    // and matches one of the three indexes randomly assigned to the oracle at the\n    // time of registration (i.e. uninvited oracles are not welcome).\n    function submitOracleResponse\n    (\n        uint8 index,\n        address airline,\n        string memory flight,\n        uint256 timestamp,\n        uint8 statusCode\n    )\n    external\n    {\n        require((oracles[msg.sender].indexes[0] == index) || (oracles[msg.sender].indexes[1] == index) || (oracles[msg.sender].indexes[2] == index), \"Index does not match oracle request\");\n\n        bytes32 key = keccak256(abi.encodePacked(index, airline, flight, timestamp));\n        require(oracleResponses[key].isOpen, \"Flight or timestamp do not match oracle request\");\n\n        oracleResponses[key].responses[statusCode].push(msg.sender);\n\n        // Information isn't considered verified until at least MIN_RESPONSES\n        // oracles respond with the *** same *** information\n        emit OracleReport(airline, flight, timestamp, statusCode);\n        if (oracleResponses[key].responses[statusCode].length >= MIN_RESPONSES) {\n\n            emit FlightStatusInfo(airline, flight, timestamp, statusCode);\n\n            // Handle flight status as appropriate\n            processFlightStatus(airline, flight, timestamp, statusCode);\n        }\n    }\n\n    // endregion\n\n    /********************************************************************************************/\n    /*                                       FALLBACK FUNCTIONS                                 */\n    /********************************************************************************************/\n\n    //    fallback()\n    //        external\n    //        payable\n    //    {\n    //        // TODO: check if sender is an airline\n    //        // fund();\n    //    }\n    //\n    //    receive()\n    //        external\n    //        payable\n    //    {\n    //        // TODO: check if sender is an airline\n    //        // fund();\n    //    }\n}   \n",
  "sourcePath": "/home/julian/Development/blockchain/14-FlightSurety/contracts/FlightSuretyApp.sol",
  "compiler": {
    "name": "solc",
    "version": "0.8.6+commit.11564f7e.Emscripten.clang"
  },
  "schemaVersion": "3.4.1",
  "updatedAt": "2021-07-13T15:55:37.883Z",
  "networkType": "ethereum",
  "devdoc": {
    "kind": "dev",
    "methods": {
      "constructor": {
        "details": "Contract constructor"
      },
      "fund()": {
        "details": "Initial funding for the insurance. Unless there are too many delayed flights      resulting in insurance payouts, the contract should be self-sustaining"
      },
      "owner()": {
        "details": "Returns the address of the current owner."
      },
      "paused()": {
        "details": "Returns true if the contract is paused, and false otherwise."
      },
      "registerAirline(address,string)": {
        "details": "Add an airline to the registration queue"
      },
      "registerFlight(string,uint256)": {
        "details": "Register a future flight for insuring"
      },
      "renounceOwnership()": {
        "details": "Leaves the contract without owner. It will not be possible to call `onlyOwner` functions anymore. Can only be called by the current owner. NOTE: Renouncing ownership will leave the contract without an owner, thereby removing any functionality that is only available to the owner."
      },
      "transferOwnership(address)": {
        "details": "Transfers ownership of the contract to a new account (`newOwner`). Can only be called by the current owner."
      }
    },
    "version": 1
  },
  "userdoc": {
    "kind": "user",
    "methods": {},
    "version": 1
  }
}