{
  "contractName": "FlightSuretyApp",
  "abi": [
    {
      "inputs": [
        {
          "internalType": "address",
          "name": "dataContractAdr",
          "type": "address"
        }
      ],
      "stateMutability": "nonpayable",
      "type": "constructor"
    },
    {
      "anonymous": false,
      "inputs": [
        {
          "indexed": false,
          "internalType": "address",
          "name": "airline",
          "type": "address"
        },
        {
          "indexed": false,
          "internalType": "string",
          "name": "flight",
          "type": "string"
        },
        {
          "indexed": false,
          "internalType": "uint256",
          "name": "timestamp",
          "type": "uint256"
        },
        {
          "indexed": false,
          "internalType": "uint8",
          "name": "status",
          "type": "uint8"
        }
      ],
      "name": "FlightStatusInfo",
      "type": "event"
    },
    {
      "anonymous": false,
      "inputs": [
        {
          "indexed": false,
          "internalType": "address",
          "name": "airline",
          "type": "address"
        },
        {
          "indexed": false,
          "internalType": "string",
          "name": "flight",
          "type": "string"
        },
        {
          "indexed": false,
          "internalType": "uint256",
          "name": "timestamp",
          "type": "uint256"
        },
        {
          "indexed": false,
          "internalType": "uint8",
          "name": "status",
          "type": "uint8"
        }
      ],
      "name": "OracleReport",
      "type": "event"
    },
    {
      "anonymous": false,
      "inputs": [
        {
          "indexed": false,
          "internalType": "uint8",
          "name": "index",
          "type": "uint8"
        },
        {
          "indexed": false,
          "internalType": "address",
          "name": "airline",
          "type": "address"
        },
        {
          "indexed": false,
          "internalType": "string",
          "name": "flight",
          "type": "string"
        },
        {
          "indexed": false,
          "internalType": "uint256",
          "name": "timestamp",
          "type": "uint256"
        }
      ],
      "name": "OracleRequest",
      "type": "event"
    },
    {
      "anonymous": false,
      "inputs": [
        {
          "indexed": true,
          "internalType": "address",
          "name": "previousOwner",
          "type": "address"
        },
        {
          "indexed": true,
          "internalType": "address",
          "name": "newOwner",
          "type": "address"
        }
      ],
      "name": "OwnershipTransferred",
      "type": "event"
    },
    {
      "anonymous": false,
      "inputs": [
        {
          "indexed": false,
          "internalType": "address",
          "name": "account",
          "type": "address"
        }
      ],
      "name": "Paused",
      "type": "event"
    },
    {
      "anonymous": false,
      "inputs": [
        {
          "indexed": false,
          "internalType": "address",
          "name": "account",
          "type": "address"
        }
      ],
      "name": "Unpaused",
      "type": "event"
    },
    {
      "inputs": [],
      "name": "MINIMUM_FUNDING",
      "outputs": [
        {
          "internalType": "uint256",
          "name": "",
          "type": "uint256"
        }
      ],
      "stateMutability": "view",
      "type": "function",
      "constant": true
    },
    {
      "inputs": [],
      "name": "REGISTRATION_FEE",
      "outputs": [
        {
          "internalType": "uint256",
          "name": "",
          "type": "uint256"
        }
      ],
      "stateMutability": "view",
      "type": "function",
      "constant": true
    },
    {
      "inputs": [],
      "name": "owner",
      "outputs": [
        {
          "internalType": "address",
          "name": "",
          "type": "address"
        }
      ],
      "stateMutability": "view",
      "type": "function",
      "constant": true
    },
    {
      "inputs": [],
      "name": "paused",
      "outputs": [
        {
          "internalType": "bool",
          "name": "",
          "type": "bool"
        }
      ],
      "stateMutability": "view",
      "type": "function",
      "constant": true
    },
    {
      "inputs": [],
      "name": "renounceOwnership",
      "outputs": [],
      "stateMutability": "nonpayable",
      "type": "function"
    },
    {
      "inputs": [
        {
          "internalType": "address",
          "name": "newOwner",
          "type": "address"
        }
      ],
      "name": "transferOwnership",
      "outputs": [],
      "stateMutability": "nonpayable",
      "type": "function"
    },
    {
      "inputs": [
        {
          "internalType": "bool",
          "name": "operational",
          "type": "bool"
        }
      ],
      "name": "setOperatingStatus",
      "outputs": [],
      "stateMutability": "nonpayable",
      "type": "function"
    },
    {
      "inputs": [],
      "name": "isOperational",
      "outputs": [
        {
          "internalType": "bool",
          "name": "",
          "type": "bool"
        }
      ],
      "stateMutability": "view",
      "type": "function",
      "constant": true
    },
    {
      "inputs": [
        {
          "internalType": "bool",
          "name": "active",
          "type": "bool"
        }
      ],
      "name": "setTestingMode",
      "outputs": [],
      "stateMutability": "nonpayable",
      "type": "function"
    },
    {
      "inputs": [
        {
          "internalType": "address",
          "name": "adr",
          "type": "address"
        },
        {
          "internalType": "string",
          "name": "name",
          "type": "string"
        }
      ],
      "name": "registerAirline",
      "outputs": [
        {
          "internalType": "enum FlightSuretyData.State",
          "name": "",
          "type": "uint8"
        }
      ],
      "stateMutability": "nonpayable",
      "type": "function"
    },
    {
      "inputs": [],
      "name": "fund",
      "outputs": [],
      "stateMutability": "payable",
      "type": "function",
      "payable": true
    },
    {
      "inputs": [
        {
          "internalType": "address",
          "name": "airlineAdr",
          "type": "address"
        },
        {
          "internalType": "bool",
          "name": "approve",
          "type": "bool"
        }
      ],
      "name": "vote",
      "outputs": [],
      "stateMutability": "nonpayable",
      "type": "function"
    },
    {
      "inputs": [],
      "name": "registerFlight",
      "outputs": [],
      "stateMutability": "pure",
      "type": "function",
      "constant": true
    },
    {
      "inputs": [
        {
          "internalType": "address",
          "name": "airline",
          "type": "address"
        },
        {
          "internalType": "string",
          "name": "flight",
          "type": "string"
        },
        {
          "internalType": "uint256",
          "name": "timestamp",
          "type": "uint256"
        }
      ],
      "name": "fetchFlightStatus",
      "outputs": [],
      "stateMutability": "nonpayable",
      "type": "function"
    },
    {
      "inputs": [],
      "name": "registerOracle",
      "outputs": [],
      "stateMutability": "payable",
      "type": "function",
      "payable": true
    },
    {
      "inputs": [],
      "name": "getMyIndexes",
      "outputs": [
        {
          "internalType": "uint8[3]",
          "name": "",
          "type": "uint8[3]"
        }
      ],
      "stateMutability": "view",
      "type": "function",
      "constant": true
    },
    {
      "inputs": [
        {
          "internalType": "uint8",
          "name": "index",
          "type": "uint8"
        },
        {
          "internalType": "address",
          "name": "airline",
          "type": "address"
        },
        {
          "internalType": "string",
          "name": "flight",
          "type": "string"
        },
        {
          "internalType": "uint256",
          "name": "timestamp",
          "type": "uint256"
        },
        {
          "internalType": "uint8",
          "name": "statusCode",
          "type": "uint8"
        }
      ],
      "name": "submitOracleResponse",
      "outputs": [],
      "stateMutability": "nonpayable",
      "type": "function"
    }
  ],
  "bytecode": "0x60806040526000600160146101000a81548160ff021916908360ff1602179055503480156200002d57600080fd5b5060405162002f5b38038062002f5b8339818101604052810190620000539190620001b8565b6200007362000067620000d560201b60201c565b620000dd60201b60201c565b60008060146101000a81548160ff02191690831515021790555080600160006101000a81548173ffffffffffffffffffffffffffffffffffffffff021916908373ffffffffffffffffffffffffffffffffffffffff160217905550506200023d565b600033905090565b60008060009054906101000a900473ffffffffffffffffffffffffffffffffffffffff169050816000806101000a81548173ffffffffffffffffffffffffffffffffffffffff021916908373ffffffffffffffffffffffffffffffffffffffff1602179055508173ffffffffffffffffffffffffffffffffffffffff168173ffffffffffffffffffffffffffffffffffffffff167f8be0079c531659141344cd1fd0a4f28419497f9722a3daafe3b4186f6b6457e060405160405180910390a35050565b600081519050620001b28162000223565b92915050565b600060208284031215620001d157620001d06200021e565b5b6000620001e184828501620001a1565b91505092915050565b6000620001f782620001fe565b9050919050565b600073ffffffffffffffffffffffffffffffffffffffff82169050919050565b600080fd5b6200022e81620001ea565b81146200023a57600080fd5b50565b612d0e806200024d6000396000f3fe6080604052600436106100fe5760003560e01c80638da5cb5b11610095578063c10f270011610064578063c10f270014610297578063cd905dff146102c0578063ee38a749146102eb578063f2fde38b14610328578063f83f11c014610351576100fe565b80638da5cb5b14610222578063ae6f17e01461024d578063b60d428814610264578063bd041c4d1461026e576100fe565b80635f1cc0e6116100d15780635f1cc0e61461018a57806364b4f751146101b557806368e7a261146101e0578063715018a61461020b576100fe565b8063110466ed14610103578063339d25901461012c578063596d7a68146101365780635c975abb1461015f575b600080fd5b34801561010f57600080fd5b5061012a60048036038101906101259190611c3d565b61037a565b005b6101346104a4565b005b34801561014257600080fd5b5061015d60048036038101906101589190611c3d565b610591565b005b34801561016b57600080fd5b50610174610657565b6040516101819190612264565b60405180910390f35b34801561019657600080fd5b5061019f61066d565b6040516101ac9190612249565b60405180910390f35b3480156101c157600080fd5b506101ca6107ad565b6040516101d7919061247a565b60405180910390f35b3480156101ec57600080fd5b506101f56107b9565b604051610202919061247a565b60405180910390f35b34801561021757600080fd5b506102206107c5565b005b34801561022e57600080fd5b5061023761084d565b604051610244919061216d565b60405180910390f35b34801561025957600080fd5b50610262610876565b005b61026c610878565b005b34801561027a57600080fd5b5061029560048036038101906102909190611b32565b610952565b005b3480156102a357600080fd5b506102be60048036038101906102b99190611cc4565b610ad1565b005b3480156102cc57600080fd5b506102d5610e5f565b6040516102e29190612264565b60405180910390f35b3480156102f757600080fd5b50610312600480360381019061030d9190611b72565b610f18565b60405161031f919061227f565b60405180910390f35b34801561033457600080fd5b5061034f600480360381019061034a9190611b05565b611283565b005b34801561035d57600080fd5b5061037860048036038101906103739190611bce565b61137b565b005b610382611475565b73ffffffffffffffffffffffffffffffffffffffff166103a061084d565b73ffffffffffffffffffffffffffffffffffffffff16146103f6576040517f08c379a00000000000000000000000000000000000000000000000000000000081526004016103ed906123fa565b60405180910390fd5b801561045057610404610657565b610443576040517f08c379a000000000000000000000000000000000000000000000000000000000815260040161043a9061237a565b60405180910390fd5b61044b61147d565b6104a1565b610458610657565b15610498576040517f08c379a000000000000000000000000000000000000000000000000000000000815260040161048f9061231a565b60405180910390fd5b6104a061151e565b5b50565b670de0b6b3a76400003410156104ef576040517f08c379a00000000000000000000000000000000000000000000000000000000081526004016104e69061243a565b60405180910390fd5b60006104fa336115c1565b9050604051806040016040528060011515815260200182815250600260003373ffffffffffffffffffffffffffffffffffffffff1673ffffffffffffffffffffffffffffffffffffffff16815260200190815260200160002060008201518160000160006101000a81548160ff02191690831515021790555060208201518160010190600361058a92919061193e565b5090505050565b610599611475565b73ffffffffffffffffffffffffffffffffffffffff166105b761084d565b73ffffffffffffffffffffffffffffffffffffffff161461060d576040517f08c379a0000000000000000000000000000000000000000000000000000000008152600401610604906123fa565b60405180910390fd5b610615610e5f565b610654576040517f08c379a000000000000000000000000000000000000000000000000000000000815260040161064b9061235a565b60405180910390fd5b50565b60008060149054906101000a900460ff16905090565b6106756119d8565b600260003373ffffffffffffffffffffffffffffffffffffffff1673ffffffffffffffffffffffffffffffffffffffff16815260200190815260200160002060000160009054906101000a900460ff16610704576040517f08c379a00000000000000000000000000000000000000000000000000000000081526004016106fb906123da565b60405180910390fd5b600260003373ffffffffffffffffffffffffffffffffffffffff1673ffffffffffffffffffffffffffffffffffffffff1681526020019081526020016000206001016003806020026040519081016040528092919082600380156107a3576020028201916000905b82829054906101000a900460ff1660ff168152602001906001019060208260000104928301926001038202915080841161076c5790505b5050505050905090565b670de0b6b3a764000081565b678ac7230489e8000081565b6107cd611475565b73ffffffffffffffffffffffffffffffffffffffff166107eb61084d565b73ffffffffffffffffffffffffffffffffffffffff1614610841576040517f08c379a0000000000000000000000000000000000000000000000000000000008152600401610838906123fa565b60405180910390fd5b61084b60006117a8565b565b60008060009054906101000a900473ffffffffffffffffffffffffffffffffffffffff16905090565b565b678ac7230489e800003410156108c3576040517f08c379a00000000000000000000000000000000000000000000000000000000081526004016108ba9061241a565b60405180910390fd5b600160009054906101000a900473ffffffffffffffffffffffffffffffffffffffff1673ffffffffffffffffffffffffffffffffffffffff166323024408336040518263ffffffff1660e01b815260040161091e919061216d565b600060405180830381600087803b15801561093857600080fd5b505af115801561094c573d6000803e3d6000fd5b50505050565b600160009054906101000a900473ffffffffffffffffffffffffffffffffffffffff1673ffffffffffffffffffffffffffffffffffffffff16635689b249336040518263ffffffff1660e01b81526004016109ad919061216d565b60206040518083038186803b1580156109c557600080fd5b505afa1580156109d9573d6000803e3d6000fd5b505050506040513d601f19601f820116820180604052508101906109fd9190611c6a565b610a3c576040517f08c379a0000000000000000000000000000000000000000000000000000000008152600401610a33906123ba565b60405180910390fd5b600160009054906101000a900473ffffffffffffffffffffffffffffffffffffffff1673ffffffffffffffffffffffffffffffffffffffff1663128d87113384846040518463ffffffff1660e01b8152600401610a9b93929190612188565b600060405180830381600087803b158015610ab557600080fd5b505af1158015610ac9573d6000803e3d6000fd5b505050505050565b8460ff16600260003373ffffffffffffffffffffffffffffffffffffffff1673ffffffffffffffffffffffffffffffffffffffff168152602001908152602001600020600101600060038110610b2a57610b296127e8565b5b602091828204019190069054906101000a900460ff1660ff161480610bbe57508460ff16600260003373ffffffffffffffffffffffffffffffffffffffff1673ffffffffffffffffffffffffffffffffffffffff168152602001908152602001600020600101600160038110610ba357610ba26127e8565b5b602091828204019190069054906101000a900460ff1660ff16145b80610c3857508460ff16600260003373ffffffffffffffffffffffffffffffffffffffff1673ffffffffffffffffffffffffffffffffffffffff168152602001908152602001600020600101600260038110610c1d57610c1c6127e8565b5b602091828204019190069054906101000a900460ff1660ff16145b610c77576040517f08c379a0000000000000000000000000000000000000000000000000000000008152600401610c6e9061245a565b60405180910390fd5b600085858585604051602001610c909493929190612123565b6040516020818303038152906040528051906020012090506003600082815260200190815260200160002060000160149054906101000a900460ff16610d0b576040517f08c379a0000000000000000000000000000000000000000000000000000000008152600401610d029061229a565b60405180910390fd5b6003600082815260200190815260200160002060010160008360ff1660ff168152602001908152602001600020339080600181540180825580915050600190039060005260206000200160009091909190916101000a81548173ffffffffffffffffffffffffffffffffffffffff021916908373ffffffffffffffffffffffffffffffffffffffff1602179055507f43c853095c2752648493c88b4baac4d580d2594ffb00c6f1d4242d844514f78385858585604051610dce94939291906121fd565b60405180910390a1600380600083815260200190815260200160002060010160008460ff1660ff1681526020019081526020016000208054905010610e57577fe23f5229de535c091e3b7bec2665f5d698192d3b31393066e8987b7a05076b6c85858585604051610e4294939291906121fd565b60405180910390a1610e568585858561186c565b5b505050505050565b6000610e69610657565b158015610f135750600160009054906101000a900473ffffffffffffffffffffffffffffffffffffffff1673ffffffffffffffffffffffffffffffffffffffff16635c975abb6040518163ffffffff1660e01b815260040160206040518083038186803b158015610ed957600080fd5b505afa158015610eed573d6000803e3d6000fd5b505050506040513d601f19601f82011682018060405250810190610f119190611c6a565b155b905090565b6000610f2261084d565b73ffffffffffffffffffffffffffffffffffffffff163373ffffffffffffffffffffffffffffffffffffffff1614806110025750600160009054906101000a900473ffffffffffffffffffffffffffffffffffffffff1673ffffffffffffffffffffffffffffffffffffffff16635689b249336040518263ffffffff1660e01b8152600401610fb1919061216d565b60206040518083038186803b158015610fc957600080fd5b505afa158015610fdd573d6000803e3d6000fd5b505050506040513d601f19601f820116820180604052508101906110019190611c6a565b5b611041576040517f08c379a00000000000000000000000000000000000000000000000000000000081526004016110389061233a565b60405180910390fd5b600160009054906101000a900473ffffffffffffffffffffffffffffffffffffffff1673ffffffffffffffffffffffffffffffffffffffff16630e248a11846040518263ffffffff1660e01b815260040161109c919061216d565b60206040518083038186803b1580156110b457600080fd5b505afa1580156110c8573d6000803e3d6000fd5b505050506040513d601f19601f820116820180604052508101906110ec9190611c6a565b1561112c576040517f08c379a0000000000000000000000000000000000000000000000000000000008152600401611123906122fa565b60405180910390fd5b60006004600160009054906101000a900473ffffffffffffffffffffffffffffffffffffffff1673ffffffffffffffffffffffffffffffffffffffff1663525f38be6040518163ffffffff1660e01b815260040160206040518083038186803b15801561119857600080fd5b505afa1580156111ac573d6000803e3d6000fd5b505050506040513d601f19601f820116820180604052508101906111d09190611c97565b101590506000816111e25760046111e5565b60035b9050600160009054906101000a900473ffffffffffffffffffffffffffffffffffffffff1673ffffffffffffffffffffffffffffffffffffffff16639afd3f078686846040518463ffffffff1660e01b8152600401611246939291906121bf565b600060405180830381600087803b15801561126057600080fd5b505af1158015611274573d6000803e3d6000fd5b50505050809250505092915050565b61128b611475565b73ffffffffffffffffffffffffffffffffffffffff166112a961084d565b73ffffffffffffffffffffffffffffffffffffffff16146112ff576040517f08c379a00000000000000000000000000000000000000000000000000000000081526004016112f6906123fa565b60405180910390fd5b600073ffffffffffffffffffffffffffffffffffffffff168173ffffffffffffffffffffffffffffffffffffffff16141561136f576040517f08c379a0000000000000000000000000000000000000000000000000000000008152600401611366906122da565b60405180910390fd5b611378816117a8565b50565b600061138633611872565b90506000818585856040516020016113a19493929190612123565b6040516020818303038152906040528051906020012090506000600360008381526020019081526020016000209050338160000160006101000a81548173ffffffffffffffffffffffffffffffffffffffff021916908373ffffffffffffffffffffffffffffffffffffffff16021790555060018160000160146101000a81548160ff0219169083151502179055507f3ed01f2c3fc24c6b329d931e35b03e390d23497d22b3f90e15b600343e93df11838787876040516114659493929190612495565b60405180910390a1505050505050565b600033905090565b611485610657565b6114c4576040517f08c379a00000000000000000000000000000000000000000000000000000000081526004016114bb906122ba565b60405180910390fd5b60008060146101000a81548160ff0219169083151502179055507f5db9ee0a495bf2e6ff9c91a7834c1ba4fdd244a5e8aa4e537bd38aeae4b073aa611507611475565b604051611514919061216d565b60405180910390a1565b611526610657565b15611566576040517f08c379a000000000000000000000000000000000000000000000000000000000815260040161155d9061239a565b60405180910390fd5b6001600060146101000a81548160ff0219169083151502179055507f62e78cea01bee320cd4e420270b5ea74000d11b0c9f74754ebdbfc544b05a2586115aa611475565b6040516115b7919061216d565b60405180910390a1565b6115c96119d8565b6115d16119d8565b6115da83611872565b816000600381106115ee576115ed6127e8565b5b602002019060ff16908160ff168152505080600060038110611613576116126127e8565b5b60200201518160016003811061162c5761162b6127e8565b5b602002019060ff16908160ff16815250505b80600060038110611652576116516127e8565b5b602002015160ff168160016003811061166e5761166d6127e8565b5b602002015160ff1614156116af5761168583611872565b81600160038110611699576116986127e8565b5b602002019060ff16908160ff168152505061163e565b806001600381106116c3576116c26127e8565b5b6020020151816002600381106116dc576116db6127e8565b5b602002019060ff16908160ff16815250505b80600060038110611702576117016127e8565b5b602002015160ff168160026003811061171e5761171d6127e8565b5b602002015160ff161480611767575080600160038110611741576117406127e8565b5b602002015160ff168160026003811061175d5761175c6127e8565b5b602002015160ff16145b1561179f5761177583611872565b81600260038110611789576117886127e8565b5b602002019060ff16908160ff16815250506116ee565b80915050919050565b60008060009054906101000a900473ffffffffffffffffffffffffffffffffffffffff169050816000806101000a81548173ffffffffffffffffffffffffffffffffffffffff021916908373ffffffffffffffffffffffffffffffffffffffff1602179055508173ffffffffffffffffffffffffffffffffffffffff168173ffffffffffffffffffffffffffffffffffffffff167f8be0079c531659141344cd1fd0a4f28419497f9722a3daafe3b4186f6b6457e060405160405180910390a35050565b50505050565b600080600a905060008160ff166001601481819054906101000a900460ff168092919061189e906126b6565b91906101000a81548160ff021916908360ff16021790555060ff16436118c4919061258b565b40856040516020016118d79291906120f7565b6040516020818303038152906040528051906020012060001c6118fa919061272a565b905060fa600160149054906101000a900460ff1660ff161115611934576000600160146101000a81548160ff021916908360ff1602179055505b8092505050919050565b826003601f016020900481019282156119c75791602002820160005b8382111561199857835183826101000a81548160ff021916908360ff160217905550926020019260010160208160000104928301926001030261195a565b80156119c55782816101000a81549060ff0219169055600101602081600001049283019260010302611998565b505b5090506119d491906119fa565b5090565b6040518060600160405280600390602082028036833780820191505090505090565b5b80821115611a135760008160009055506001016119fb565b5090565b6000611a2a611a2584612506565b6124e1565b905082815260208101848484011115611a4657611a4561284b565b5b611a51848285612643565b509392505050565b600081359050611a6881612c7c565b92915050565b600081359050611a7d81612c93565b92915050565b600081519050611a9281612c93565b92915050565b600082601f830112611aad57611aac612846565b5b8135611abd848260208601611a17565b91505092915050565b600081359050611ad581612caa565b92915050565b600081519050611aea81612caa565b92915050565b600081359050611aff81612cc1565b92915050565b600060208284031215611b1b57611b1a612855565b5b6000611b2984828501611a59565b91505092915050565b60008060408385031215611b4957611b48612855565b5b6000611b5785828601611a59565b9250506020611b6885828601611a6e565b9150509250929050565b60008060408385031215611b8957611b88612855565b5b6000611b9785828601611a59565b925050602083013567ffffffffffffffff811115611bb857611bb7612850565b5b611bc485828601611a98565b9150509250929050565b600080600060608486031215611be757611be6612855565b5b6000611bf586828701611a59565b935050602084013567ffffffffffffffff811115611c1657611c15612850565b5b611c2286828701611a98565b9250506040611c3386828701611ac6565b9150509250925092565b600060208284031215611c5357611c52612855565b5b6000611c6184828501611a6e565b91505092915050565b600060208284031215611c8057611c7f612855565b5b6000611c8e84828501611a83565b91505092915050565b600060208284031215611cad57611cac612855565b5b6000611cbb84828501611adb565b91505092915050565b600080600080600060a08688031215611ce057611cdf612855565b5b6000611cee88828901611af0565b9550506020611cff88828901611a59565b945050604086013567ffffffffffffffff811115611d2057611d1f612850565b5b611d2c88828901611a98565b9350506060611d3d88828901611ac6565b9250506080611d4e88828901611af0565b9150509295509295909350565b6000611d6783836120c2565b60208301905092915050565b611d7c816125bf565b82525050565b611d93611d8e826125bf565b6126e0565b82525050565b611da281612541565b611dac8184612564565b9250611db782612537565b8060005b83811015611de8578151611dcf8782611d5b565b9650611dda83612557565b925050600181019050611dbb565b505050505050565b611df9816125d1565b82525050565b611e10611e0b826125dd565b6126f2565b82525050565b611e1f81612631565b82525050565b6000611e308261254c565b611e3a818561256f565b9350611e4a818560208601612652565b611e538161285a565b840191505092915050565b6000611e698261254c565b611e738185612580565b9350611e83818560208601612652565b80840191505092915050565b6000611e9c602f8361256f565b9150611ea782612885565b604082019050919050565b6000611ebf60148361256f565b9150611eca826128d4565b602082019050919050565b6000611ee260268361256f565b9150611eed826128fd565b604082019050919050565b6000611f05601f8361256f565b9150611f108261294c565b602082019050919050565b6000611f2860348361256f565b9150611f3382612975565b604082019050919050565b6000611f4b604d8361256f565b9150611f56826129c4565b606082019050919050565b6000611f6e60298361256f565b9150611f7982612a39565b604082019050919050565b6000611f9160398361256f565b9150611f9c82612a88565b604082019050919050565b6000611fb460108361256f565b9150611fbf82612ad7565b602082019050919050565b6000611fd760398361256f565b9150611fe282612b00565b604082019050919050565b6000611ffa601b8361256f565b915061200582612b4f565b602082019050919050565b600061201d60208361256f565b915061202882612b78565b602082019050919050565b600061204060298361256f565b915061204b82612ba1565b604082019050919050565b6000612063601c8361256f565b915061206e82612bf0565b602082019050919050565b600061208660238361256f565b915061209182612c19565b604082019050919050565b6120a58161261a565b82525050565b6120bc6120b78261261a565b61270e565b82525050565b6120cb81612624565b82525050565b6120da81612624565b82525050565b6120f16120ec82612624565b612718565b82525050565b60006121038285611dff565b6020820191506121138284611d82565b6014820191508190509392505050565b600061212f82876120e0565b60018201915061213f8286611d82565b60148201915061214f8285611e5e565b915061215b82846120ab565b60208201915081905095945050505050565b60006020820190506121826000830184611d73565b92915050565b600060608201905061219d6000830186611d73565b6121aa6020830185611d73565b6121b76040830184611df0565b949350505050565b60006060820190506121d46000830186611d73565b81810360208301526121e68185611e25565b90506121f56040830184611e16565b949350505050565b60006080820190506122126000830187611d73565b81810360208301526122248186611e25565b9050612233604083018561209c565b61224060608301846120d1565b95945050505050565b600060608201905061225e6000830184611d99565b92915050565b60006020820190506122796000830184611df0565b92915050565b60006020820190506122946000830184611e16565b92915050565b600060208201905081810360008301526122b381611e8f565b9050919050565b600060208201905081810360008301526122d381611eb2565b9050919050565b600060208201905081810360008301526122f381611ed5565b9050919050565b6000602082019050818103600083015261231381611ef8565b9050919050565b6000602082019050818103600083015261233381611f1b565b9050919050565b6000602082019050818103600083015261235381611f3e565b9050919050565b6000602082019050818103600083015261237381611f61565b9050919050565b6000602082019050818103600083015261239381611f84565b9050919050565b600060208201905081810360008301526123b381611fa7565b9050919050565b600060208201905081810360008301526123d381611fca565b9050919050565b600060208201905081810360008301526123f381611fed565b9050919050565b6000602082019050818103600083015261241381612010565b9050919050565b6000602082019050818103600083015261243381612033565b9050919050565b6000602082019050818103600083015261245381612056565b9050919050565b6000602082019050818103600083015261247381612079565b9050919050565b600060208201905061248f600083018461209c565b92915050565b60006080820190506124aa60008301876120d1565b6124b76020830186611d73565b81810360408301526124c98185611e25565b90506124d8606083018461209c565b95945050505050565b60006124eb6124fc565b90506124f78282612685565b919050565b6000604051905090565b600067ffffffffffffffff82111561252157612520612817565b5b61252a8261285a565b9050602081019050919050565b6000819050919050565b600060039050919050565b600081519050919050565b6000602082019050919050565b600081905092915050565b600082825260208201905092915050565b600081905092915050565b60006125968261261a565b91506125a18361261a565b9250828210156125b4576125b361275b565b5b828203905092915050565b60006125ca826125fa565b9050919050565b60008115159050919050565b6000819050919050565b60008190506125f582612c68565b919050565b600073ffffffffffffffffffffffffffffffffffffffff82169050919050565b6000819050919050565b600060ff82169050919050565b600061263c826125e7565b9050919050565b82818337600083830152505050565b60005b83811015612670578082015181840152602081019050612655565b8381111561267f576000848401525b50505050565b61268e8261285a565b810181811067ffffffffffffffff821117156126ad576126ac612817565b5b80604052505050565b60006126c182612624565b915060ff8214156126d5576126d461275b565b5b600182019050919050565b60006126eb826126fc565b9050919050565b6000819050919050565b600061270782612878565b9050919050565b6000819050919050565b60006127238261286b565b9050919050565b60006127358261261a565b91506127408361261a565b9250826127505761274f61278a565b5b828206905092915050565b7f4e487b7100000000000000000000000000000000000000000000000000000000600052601160045260246000fd5b7f4e487b7100000000000000000000000000000000000000000000000000000000600052601260045260246000fd5b7f4e487b7100000000000000000000000000000000000000000000000000000000600052602160045260246000fd5b7f4e487b7100000000000000000000000000000000000000000000000000000000600052603260045260246000fd5b7f4e487b7100000000000000000000000000000000000000000000000000000000600052604160045260246000fd5b600080fd5b600080fd5b600080fd5b600080fd5b6000601f19601f8301169050919050565b60008160f81b9050919050565b60008160601b9050919050565b7f466c69676874206f722074696d657374616d7020646f206e6f74206d6174636860008201527f206f7261636c6520726571756573740000000000000000000000000000000000602082015250565b7f5061757361626c653a206e6f7420706175736564000000000000000000000000600082015250565b7f4f776e61626c653a206e6577206f776e657220697320746865207a65726f206160008201527f6464726573730000000000000000000000000000000000000000000000000000602082015250565b7f43616e277420726567697374657220616e206169726c696e6520747769636500600082015250565b7f436f6e7472616374206e6565647320746f206265206f7065726174696f6e616c60008201527f20746f2073657420697420746f20706175736564000000000000000000000000602082015250565b7f4f6e6c7920636f6e7472616374206f776e657220616e642066756e646564206160008201527f69726c696e65732061726520616c6c6f77656420746f2072656769737465722060208201527f61206e6577206169726c696e6500000000000000000000000000000000000000604082015250565b7f436f6e7472616374206973206e6f74206f7065726174696f6e616c206174207460008201527f6865206d6f6d656e740000000000000000000000000000000000000000000000602082015250565b7f436f6e7472616374206e6565647320746f2062652070617573656420746f207360008201527f6574206974206261636b20746f206f7065726174696f6e616c00000000000000602082015250565b7f5061757361626c653a2070617573656400000000000000000000000000000000600082015250565b7f4f6e6c792066756e646564206169726c696e65732061726520616c6c6f77656460008201527f20746f20766f746520666f72206e6577206169726c696e657300000000000000602082015250565b7f4e6f74207265676973746572656420617320616e206f7261636c650000000000600082015250565b7f4f776e61626c653a2063616c6c6572206973206e6f7420746865206f776e6572600082015250565b7f4d7573742070617920656e6f7567682045544820746f2073657420757020746860008201527f652066756e64696e670000000000000000000000000000000000000000000000602082015250565b7f526567697374726174696f6e2066656520697320726571756972656400000000600082015250565b7f496e64657820646f6573206e6f74206d61746368206f7261636c65207265717560008201527f6573740000000000000000000000000000000000000000000000000000000000602082015250565b60068110612c7957612c786127b9565b5b50565b612c85816125bf565b8114612c9057600080fd5b50565b612c9c816125d1565b8114612ca757600080fd5b50565b612cb38161261a565b8114612cbe57600080fd5b50565b612cca81612624565b8114612cd557600080fd5b5056fea264697066735822122086d0c3f8d6880e4b350321d7040f1c484f8f426134b792b22f2c1ae73be265e464736f6c63430008060033",
  "immutableReferences": {},
  "source": "// SPDX-License-Identifier: UNLICENSED\n\npragma solidity ^0.8.6;\n\nimport \"@openzeppelin/contracts/access/Ownable.sol\";\nimport \"@openzeppelin/contracts/security/Pausable.sol\";\nimport \"@openzeppelin/contracts/utils/math/SafeMath.sol\";\nimport \"./FlightSuretyData.sol\";\n\ncontract FlightSuretyApp is Ownable, Pausable {\n\n    using SafeMath for uint256; // Allow SafeMath functions to be called for all uint256 types (similar to \"prototype\" in Javascript)\n\n    /********************************************************************************************/\n    /*                                       STRUCTS / ENUMS                                    */\n    /********************************************************************************************/\n\n    struct Oracle {\n        bool isRegistered;\n        uint8[3] indexes;\n    }\n\n    // Model for responses from oracles\n    struct ResponseInfo {\n        address requester;                              // Account that requested status\n        bool isOpen;                                    // If open, oracle responses are accepted\n        mapping(uint8 => address[]) responses;          // Mapping key is the status code reported\n        // This lets us group responses and identify\n        // the response that majority of the oracles\n    }\n\n    /********************************************************************************************/\n    /*                                       VARIABLES                                          */\n    /********************************************************************************************/\n\n    // Instance of the data smart contract\n    FlightSuretyData private dataContract;\n\n    // Incremented to add pseudo-randomness at various points\n    uint8 private nonce = 0;\n\n    // Track all registered oracles\n    mapping(address => Oracle) private oracles;\n\n    // Track all oracle responses\n    // Key = hash(index, flight, timestamp)\n    mapping(bytes32 => ResponseInfo) private oracleResponses;\n\n    /********************************************************************************************/\n    /*                                       CONSTANTS                                          */\n    /********************************************************************************************/\n\n    // Flight status codes\n    uint8 private constant STATUS_CODE_UNKNOWN = 0;\n    uint8 private constant STATUS_CODE_ON_TIME = 10;\n    uint8 private constant STATUS_CODE_LATE_AIRLINE = 20;\n    uint8 private constant STATUS_CODE_LATE_WEATHER = 30;\n    uint8 private constant STATUS_CODE_LATE_TECHNICAL = 40;\n    uint8 private constant STATUS_CODE_LATE_OTHER = 50;\n\n    // Fee to be paid when registering oracle\n    uint256 public constant REGISTRATION_FEE = 1 ether;\n\n    // Number of oracles that must respond for valid status\n    uint256 private constant MIN_RESPONSES = 3;\n\n    // Number of airlines that can be registered without voting\n    uint256 private constant NO_NEED_APPROVAL = 4;\n\n    // Minimum ETH to set up funding by an airline\n    uint256 public constant MINIMUM_FUNDING = 10 ether;\n\n    /********************************************************************************************/\n    /*                                       EVENTS                                             */\n    /********************************************************************************************/\n\n    // Event fired each time an oracle submits a response\n    event FlightStatusInfo(address airline, string flight, uint256 timestamp, uint8 status);\n\n    event OracleReport(address airline, string flight, uint256 timestamp, uint8 status);\n\n    // Event fired when flight status request is submitted\n    // Oracles track this and if they have a matching index\n    // they fetch data and submit a response\n    event OracleRequest(uint8 index, address airline, string flight, uint256 timestamp);\n\n    /********************************************************************************************/\n    /*                                       FUNCTION MODIFIERS                                 */\n    /********************************************************************************************/\n\n    // Modifiers help avoid duplication of code. They are typically used to validate something\n    // before a function is allowed to be executed.\n    // All modifiers require an \"_\" which indicates where the function body will be added.\n\n    modifier requireIsOperational() {\n        require(isOperational(), \"Contract is not operational at the moment\");\n        _;\n    }\n\n    modifier allowedToRegister() {\n        require(msg.sender == owner() || dataContract.isFunded(msg.sender), \"Only contract owner and funded airlines are allowed to register a new airline\");\n        _;\n    }\n\n    modifier eligibleToVote() {\n        require(dataContract.isFunded(msg.sender), \"Only funded airlines are allowed to vote for new airlines\");\n        _;\n    }\n\n    modifier enoughForFunding() {\n        require(msg.value >= MINIMUM_FUNDING, \"Must pay enough ETH to set up the funding\");\n        _;\n    }\n\n    /********************************************************************************************/\n    /*                                       CONSTRUCTOR                                        */\n    /********************************************************************************************/\n\n    /**\n    * @dev Contract constructor\n    *\n    */\n    constructor(address dataContractAdr)\n    {\n        dataContract = FlightSuretyData(dataContractAdr);\n    }\n\n    /********************************************************************************************/\n    /*                                       ADMIN FUNCTIONS                                    */\n    /********************************************************************************************/\n\n    function setOperatingStatus(bool operational)\n        public\n        onlyOwner()\n    {\n        if (operational) {\n            require(paused(), \"Contract needs to be paused to set it back to operational\");\n            _unpause();\n        } else {\n            require(!paused(), \"Contract needs to be operational to set it to paused\");\n            _pause();\n        }\n    }\n\n    function isOperational()\n    public\n    view\n    returns (bool)\n    {\n        return !paused() && !dataContract.paused();\n    }\n\n    function setTestingMode(bool active)\n    public\n    onlyOwner()\n    requireIsOperational()\n    {\n\n    }\n\n    /********************************************************************************************/\n    /*                                       UTILITY FUNCTIONS                                  */\n    /********************************************************************************************/\n\n    function getFlightKey(\n        address airline,\n        string memory flight,\n        uint256 timestamp\n    )\n    pure\n    internal\n    returns (bytes32)\n    {\n        return keccak256(abi.encodePacked(airline, flight, timestamp));\n    }\n\n    // Returns array of three non-duplicating integers from 0-9\n    function generateIndexes(address account)\n        internal\n        returns (uint8[3] memory)\n    {\n        uint8[3] memory indexes;\n        indexes[0] = getRandomIndex(account);\n\n        indexes[1] = indexes[0];\n        while (indexes[1] == indexes[0]) {\n            indexes[1] = getRandomIndex(account);\n        }\n\n        indexes[2] = indexes[1];\n        while ((indexes[2] == indexes[0]) || (indexes[2] == indexes[1])) {\n            indexes[2] = getRandomIndex(account);\n        }\n\n        return indexes;\n    }\n\n    // Returns array of three non-duplicating integers from 0-9\n    function getRandomIndex(address account)\n        internal\n        returns (uint8)\n    {\n        uint8 maxValue = 10;\n        // Pseudo random number...the incrementing nonce adds variation\n        uint8 random = uint8(uint256(keccak256(abi.encodePacked(blockhash(block.number - nonce++), account))) % maxValue);\n        if (nonce > 250) nonce = 0;\n        return random;\n    }\n\n    /********************************************************************************************/\n    /*                                     SMART CONTRACT FUNCTIONS                             */\n    /********************************************************************************************/\n\n    // region AIRLINES AND FLIGHTS\n\n    /**\n     * @dev Add an airline to the registration queue\n     *\n     */\n    function registerAirline(address adr, string memory name)\n    external\n    allowedToRegister()\n    returns (FlightSuretyData.State)\n    {\n        require(!dataContract.isAirline(adr), \"Can't register an airline twice\");\n        bool needsApproval = dataContract.approvedAirlinesCount() >= NO_NEED_APPROVAL;\n        FlightSuretyData.State state = needsApproval ? FlightSuretyData.State.Queued : FlightSuretyData.State.Approved;\n        dataContract.addAirline(adr, name, state);\n        return state;\n    }\n\n    /**\n     * @dev Initial funding for the insurance. Unless there are too many delayed flights\n     *      resulting in insurance payouts, the contract should be self-sustaining\n     *\n     */\n    function fund()\n    public\n    payable\n    enoughForFunding()\n    {\n        dataContract.fund(msg.sender);\n    }\n\n    function vote(address airlineAdr, bool approve)\n    public\n    eligibleToVote()\n    {\n        dataContract.vote(msg.sender, airlineAdr, approve);\n    }\n\n    /**\n     * @dev Register a future flight for insuring.\n     *\n     */\n    function registerFlight()\n    external\n    pure\n    {\n\n    }\n\n    /**\n     * @dev Called after oracle has updated flight status\n     *\n     */\n    function processFlightStatus\n    (\n        address airline,\n        string memory flight,\n        uint256 timestamp,\n        uint8 statusCode\n    )\n    internal\n    pure\n    {\n\n    }\n\n    // Generate a request for oracles to fetch flight information\n    function fetchFlightStatus\n    (\n        address airline,\n        string memory flight,\n        uint256 timestamp\n    )\n    external\n    {\n        uint8 index = getRandomIndex(msg.sender);\n\n        // Generate a unique key for storing the request\n        bytes32 key = keccak256(abi.encodePacked(index, airline, flight, timestamp));\n\n        ResponseInfo storage responseInfo = oracleResponses[key];\n        responseInfo.requester = msg.sender;\n        responseInfo.isOpen = true;\n\n        emit OracleRequest(index, airline, flight, timestamp);\n    }\n\n    // endregion\n\n    // region ORACLE MANAGEMENT\n\n    // Register an oracle with the contract\n    function registerOracle()\n        external\n        payable\n    {\n        // Require registration fee\n        require(msg.value >= REGISTRATION_FEE, \"Registration fee is required\");\n\n        uint8[3] memory indexes = generateIndexes(msg.sender);\n\n        oracles[msg.sender] = Oracle({\n            isRegistered: true,\n            indexes: indexes\n        });\n    }\n\n    // Get an oracle's three randomly generated indexes\n    function getMyIndexes()\n        view\n        external\n        returns (uint8[3] memory)\n    {\n        require(oracles[msg.sender].isRegistered, \"Not registered as an oracle\");\n        return oracles[msg.sender].indexes;\n    }\n\n    // Called by oracle when a response is available to an outstanding request\n    // For the response to be accepted, there must be a pending request that is open\n    // and matches one of the three Indexes randomly assigned to the oracle at the\n    // time of registration (i.e. uninvited oracles are not welcome)\n    function submitOracleResponse\n    (\n        uint8 index,\n        address airline,\n        string memory flight,\n        uint256 timestamp,\n        uint8 statusCode\n    )\n    external\n    {\n        require((oracles[msg.sender].indexes[0] == index) || (oracles[msg.sender].indexes[1] == index) || (oracles[msg.sender].indexes[2] == index), \"Index does not match oracle request\");\n\n        bytes32 key = keccak256(abi.encodePacked(index, airline, flight, timestamp));\n        require(oracleResponses[key].isOpen, \"Flight or timestamp do not match oracle request\");\n\n        oracleResponses[key].responses[statusCode].push(msg.sender);\n\n        // Information isn't considered verified until at least MIN_RESPONSES\n        // oracles respond with the *** same *** information\n        emit OracleReport(airline, flight, timestamp, statusCode);\n        if (oracleResponses[key].responses[statusCode].length >= MIN_RESPONSES) {\n\n            emit FlightStatusInfo(airline, flight, timestamp, statusCode);\n\n            // Handle flight status as appropriate\n            processFlightStatus(airline, flight, timestamp, statusCode);\n        }\n    }\n\n    // endregion\n\n    /********************************************************************************************/\n    /*                                       FALLBACK FUNCTIONS                                 */\n    /********************************************************************************************/\n\n    //    fallback()\n    //        external\n    //        payable\n    //    {\n    //        // TODO: check if sender is an airline\n    //        // fund();\n    //    }\n    //\n    //    receive()\n    //        external\n    //        payable\n    //    {\n    //        // TODO: check if sender is an airline\n    //        // fund();\n    //    }\n}   \n",
  "sourcePath": "/home/julian/Development/blockchain/uda/contracts/FlightSuretyApp.sol",
  "compiler": {
    "name": "solc",
    "version": "0.8.6+commit.11564f7e.Emscripten.clang"
  },
  "schemaVersion": "3.4.1",
  "updatedAt": "2021-07-13T06:36:09.216Z",
  "networkType": "ethereum",
  "devdoc": {
    "kind": "dev",
    "methods": {
      "constructor": {
        "details": "Contract constructor"
      },
      "fund()": {
        "details": "Initial funding for the insurance. Unless there are too many delayed flights      resulting in insurance payouts, the contract should be self-sustaining"
      },
      "owner()": {
        "details": "Returns the address of the current owner."
      },
      "paused()": {
        "details": "Returns true if the contract is paused, and false otherwise."
      },
      "registerAirline(address,string)": {
        "details": "Add an airline to the registration queue"
      },
      "registerFlight()": {
        "details": "Register a future flight for insuring."
      },
      "renounceOwnership()": {
        "details": "Leaves the contract without owner. It will not be possible to call `onlyOwner` functions anymore. Can only be called by the current owner. NOTE: Renouncing ownership will leave the contract without an owner, thereby removing any functionality that is only available to the owner."
      },
      "transferOwnership(address)": {
        "details": "Transfers ownership of the contract to a new account (`newOwner`). Can only be called by the current owner."
      }
    },
    "version": 1
  },
  "userdoc": {
    "kind": "user",
    "methods": {},
    "version": 1
  }
}